:20000000A03A01208D13010039FB021039FB021039FB021039FB021039FB021039FB0210A0
:1C00200039FB021039FB021039FB021039FB021039FB021039FB021011FB021002
:20003C0088570020B8530020245700202C54002028450020A05500209057002050560020D0
:20005C0034570020C0540020701B0000901E0000041F0000AC1E00009E1E00004457002008
:20007C0064430020684300206C4300207043002074430020784300207C43002080430020BC
:20009C008443002054570020F4530020FC560020EC54002032160000C0150000A416000082
:2000BC001617000088170000841D0000D41E0000C81E0000CF5700207C570020B44500208D
:2000DC006C560020E44400209F570020C85700206054002010570020B03F00208843002030
:2000FC00B4140000B7110000D8190000203E0020801E0000704F0020C4570020C0570020F6
:20011C008C43002090430020B8570020F81A0000BC5600206C51002078530020D4180000BA
:20013C00D8450020A0570020B0570020301F00008B1F000030430020D04B0020B04600204B
:20015C00014A031049480310D54903101547031005CC00005D49031081470310A146031082
:20017C009548031045450310254A031021440310ED47031099490310E148031021490310E7
:20019C005553031089520310CD520310655003108D4E03105DCF0000FDE300004D03010055
:2001BC003567000059510310ED50031099C30000CD4B03102952031011530310A9550310DD
:2001DC007555031069530310DD55031035550310B5CE000021540310855C03100D56031000
:2001FC004D5D0310A9640310B55B03106D570310E5610310095E0310C55803108560031011
:20021C0071610310B16203109963031055630310FD600310B15E031099BD0000D55A0310B3
:20023C00D559031009630310D963031019640310555F0310C56403104D6203107164031056
:20025C008D64031055640310E16403102975031079720310A16B0310F57203109D740310EE
:20027C00797403102D74031061730310FD7303105574031015750310D96C0310FD740310EF
:20029C00DD8D0000E17403103D75031041C70000F9640310CD6803102D710310C1740310F2
:2002BC00F56E0310B973031029670310056E0310C56F031041DE0000A1770310797D0310AA
:2002DC003D7E031049750310157E0310357D031099760310997C0310257B031071780310FF
:2002FC00B57D0310ED7C0310857E03102D790310B97A0310917B0310B1790310ED7B031035
:20031C00E97D0310617E0310357A0310D57E0310457C0310A57E0310BD7E031039B20000EB
:20033C00D9800310E97E031049830310898403108D8103107D820310E58403102B8403104B
:20035C00C5830310918703106188031045880310F1850310B18803107D880310C9880310CE
:20037C001D870310A186031001850310E188031099880310F98703105DC10000359C031092
:20039C00819D0310E99A0310359B0310C19B0310419A0310F18803101D8C0310618F0310EF
:2003BC00F1940310919E0310C19E03103D9E0310699E0310259E0310619D03100D9E031028
:2003DC00819B0310ED93031055990310C9970310D9980310BD950310959C0310C19D03102D
:2003FC00A59E03107D9E0310C99103102DE10000699C0310DD9D031095900310FD9B03105A
:20041C00CD990310158E0310019D0310E19C0310219D0310419D0310BD9C0310F59D03107D
:20043C00A19D031055980310E1920310999A0310B99E0310559E031059360100C74E01006D
:20045C0039A20310674A010069A1031075A20310C59E0310B9A10310F9A1031015A1031040
:20047C009DA2031045590100D70A01005DBE0000812E0100495801003D44000031A90310B2
:20049C00ADA20310ED7F0000B9A8031099A50310D5AD000039A803106DA9031075B60000E3
:2004BC006DAC031099B1031009AF031059B1031001B103109DA9031021EC000071DF000034
:2004DC00E3230100B9D50000856A00003D190100F1D10000057400004DA80000F1AC000058
:2004FC00C5B40000F1B9031075BA031081BB03102D320100D5F00000790D0100B5B90000FF
:20051C0025300100E5080100053B010049090100F5310100E94501009D4D0100190D01007F
:20053C00C52201005D370100C91B010041DB00000D510100B9F800006D2401003D510100F0
:20055C0015240000B96D0000E1680000897E0000E9C60310115E0000059E0000F5530100B3
:20057C0045330100AD4E0100D90D01008D5A0100E14E0100E15301004D5B010019110100E2
:20059C00C1E600006DE3000001000000000000000000000000000000FFFFFFFF7C46002069
:2005BC000400000000000000000000001400000030FD021018000000601F000064060000C7
:2005DC00544600200400000000000000000000002400000018FD0210180000007552010016
:2005FC00080000005407000018060000C1C8021001BB021091EB0210DDE5021081E0021020
:20061C00B9E5021071E50210340000000100000002000000681F000000000000FFFFFFFFEC
:20063C007446002004000000000000000000000028000000B8FC0210240000001E00000090
:20065C001800000000000000CC080000780600009BEC021025E2021005EB021025DE02104B
:20067C00FDE10210E1E402103200000034000000240029000000000088450020FFFFFFFFFB
:20069C009C460020040000000000000000000000380000006CFC021028000000010000005D
:2006BC00100000000000000000000000F7F1021000001A001000000003000000F81E0000D1
:2006DC00CB1D0000080000003600000048450020C443002009001D004B4701009042002059
:2006FC000100000000001200FFFFFFFF8C46002004000000000000000000000010000000C9
:20071C0048FD0210180000000000000000001300FFFFFFFFA4460020040000000000000031
:20073C000000000054000000A0FB02103C0000000000010030000000A8050000E34101005D
:20075C00330000005D5A0100540700007C070000ED140100D9DB021059EC0210CDD60210E0
:20077C0085DE02104DE5021029E5021033000000000016000000000000000000FF7F0000BD
:20079C003C410020FFFFFFFF8446002004000000000000000000000058000000DCFB021075
:2007BC003400000039FB021001003200060000000000000020000000010000001BF8021024
:2007DC0028000000CC080000F407000093EC02106DEB02104DEC021029E00210BDE40210F2
:2007FC0099E4021030000000000000005C4600200400000000000000000000001000000048
:20081C0040FC02102C000000000000000000030000000F003C0000000000000000000000F4
:20083C002FF902101000000008000000081E0000FFFFFFFF9446002004000000000000002A
:20085C00000000001C000000DCFC021024000000E0070000444600200400000000000000BD
:20087C00000000000C00000000FD021018000000FB4E0100000000000000000008000000D7
:20089C000100000004000000000000000000140000000000281A00000000190000001800B0
:2008BC00240000007D5B01000040000000020000A80500000000100055F002100C000000BD
:2008DC0049A20000000000003C4600200400000000000000000000002000000010FC02102D
:2008FC0030000000401A0000010000003D5A0100C3380100000000000000170000020000A4
:20091C0034000000000023000000150001000000640700006C46002004000000000000000D
:20093C00000000002000000094FC021024000000581A00001046002020000000F81B00009A
:20095C00E84E0020405300202446002038530020E8400020985700202814000070570020C3
:20097C005C4E0020F0500020F452002004460020AC460020281F00000908031001010310CF
:20099C00890903105D0303100105031089060310D1080310210A0310810B0310810A031001
:2009BC00110B0310510B0310D10A031029100310610D0310890E0310050E0310B50F03101B
:2009DC00D10B0310511003103D10031065100310FD0E0310ED0F0310B50C0310650F031028
:2009FC00111003106910031009120310F5120310AD110310291103105D120310B11203105D
:200A1C0019250310552703108D240310F12603100528031089260310CD2303105928031053
:200A3C00ED1F0310251303100D210310911D0310B12703100D2203109925031019260310DE
:200A5C00A91B0310CF2803109528031039290310052903106D29031099160310C91E0310AE
:200A7C007D1903100D230310C92C03101D2C0310292D0310B52B0310F52C03109D290310A1
:200A9C00CD2A0310452B0310472D0310112D0310412D0310752C031029340310C138031024
:200ABC0071360310A12E03108133031029240100A93A03103D3A0310C53403101138031081
:200ADC00753A03104D2D031009320310E12F031015390310F939031019310310B13703103C
:200AFC00F5350310B13903105D350310C5320310E5360310693903104D370310253D031002
:200B1C00413D0310F53C0310C93A0310A53C03109D3D0310593D031019430310CD3D0310B8
:200B3C00A14303104D400310093F031061420310CD400310C9430310E5430310C93F03105C
:200B5C0011440310FD4303101F440310A942031019420310E1420310C141031075430310C6
:200B7C0049430310494103101B440310AD0B0310E15A0100E55A0100F15A01009759010027
:200B9C00F55A0100ED5A0100E95A0100FD5A0100F95A0100A45700206D400021D740002190
:200BBC009940002105410021114100211D410021354100214D410021074C657900F009F85E
:200BDC0061796940490703D50121044A8903116070BD70B5024908478003002108110440F4
:200BFC002D59000000F019F8E1B26C290BD0042801D0062807D110490978C90703D1217835
:200C1C00090700D402200D490A780C21114202D00B4980220A6003B0F0BDF0B583B009499E
:200C3C00084700200849884704480178402291430170064800470000C800002133010021CA
:200C5C0000E200E041160300F7630000231B030000F082F800480047577F000000F082F888
:200C7C00004800471B880000094B1A780824A243002800D022431A70004A1047838E000096
:200C9C0003490878000701D40248004770470000800300215F7E0000044A2820904704480E
:200CBC00012141600348044A416010474F42000000500440006004408542000070B51F4DA3
:200CDC002878C4B21E4880472878032834D1032C32D01C488068400DC2071A480146603118
:200CFC008030002A03D01F240C57458802E01E240C570588002C1FD01348154A41690079AC
:200D1C004143481011494969401810494039497F904740054015694288420DDBA8420BDC3E
:200D3C000C4B996988B20246090C624309045212801880B20843986170BD0000E40200214F
:200D5C0079410000280000218003002100030021CB81000040400440806B0C490007000F46
:200D7C0048717047094A0A4918235079CB56497EC018814201DD084602E00F2800DD0F2069
:200D9C00D189090909010143D1817047E0020021880000213C202020202020434F4E46495D
:200DBC00475552452020202020203E003C2020202020205345542050414E494420202020F2
:200DDC0020203E003C20202020534554204348414E204D41534B202020203E003C202020F1
:200DFC002020534554204E574B204B455920202020203E003C2020202020204241434B2087
:200E1C0020202020203E00C03C2020204E4554574F524B20414354494F4E532020203E0083
:200E3C003C2020202020204153534F43494154452020202020203E003C2020202044495364
:200E5C004153534F434941544520202020203E003C2020202020202020204150502020205F
:200E7C002020202020203E003C20202053454E44204C4544204944454E54202020203E004B
:200E9C002054492053656E736F7220003C20202020202048454C502020202020203E00C0DC
:200EBC0000202020202020202020282828282820202020202020202020202020202020200E
:200EDC00208810101010101010101010101010101044444444444444444444101010101066
:200EFC001010414141414141010101010101010101010101010101010101010110101010DC
:200F1C001010424242424242020202020202020202020202020202020202020210101010A1
:200F3C00200000000000000000000000000000000000000000000000000000000000000075
:200F5C00000000000000000000000000000000000000000000000000000000000000000075
:200F7C00000000000000000000000000000000000000000000000000000000000000000055
:200F9C00000000000000000000000000000000000000000000000000000000000000000035
:200FBC00000097B92EE5725CCB5DCAE473B82F0196BA2D03945FC8E671E7705EC90295BB51
:200FDC002CE3745ACD0691BF28BE2907905BCCE27559CEE077BC2B05920493BD2AE17658A8
:200FFC00CF51C6E87FB4230D9A0C9BB522E97E50C7EB7C52C50E99B720B6210F9853C4EA93
:20101C007DB2250B9C57C0EE79EF7856C10A9DB324089FB126ED7A54C355C2EC7BB02709E5
:20103C009EA2351B8C47D0FE69FF6846D11A8DA334188FA136FD6A44D345D2FC6BA0371994
:20105C008E41D6F86FA4331D8A1C8BA532F96E40D7FB6C42D51E89A730A6311F8843D4FA63
:20107C006DF3644ADD1681AF38AE3917804BDCF26549DEF067AC3B15821483AD3AF16648D6
:20109C00DF1087A93EF5624CDB4DDAF463A83F1186AA3D13844FD8F661F7604ED91285ABA1
:2010BC003C00CD2A031000452B0310021F44031000FD430310011F44031000FD43031003B3
:2010DC00D10B031000FD430310045110031000FD43031001472D031001412D031001FD439C
:2010FC00031001FD43031001FD43031000752C031001FD43031001FD43031001FD43031069
:20111C0001FD43031002472D031002412D031002FD43031000752C031002FD43031002FDF6
:20113C0043031002FD0E031002FD430310046510031000FD43031003472D031003412D03EB
:20115C0010031F440310031F44031003FD43031003D10B031003FD43031000752C0310031C
:20117C00FD43031003FD43031004472D031004412D0310041F440310041F440310041F443F
:20119C000310046510031004FD43031004FD430310043D10031000752C0310000136360160
:2011BC00010001020100010301000104010606080400000C0100340D01000F100401011463
:2011DC000100FF1608000020020000220100FF23010001240100FE250100082602000028CB
:2011FC00010001290100012A0200002C01000F2E0200003001000131010008320200FF343B
:20121C00010007350102FF360100003701000138010001390100FF3A01000F3C0200FF3ECB
:20123C0001010F3F0100014001041F41010001420100FF43010080440800004E0100084FA1
:20125C0001000F50010001510100FF5201000A5301008954010001580400005C0400006013
:20127C0004000064040000680400006C0400007004000074040000780400007C04000080A2
:20129C000100FF81010001820100018301010284010001FFB4460020D1570020D257002074
:2012BC00B5460020C9570020B6460020B746002051590100A53C00006550010009400100F2
:2012DC00DD3F010061100100BD100100A5DA00004926010025430100753A0100791B0100F8
:2012FC00F159010009540100AD4701008D3601007D450100853F0100B13F0100C1360100FF
:20131C00A53A010031ED0000D5BC00003B410100E5130100B90C01002D59010039590100CC
:20133C00370E01002D4D01002B120100D1D800007D2201004DE70000F53601005D59010032
:20135C009D320100C5500100555B010061300100516F00004D490100F1E80000C51E010034
:20137C000308000000000000000000000001640300000000000000000538000000000000A1
:20139C000000000000000000000000000000000000000000033800000000000000000000F6
:2013BC008201081014000084000000004E905500000000000738000000000000000000006C
:2013DC00000121030F008000520798E00800C810744400206403008005000000043800008C
:2013FC000000000000000000000188F94E90550000000000FF0710580000FC0100000000B1
:20141C000000000000000000000000000000000000000000000000000000000000000000B0
:20143C00000000000000000000000000000000000000000000000000000000000000000090
:20145C00000000000000000000000000000000000000000000000000000000000000000070
:20147C00000000000000000000000000000000000000000000000000000000000000000050
:20149C000000000000000000000000000000000000000000000000003600010006000000F3
:2014BC0000000000000F000000000000000000000000000000000300FFFF00000403FFFFFB
:2014DC000000FFFF0F00E8030005401F0310000101000000FF3F0F0008000E00000000001C
:2014FC00000000000300010F000009010000000000000000000000000000000000000000B3
:20151C00000000000000000000000000000000000000000000000000AD0000010000000001
:20153C0000000000000000000000000000000000000000000000000000000000000000008F
:20155C0000000000000000000000000000000000000000000000000000000000000000006F
:20157C0000000000000000000000000000000000000000000000000000000000000000004F
:20159C0000000000000000000000000000000000000000000000000000000000000000002F
:2015BC000000000001017101010101011101010131010101010180010001100161013B001D
:2015DC001400630173017201620143010001130106013D013500040112010001000100013F
:2015FC00000104010401330133013C01440132013600000100016501000135008101000150
:20161C000501820183010001660100010001080109010A010B0103007100300160001100F7
:20163C0070003102200350048000070010006100000014006300730072006200430000007B
:20165C00130006000000000004001200000000000000000004000400370037003C02440047
:20167C00000000000000000065000000350081000000050000008300000066000000000045
:20169C00080009000A000B00030271023001600211027002010202020202800200021002D7
:2016BC0061023A0041006302730272026202430200021302380000020002040212020002CA
:2016DC0000020002000204020402370037003C02440200023900000200026502000235020B
:2016FC00810200020502820283020002660200020002080209020A020B0201037103010321
:20171C00010301030103010322030203010300031003000300030003000300030003000344
:20173C00420300032403060300030003040312032503230325032303040304030003000343
:20175C00000344030003000323030003650321003503810300030503000300030003000398
:20177C0025032303080309030A030B03030471040204600411047004020402040104020447
:20179C0000041004610400041404630473047204620443040004130406040004000404045E
:2017BC00120400040004000400045104640000040004000444040004000400040004650461
:2017DC0000043504810464000504000483040004660400040004080409040A040B0400087F
:2017FC005F4E01008D5201001DE5000059280100ED470100DDDB000055F700002947010011
:20181C000D480100153D0100433D0100D32C01002D3801005D4F0100950E0100491D010064
:20183C00B9070100F10E0100DBFD02100D46010011DC0210A9E50000915801006140010074
:20185C000D550100215501000D4E0100117D05007998000000000000000000000000000092
:20187C008D4F01009554010079FB0000595401007B5A0100755A0100A954010000000000BF
:20189C001D5A010005FB000025FE0000694C01004DE20000975501009DAF0000015400001E
:2018BC0089EA0000CD48010000000000DD120100154C0100D9D30000000002000000020081
:2018DC000200020000000300040001000000020000000000000000000500010000000700D1
:2018FC00060001000000030007000800000000000F0001000100FF0010000800000000008B
:20191C001800080000000000220002000000000000B0004034000000FF000000605500206F
:20193C00200000008055002020000000000000000C0000000D000000FF000000FF0000003F
:20195C0060180020501800204000000020000000140000001400000013000000150000009B
:20197C0016000000000200008F0000008F0001008F0002008F000300900000018F000101CF
:20199C0090000002900000038F0001048F0000058F0008048F0000048A00000651000000CF
:2019BC007F0001003F0004003F0002003F0001007F0002008F0002048F00010238C40D0016
:2019DC00C80000008100000032000F0100C50D00900100004000000096000501952B0D0054
:2019FC00C80000002200000032000F0200000000000000000000000000000000000000009E
:201A1C000000000000000000000000007B7374617469632D696E7374616E63652D6E616DBC
:201A3C00657D00C07B656D7074792D696E7374616E63652D6E616D657D00C0467B756E6BA2
:201A5C006E6F776E2D696E7374616E63652D6E616D657D00751101001FF9021045F80210DB
:201A7C0059F802106DF8021081F8021095F802105DF40000F53B0100992B01005F38010067
:201A9C007946010035550100ED490100C53B0100FD5701005D520100C10001005553010037
:201ABC00F15501000B580100E1550100055A01004B5A0100455A0100000000000000000082
:201ADC000000000000000000000000000000000000000000A95701009B570100C003000033
:201AFC0080070000000F0000001E0000003C00000078000000F0000000E0010000C00300CE
:201B1C000080070000000F0000001E0000003C00000078000000F0000000F000000104005C
:201B3C00003333333333333333333333333333333303014648546573740000000000000027
:201B5C00000000000000000000000000000000000000000000000000020000000200000065
:201B7C000A000000020000000200010000000000000000000000000000000000000000003A
:201B9C0000000000000000000E000000155A0100695A010025390100A54B0100ED17010092
:201BBC00C14B01005DF200003925010079580100358A000054070000E81B000021570100E6
:201BDC00315701005157010041570100853C0100C1460100B94001003500000015F9021005
:201BFC0001E602102DDA021045E7021041D10210C9D30210A5DF02102DE4021061EA021091
:201C1C00D92B01004E42434E004E42434E00070005000000FFFFFFFFFFFFFFFFFFFFFFFF61
:201C3C00FFFFFFFF010000000303001B5B324A1B5B32301B5B3F32356C001B5B324A1B5BCB
:201C5C0032301B5B3F32356C0000000000000000000000000000000000000000000000007E
:201C7C000100000000C201000300000000000000CC080000A01C0000695B010065E80000DF
:201C9C00EDFB0000253C01009D4601008D40010031000000000000000000000000000000FB
:201CBC000000000000000000000000000000000000000000FFFFFFFF00000000000000000C
:201CDC00000000003A013A0100000000000000000000000000000000000000000000000072
:201CFC0000000000000000000000000000000000000000008C1C00004C460020040000006A
:201D1C000000000000000000200000009C1D000018000000D01B00006446002004000000FD
:201D3C00000000000000000014000000501D00001C0000001C0000000000000000000000CE
:201D5C00641D00000000000008000000000000000100000040420F0001000000000000004B
:201D7C00000000000000000000000500BD00B700B100BC001C00300038000800380102009A
:201D9C00180000000000000000000000AC1D00000800000000000000010001031E0D0C06FC
:201DBC00070F0E0001000100010200010201040005000000D0070000C8000000FF00000033
:201DDC00000000000000000049BB0000794E01000101010000000000020000000000000016
:201DFC0000000000FFFFFFFF000000000100000000000000000000000000010000000100C8
:201E1C00001610160E18151C0212032418580302100258000200000000000000FFFFFFFFFB
:201E3C00000000000F010000010000000E01000001000000AC520020401E0000D0520020A7
:201E5C00481E0000C03E0020F84F002074500020FFFFFFFFA44D00208F1F0000004E00206E
:201E7C00911F000088B2240088130000100000000000000100A6AAACA4A9A9A399B19ABC57
:201E9C00B6A8313118191A22311C1E2031313431313117191A21241B1D1F31313331000099
:201EBC00FF00000000000000000100000C0E020B040B0A070800110F000120181A18182CE8
:201EDC0034041E00A81B0000BC570020581F0000FF000100000000000000000025DD02100F
:201EFC0031C8021075DF021002040201010101090200000000BE040A00BE020801020003A4
:201F1C0002000103FFFFFFFFFFFFFFFF35452515020305040004081000040810A456002093
:201F3C00AF120000E803000000006400D84800202C190000C0550020701F00000020050007
:201F5C00004000000000000000000000754F010011450100000002400A29FF000006028607
:201F7C0082000810182000010203040020406000010509060107010000000000100000007B
:201F9C00010000009F5A01006D5B0100CB2D0100A55A0100A91F0100D1F60000655B010017
:081FBC000A0000000000000013
:201FC400C6482DE9FE4F0068DFF89CB2D0F8D4000193884690F88310C5480092012900F02D
:201FE4009280C249BD4F0D687968009EC96801220024022737400A704FF0E04604701E40F7
:2020040008BF002F36D100991A464FF4803014EA020300EA010008BF00281CD10A464FF476
:2020240000301040019A214611EA020308BF00280DD1019B009A4FF48000194000EA02000F
:2020440008BF00280AD02C710EF084FA06E02C7110F000FD02E02C7153F0D0FF0099019B54
:202064002020254608401D4008BF00282ED012F085FE2BE0AF4991F90000002803DD91F97B
:202084000000401E0870AC4991F90000002803DD91F90000401E08700099204608401946D9
:2020A4004FF080730B4008BF00280CD0A34991F90000002803DD91F90000401E0870584658
:2020C400027012F0E5FF2C710EF044FA9A4991F9000068B1002E08BF002F12D091F90000B5
:2020E40000280EDC7D480068D0F84C05804708E0BD487A4F04703868D0F8582421460846FA
:202104009047A14669E17549496801254FF00009C968B64C0D70DFF8DCA280F80090207831
:20212400832804D150462830006813F0AFFB0099019E48462027CDF808900840374008BF28
:20214400002840F0938008464A464FF0E047314610400F4008BF002844D10099DFF898E2C8
:20216400DFF898C24FF4860012EA060700EA010008BF00281CD19E4812EA060700EA0100B7
:2021840008BF002800F08B80009855463146371CA5F8068005F1300383E8030008BFB0F132
:2021A400806F7CD17046078837F0020777D112E0009855463146371CA5F8068005F13003E7
:2021C40083E8030008BFB0F5803F68D170460088B0F5505F63D1A8686746436938684146D3
:2021E40098475CE0534991F90000002803DD91F90000401E087000984FF0807731464C465B
:202204000F4004EA000008BF002803D05846057012F03EFF554605F1300090E800184FF0D9
:20222400806714EA0C0407EA0B0008BF002807D012F02EFF009805F13002314682E8030010
:20224400B5F90600804501D10EF084F96FF001003949E88091F90000002820DD91F9000031
:20226400401E08701BE0C046ED450020644800784F46832818BF2F1C18480068B8300FB13B
:202284008321217000680078554630B16FF001002969E88019B148468847A5F80680019B69
:2022A4000099254E234C4F46022017EA030500EA010008BF00286CD05249B1F846015546A3
:2022C40043F2014181423BD0C91C814238D04D49C98E40F609028A4232D001E014010020F3
:2022E40094F90010002909DD04E0C04628550020EC45002094F90010491E2170B5F90610FD
:20230400884504D043F60401814229D126E005F1300090E8000C4FF4820217EA0B0302EAAB
:202324000A0008BF002802D10EF014F918E053F065FE15E0F5450020F4450020F645002021
:2023440094F90030A878002B00F10100A87003DD94F90000401E20700EF0FCF812F01EF901
:2023640028482A4AA0F8469110686FF00103D0F8B800EB80007810B12348007808B912F061
:2023840087FE96F90000002803DD96F90000401E307094F9000010B9134880F8009096F948
:2023A400000098B1009A019F02214FF0E0401140384008BF002910D096F9000000280CDCDC
:2023C40012480068D0F84C05804706E00F480068D0F858244946484690470C484068C06856
:2023E40080F80090BDE8FE8FEA450020CB57002000000C8C20400020CE350020E44100208E
:20240400D057002088340020CD570020140100202DE9F04FC04C0646A068D0F80001807AA4
:20242400ADF1340DC0000CF077F80028089000F0E58113F065FB0B90A068D0F888240AA94B
:2024440082209047BDF8280004F1080500283FD14FF000084FF6FF74ADF8288047460BE024
:20246400D2F894238DF82470D42004A99047BDF82800401CADF828002A6802F5807210684D
:20248400BDF828108088884205DCD2F8942382200AA990471CE0ADF81440BDF82800ADF874
:2024A4001640FF210822ADF8100006A80DF050F92A68384602F580721168897A8142CFDDEB
:2024C400089BC100401C5F50C0B2C9188C80F3E70020CB4CADF828002068D0F800012A6869
:2024E40000894FF6FF79A04602F591620CE0BDF82800D8F800702268401CADF82800D7F837
:20250400000102F591620089BDF82810884240F365812068D0F80001C07A4FF0000A012777
:20252400554612E02068D0F800012268C0886D1CADB202F591624AE020682268D0F8000110
:202544006D1CADB202F59162C07AA84208DC002FCDD1BAF1000F32D1F07F0028C7D02EE0D7
:202564008DF80250BDF82800ADF8000012686946D02090470028DFD19DF80C0001280AD191
:202584009DF80B0038B92068D0F81C150DF1030088470028ABD1337D9DF80C00002B0CBF6A
:2025A4000522092257468342C6D10DF1030006F1150112F019F90028BED04FF0010A206822
:2025C400D0F800012268C088002502F59162A84264DDADF80250BDF82800ADF8000012682F
:2025E4006946D120904700289CD1BDF80400814598D0ADF810002068D0F8882404A9D42092
:202604009047002840F01B8106A8311D082212F0EBF8002886D030887788ADF81400BAF147
:20262400000FADF8167023D0307B27688DF82400D7F80001877A002001E0401CC0B287421D
:2026440007DC0B9854F0EAF80898002800F0FE80FAE0089901EBC0018A88914503D0BDF8FC
:2026640028309342E9D130690860BDF828708F802068D0F8942404A9D4209047BAF1000FD8
:202684000CD0B07F9DF80610884207D08DF806002068D0F894246946D1209047226802F554
:2026A40080721068C088A8427FF421AF2068D0F8000180884FF00008C346AEE02068D0F8B0
:2026C4001C1506AD2846884738B9311D2846082212F08AF8002800F095803088778823462D
:2026E400ADF81400357BADF8167018682268D0F800018DF8245090F80AE0B832584601E09B
:20270400401CC0B2864509DC0B9854F087F80898002873D070E0C0460C0100200899C500DD
:2027240001EB050CBCF80430994503D0BDF828709F42E5D1301DBAF1000F0CBF5B4633690C
:20274400CCF80030BDF8283049198B80456806AF7D6003683B6011680F783FB10F6D2FB176
:20276400BDF810103A4690472268B8325D4603E022686D1CADB2B832906CC188A94228DD9E
:20278400ADF80250BDF82800ADF80000D2F8D0236946D1209047E82803D0BDF80400814526
:2027A400E6D1BDF810008DF807B0B77FADF8040023688DF80670D3F8942404A9D4209047FD
:2027C4002068D0F894246946D12090472068D0F800018088A84215DD404508D00B9854F0FD
:2027E4001DF8089808B110F035F800202FE00B9854F014F8089808B110F02CF81A2026E05B
:20280400140100202768226808F101001FFA80F8D7F8000102F5807280884045DCDDD2F812
:202824008823ADF81080D42004A9904700283FF445AF0B9853F0F2FF089838B104E00B9806
:2028440053F0ECFF089808B110F004F819200DB0BDE8F08F2DE9F04FAC4CA061AC49A16390
:20286400A6A10978ADF1840D00260DF1360040220170A3A10DF136008DF8766010F0A0FFBE
:202884004FF0010B0BF10100D24D8DF876002878012837D168684FF0FF3112F08CFEA86B23
:2028A40001282FD80DF0F4FA50BB062710F052F85FEA000801D17F1EF8D1D5F838909DF8C4
:2028C400763005EB8907C7F848808BB1A86B342212FB03FA05EB80000365504611F000FA2F
:2028E4006037386060B13868314652460CF030FF09F10100A863686813F010F9474602E069
:20290400D846FBE73746276408F094F808A812F033FD304608A908F07FFFDFF804832065C5
:20292400414613F093F8584608A908F075FFE0644068007812F0E0F858BB11F0C9FAA06BA3
:2029440038B302692AB307278DF818700420ADF81A0006ABADF81C6093E8030090470520D6
:20296400A36B8DF818701A69ADF81A0006ABADF81C6093E80300904706208DF8187006ABEB
:20298400A76BADF81A003A69ADF81C6093E803009047E06C414613F059F807F0D6FC02A8AF
:2029A40012F0EEFD584602A907F0C4FB606402A9304607F0BFFB4FF4FA710322A0640EF0BC
:2029C400EAFD206C814611F00BFC002840F0A580944F3868002800F0A080E86A4FF0FF31B8
:2029E40012F0E9FDD5F82CC005F180084FF0FF3E314632464046436833B9036823B9BEF136
:202A0400FF3F08BF964604E00368BB4200F08280491C521C0830042AEDDBBEF1FF3F79D05C
:202A24004FEACE0000EB0802C2F80490002948F8007058DDDFF8F0C1DFF8F08101290FF23F
:202A4400981E20D1624616755675E869166103681360C260EB6990611A7A0C2012FB0032C1
:202A640082F808B01A7A12FB00325672EA69137A13FB002273465360EA690346107A10FBD8
:202A840003224346D3606246FA603B7A88004FF00C0C00EBC10013FB0C7383F808B08018B7
:202AA400876106613B7A067513FB0C735E723B7A467513FB0C797346C9F804303B7A80F858
:202AC400216013FB0C734746DF600227584B80F820700129436245A7C76117461ABF387A79
:202AE400401C03203872EF61AF61387A401E2862304605F061FEE86A0DE0C04600C046C0DA
:202B04003135342053656E736F7200C034390020A4210020604613F001F804F1100138A0CB
:202B240007F096FC04F1140137A007F091FCA06B002846D04769DFF8FC806FB1009441461C
:202B44001EA80A68898802601EAD818095E803005B463246B847A06B002832D0026952B1BF
:202B640041461EA80B68898803601EAF818097E803009047A06B20B3476917B307208DF8F2
:202B840010000625ADF812500DABADF8146004AA009392E8030002233246ADF83420B847CB
:202BA400A56BBDF83400EF69E08057B1BDF8340004AE401CADF8340096E8030002220DAB2B
:202BC400B847206C216913A206F030FD21B0BDE8F08FC046F82900203C202020202020428A
:202BE40041434B2020202020203E00C03C20202020202048454C502020202020203E00C061
:202C040053746174757300C047656E6572696320436E740057616974696E672E2E2E00C04D
:202C24008D49010050420020605200209153010029A000002A1C0000F0B50446BC480768DF
:202C4400ADF1440D002F00F0B1812078401E122800F2AC81DFE810F06E0157013D012801EC
:202C640020010901F600E800C800B700920067005D004C00AA01340026001C0013007B6C0B
:202C8400002B00F093810020A21C014698478DE1F86B002800F08A81684621460BF0C8FC35
:202CA400F96B81E1386C002800F080816846002101220CF04DFD60788DF80000396C73E1FF
:202CC400F86A002800F07281684600210E220CF03FFDA11C684612F0ABF9A67BA1890022CE
:202CE400ADF80A1006B101228DF80C20F96A5CE1B86B002800F05A816846002102220CF0E1
:202D040027FDA6788DF8016060788DF80000B96B4AE1786B002800F04981684621460BF006
:202D240087FC796B40E1386B08B36846002114220CF00EFDA6788DF80160A5680195A389CA
:202D4400ADF8083060788DF80000A27B8DF80A20E17B8DF80B10267C8DF80C6094F91150EC
:202D64008DF80D5063690493396B684688476068002800F01B8111F047FD17E1B86A0028E6
:202D840000F014816846002124220CF0E1FC6078A11C8DF800000DF1020012F049F904F169
:202DA4000C0103A812F044F9267EE08A04F119018DF818600B22ADF816000DF119000AF005
:202DC4000BFFB96AF0E0786A002800F0EF806846002102220CF0BCFCA6788DF80160607806
:202DE4008DF80000796ADFE0386A002800F0DE806846002112220CF0ABFC66886078257986
:202E04006379ADF80260E11D8DF800000B228DF80450A6798DF805300DF107008DF8066079
:202E24000AF0DAFE396ABFE0F869002800F0BE806846002101220CF08BFC60788DF80000F1
:202E4400F969B1E0B86910B120460EF0C9FDA07820B9A069002800F0A98003E0A069002820
:202E640000F0A4800FF0F6FCA0E07869002800F09D806846002113220CF06AFC6D46A01CDE
:202E84000168406829600B22686004F10A0102A80AF0A2FE796987E03869002800F0868053
:202EA400204609F0AFFF81E0F86800287ED0684600210E220CF04CFC6078A11C8DF800006D
:202EC4000DF1020012F0B4F8A089ADF80C00F9686AE0B868002869D06846002114220CF039
:202EE40037FCA01C01686D46296040686860A07A0B2204F10B018DF808000DF109000AF0F4
:202F04006BFEB96850E0786800284FD06846002110220CF01DFC60786688211D8DF800002D
:202F24000B22ADF8026001A80AF056FE79683BE0D44200203868C8B36846002119220CF00F
:202F440007FCA01C01686D46296040686860A67A0622002102A80CF0FBFB700824BF012018
:202F64008DF80800B00824BF01208DF80900F00824BF01208DF80A00300924BF01208DF829
:202F84000B00F00924BF01208DF80C0036F07F001CBF01208DF80D0004F10B010B220DF135
:202FA4000E000AF019FE39686846884711B0F0BD2DE9FE4FBD4C00902068DFF8F892DFF8A6
:202FC400F88201914030D0F89410934691F88320B7499A46012A00F0B5806268D2680123A8
:202FE400137000260E7001684D460F682E7017B9D0F80C0580474546DFF80893A86E4FF0D3
:20300400E24706EA0B0117EA0A0708BF002974D1B5F8D6100822374602EA0B0217EA0A07FB
:2030240008BF002A0CD118B14A46508B401C5083B54890F900108046491E01701D2074E096
:20304400B14A92F9003042F201478F429046A3F10103137002D03A1D8A4216D118B14A4643
:20306400508B401C5083A94800680199826C0098904750B14A4602F116010088B5F8D6301C
:20308400098842F6014C84451ED1B5F86600B0F5105F12D0AF6E42F60601814206D0002F31
:2030A400CCD04A46508B401C5083C7E7002F3ED04A46508B401C508339E09448A96F0C3008
:2030C400016010F063FB32E0491C3F1D88B29F42D08214BFE1201C2009F09EF898F90000BD
:2030E40028B198F90000002800F30681F5E02068D0F8582431463046F9E0834B276893F970
:203104000010491E197007F1400118B14A46508B401C5083086800684068007898468009B0
:2031240002D211F011F902E0E92009F075F898F90000002800F0D68098F90000002800F3B0
:20314400DB80CAE06268D2680123137000260E7001680F6817B9D0F80C0580476B480068AC
:203164000199826C009890476949DFF8A8E10B88022516EA0A0705EA0B0108BF002934D187
:2031840031464FF0E24701EA0B0117EA0A0708BF00291BD14FF48601202701EA0B0117EA5E
:2031A4000A0708BF00290AD1002876D0008840F60301814271D01D2009F02EF86DE00199B8
:2031C400009853465A46FEF7FBFE66E04E4991F900007746401E08703878862802D011F001
:2031E400B3F85AE00FF036FC57E0474D294691F90020DFF824C14F46521E0A7043F2084118
:2032040099423E7008D0B8F87E708A1C9A4203D0B94218BFBA4212D178B1008843F60301B7
:2032240081420AD007F046FE95F90000002859D095F9000000285FDC4FE0B8F87E70B8F865
:20324400F61043F60400884238D0B84236D0984234D0B8F84E2040F6090090422ED0B1F5A4
:20326400505F05D0080B16D31D2008F0D5FF12E02A480068774600F5C070CCF8140038788B
:20328400862802D010F082FA05E00199009853465A460EF03BFE11F0FBFE1B4991F90000BF
:2032A40000B391F90000002826DC16E014010020EC450020EB450020883400201848007823
:2032C400022816D0032814D007F0F4FD95F9000040B195F9000000280EDC2068D0F84C0523
:2032E400804709E02068D0F8582430460146904702E0304608F090FF6068C0680670BDE8D0
:20330400FE8FC04640550020F44500202840002022350020D05700202040002028010021F8
:203324009D4400202DE9F04FCB4C60692589216AA689806DADF1240D2A46891908310AF0EA
:203344004BFC7619B0B26669B16D4919C34DB1652968D1F8D41091F88370216A0B18083319
:203364001B780DF11E021370DFF8F882022F00F1010080B208D141180A7A66694346591CEC
:203384000A70216A401C80B20A180832126802A9001D0A6080B2A081042102A811F034FB3C
:2033A4000290034612F0A6F8F063184611F0A0FCA6F84000EA2010F067F9A9484FF0020BBB
:2033C400022F80F800B00BD168684069007838B14146087810B94878FF2801D00420E070DE
:2033E4006769E078397C084338749DF91E0012F0ADFB87F8460007F17406BE6539899DF9E5
:203404001E007B6887F84800B7F85C004FF00008401AC01801467860B88987F84780820A2A
:2034240018D2020926D310F0070F07D000F00700032812BF081C7868401C17E07968C87842
:2034440000F00702401000F0380000EB42004018001D0BE02868D0F80813384688476769DA
:20346400786E10B1B7F8680090B178687861B889000918D297F8600020B32868D0F80C1323
:20348400384688476769F86CE0B1B7F85000C8B92868D0F8541204F11400884740466061B9
:2034A4000DF058F8D4E02868D0F8B41438468847787067697E78B86978651EB1F22010F00D
:2034C400E3F867692E68D6F8B8100878002800F0B780BA89DFF890A1089202F00702022A36
:2034E40068D16378002B65D17B78002B62D161698DF81F800DF11600283112F00FF86169D4
:2035040028314F6803A847600E8906810A680260574607F110022B681088401C1080D3F8CA
:20352400B8006169436A486E0DF11F020421984704F1140938B92868006C006818B19DF8BA
:203544001F1080F86810666996F83000022813D12868D9F80030D0F8D4705A4607F1200157
:2035640003F1280011F050F830B907F116010DF1160011F0D3FF66693C480078862809D1B0
:20358400BAF81200401CAAF81200B08900F010000EF0FCF92968B8310A68107830B1976CCF
:2035A40027B16069394688472968B831D1F89C11484648E02E4A1378002B3AD0089AC2F3E3
:2035C4000132022A35D1787800287FF469AF69689DF81E00896853460870E6786769988A09
:2035E400002E07F1280207F11C0C00F1010098820CBF414608212E68D6F8B8000378FBB18D
:203604001C4B404618600091CDF804C0D6F8D400117AD6F87863C38C0D20B04710B90DF018
:203624000BFF01E011F0AAFB2E68D6F8B8106769087828B1896C19B1384688472E6867692E
:20364400D6F85812384688474046606111F0CEFB09B0BDE8F08FC04618550020140100202B
:20366400CB5700201C4000209C440020D0570020CD570020A8450020C5482DE9F04F3CC88A
:20368400ADF1240D69463CC11DC881E81D00C14CC14D04F11007009405F1540001978146DC
:2036A400029005F1340003958046049005F17C008346059005F1180006900BF08DFDB74E5A
:2036C400824600213022B460B54CF76004F58A7007460CF03DF8BAF10E0F16BFBAF11A0F5D
:2036E40030222822384649460AF076FA94F8201194F82A6101273846182260F3C71167F37A
:20370400C71684F8201104F1340084F82A6129460AF062FA94F840001822294667F3C71080
:2037240084F8400004F14C000AF056FA94F8580004F1F4052022414667F3C71084F858009E
:2037440028460AF049FA94F800110020804668F3030184F8001194F8001167F3C71184F800
:20376400001194F8021167F3C30184F80211102684F80361A4F8040194F8070120F00F007E
:2037840040F0040084F8070194F807013022594667F3C71084F8070104F5A2700AF01CFA18
:2037A40094F8500167F3C71084F8500194F852017C4B7E4967F3C30084F8520194F85201F2
:2037C40067F3C71084F8520194F8530168F3000084F8530194F8530167F3410084F853018F
:2037E40094F8530167F3C30084F8530194F8530168F3041084F8530194F8530167F345104A
:2038040084F8530194F8530167F3861084F8530194F8530168F3C71084F853011868D0F80A
:203824000001C089A4F85C0194F85E0166F3050084F85E0194F85F016FF0030220F0F800C5
:2038440040F0580084F85F01574B84F8622194F8630104F17C0B04261C2266F3030084F8B3
:2038640063015846C4F864310AF0B6F9C4F8805094F888004D4920F00F0040F0030084F844
:20388400880094F8880067F3C71084F8880094F88900032565F3030084F8890094F88C009E
:2038A40067F3000084F88C0094F88C0067F3C30084F88C0094F88C0067F3041084F88C00D7
:2038C4004FF4207AA4F890A06FF0520984F88D9094F8920065F3030084F8920094F8930042
:2038E4004FF4FA531C2266F3030084F8930004F19800C4F894300AF06FF9C4F89CB094F888
:20390400A40020F00F0040F0020084F8A40094F8A40067F3C71084F8A40094F8A50065F384
:20392400030084F8A50094F8A80067F3000084F8A80094F8A80067F3C30084F8A80094F8AC
:20394400A80067F3041084F8A800A4F8ACA084F8A99094F8AE0065F3030084F8AE0094F841
:20396400AE0068F3071084F8AE0094F8AF004FF4FA5366F3030084F8AF000849C4F8B030BA
:203984000798086107F03EF909B0BDE8F08FC046B01C00003C3F00207C130000D0410020E3
:2039A400883400201401002000C42264941300002DE9F043071CADF1240D00F06681FE6B86
:2039C400002E00F06281B7F84030002B00F05D81307817F130054FF0000603D097F83810F6
:2039E400052902D0002E00F05081A94CA11CDFF8A4920D78401E00F0B680801E00F09C8062
:203A0400DFF89482C01E6BD0001F26D0801F09D0801E40F03A81012B40F0378113258DF8B5
:203A24001C5082E0012B40F0308111F005FF032804D011F001FF042840F0278104204B46E9
:203A4400112505268DF8210003F128078DF8205003228DF8226008AB69E0002D00F0158168
:203A64006846314604220BF073FEB7F840002278032840F00A81F86B401C11F03DFF4B468F
:203A840003F188052988012A01F10101298009D01989421A022A05DBB3F88A108918491EF8
:203AA400A3F88A1026704446A778188140080CD2012F00F0EA800120A070A06C10F010FEFA
:203AC400A06C64210FF057FCDFE0002F00F0DD80A06CA67010F004FEA06C0FF0B1F9D4E037
:203AE400012B40F0D28011F0A7FE032804D011F0A3FE042840F0C98044460725A178A06C4D
:203B04008DF81C5041B90121A17010F0E9FDA06C64210FF030FC05E0A67010F0E1FDA06CFC
:203B24000FF08EF9A0788DF81D00022207AB2846394605F085FAA8E0012B40F0A68011F0FF
:203B44007BFE032804D011F077FE042840F09D804B46B3F86800042501228DF81C50401CBD
:203B6400A3F86800E2E7684631460C220BF0F0FDB7F840000B2861D1FC6B14F8010B89F8E6
:203B84003400204611F0B8FEA41C0346204611F09CFB0546201D11F098FB8046387A4C46A3
:203BA40089F83000022806D0396804F1280001607A68426001E03888208503F00100190951
:203BC40028BF40F00800590928BF40F01000190B28BF40F40060E086834218BF0226B5F5C6
:203BE4007A7FADF8020016D32C48A84213D3A56312F0F8F8814612F0F5F800EB092912F025
:203C0400F1F800EB0920B0FBF5F16943401A0A300FF0D2FC00E00226A06BB8F57A7F0190BB
:203C240008D342F21070404504D3C4F83C8011F0C1FB00E00226E06B029001E04C460126E1
:203C440002258DF8016068468DF800500EF084FA03AE0DF10D009DF80110357011F046FE08
:203C6400BDF8021011F042FE01990FF050FA02990FF04DFA39460D222846334605F0E0F911
:203C8400B4F86E00401CA4F86E0009B0BDE8F0839C3B0020943C002034390020407E050098
:203CA4002DE9F84F07469F4D9F4C28684030D0F89410267891F8838026B1D0F80C05804772
:203CC4002868403001680E6816B9D0F80C058047A3460120954C8BF80000012F677040F2EB
:203CE400AF80DFF84C92DFF84CA2BF1E54D07F1E3CD07F1E00F0C0807F1E21D07F1E40F045
:203D0400B6802968096C096891F86D20628191F86E70002F06BFE070071CE770686851466D
:203D240040680978007811FB00F0784381004846C16690F8701021F00F0141F0030156E05D
:203D4400B8F1010F40F0AA802968D1F8D420096C09680020C98A6071C90934BF92F8251050
:203D640092F84E10A17011F0F9FC97E00026B8F1010F66710DD12968D1F8D40090F853003C
:203D8400D1F83C148847C07B022802D1304609F07FFA0EF0BFFE81E067482F680668D7F878
:203DA400D40090F88300012824D09AF800008700F06B8047DAF804103C23401AB0FBF7F196
:203DC400B1FBF3F25A43891A227812FB03F0401A3C301FFA80FAF06B804707FB0A0148465E
:203DE400C16690F8701021F00F0141F0020180F8701053E09AF800008700F06B8047DAF803
:203E040004103C23401AB0FBF7F1B1FBF3F25A43891A227812FB03F0401A3C301FFA80FA7A
:203E2400F06B804707FB0A014846C0F8FC1090F8001121F00F0141F0020180F800112DE079
:203E440000202E686071306C0068D6F8D410C08AC00934BF91F8250091F84E00A070B7B916
:203E6400CF78A7B10228C4BF0220A0700FE02868D0F84C05804711E02868006C006890F884
:203E84006910617190F86A00A0700027A77100F00BFC2868006C0068002841D02748007817
:203EA40098B92868403001680F682FB9D0F80C0580472868006C07687A686178107800F0A7
:203EC400200020719078E07100E06178032903D0022918BF062923D111F012FE05466078C3
:203EE400022815D01648077817B916490F787FB10221B8F1010F8BF8001004D10078832885
:203F040001D10DF0C5FA284652F088FCBDE8F88F83208BF80000284652F080FC0BF0DCFA8C
:203F2400BDE8F88F14010020D05700209C4400208834002024440020284000206A5100200E
:203F4400CB570020CD5700202DE9F04F0668ADF11C0D0F46141C04904068DDF840A0059042
:203F6400184608BF6FF0090800F02681002814BF99460DF1040911F0C3FD834630794008B1
:203F840038BF6FF00E0804D396F8280118B16FF0080858460EE1C6F82C71F079C6F830416B
:203FA4000123C6F8384100F0EF00F071002586F82831F079C6F8405100F0BF00F071059801
:203FC400756311F08DFC584652F028FC11F0E8F988BBF06B400906D3B06B8446336C0498B5
:203FE40010212A46E047D6F8402105982146D2190FF0C6F8D6F84011241A0144C6F8401169
:20400400F1D1059811F062FB0028FAD0059811F05BFCF06B800906D3B06B0446336C04989B
:2040240020212A46A047D6F8400186F82851A846C9F80000C0E0B479A84674B9BAF1FF3F5E
:204044000BD0BAF1000F08D006F5CA745146204611F03EFD204611F03DFD11F051FD044643
:204064000FE0D6F83801002800F09680204652F0D5FB50464FF0FF3111F09DFA11F040FDC5
:204084000446D6F83801002800F08680F07941097CD2C00977D206F5A27A4146504611F065
:2040A4008AFA204652F0BAFB06F5887B584602A90FF04EFA044611F023FD0390D6F8380188
:2040C400A04238BF041CD6F8401102982246C91909F082FD584621460EF018FED6F8400140
:2040E400D6F838110019091BC6F840010398C6F8381152F093FB002C03DDD6F838010028BC
:20410400D4D111F0FDFC0446D6F8400128B1059811F0E6FB049808F01DFDB07902282CD04E
:2041240001289ED1D6F83801002835D186F82851204652F073FB307A40F008003072C10854
:2041440017D2444613E0307A00F0F700307240F0040030720094D6F8D8C1D6F84021336C23
:2041640004983946E047307A00F0FB0030720009E9D211F0C5FC04460EE0D6F8400108B934
:204184006FF00F0808E06FF00C0805E0F0796FF00D0800F0EF00F071B079012805D086F8A3
:2041A400285106F5CA7011F097FCD6F84001C9F80000204652F032FB404607B0BDE8F08FB3
:2041C400F0B500217422ADF17C0D68460BF0C0FAF2201DA911F06CFC954DBDF874001DA9E3
:2041E400A5F87C00F32011F063FCBDF874000DF10101A5F87E00E22011F058FCE88EADF879
:204204000A00410806D305F12001096803A80160BDF80A00810805D3A91D098804A8018036
:20422400BDF80A00C10807D305F1240109680DF112000160BDF80A00010908D30DF1160063
:2042440005F16001302209F0C7FCBDF80A00410905D3E86BAF6B1390BDF80A001297020B8F
:204264004FEAE02106D3A91C09881CA80180BDF80A00C11247108610C310021140082CBFF4
:204284000F240B24780824BFA41CA4B2700824BF241DA4B2580824BF3034A4B2500824BF15
:2042A4000834A4B2480824BFA41CA4B220460AF033F9071C00F0BA8005260DF1010100F823
:2042C400016B0A68026049684160BDF80A10083011F00CFBBDF80A10844648080BD3BDF8BD
:2042E4000C10604611F002FBBDF80E1011F0FEFABDF80A108446880807D3BDF810106046B0
:2043040011F0F4FABDF80A108446C8080BD3BDF81210604611F0EAFABDF8141011F0E6FA47
:20432400BDF80A108446080B07D3BDF87010604611F0DCFA8446BDF80A103E4AD3880809B4
:2043440061D3BDF81610604611F0D0FABDF8181011F0CCFABDF81A1011F0C8FABDF81C10B2
:2043640011F0C4FABDF81E1011F0C0FABDF8201011F0BCFABDF8221011F0B8FABDF82410BD
:2043840011F0B4FABDF8261011F0B0FABDF8281011F0ACFABDF82A1011F0A8FABDF82C10BD
:2043A40011F0A4FABDF82E1011F0A0FABDF8301011F09CFABDF8321011F098FABDF83410BD
:2043C40011F094FA194611F091FA117811F08EFABDF83A1011F08AFABDF83C1011F086FA47
:2043E400BDF83E1011F082FABDF8401011F07EFABDF8421011F07AFABDF8441011F076FAC5
:20440400BDF80A108446480906D3129960460EF07EFE13990EF07BFE05F1280122463046EA
:204424003B4604F00DFE38460EF014FA1FB0F0BD943C0020343900202DE9FE4F8B460546F6
:2044440011F05EFB904C012D029000F0E08020460068D0F838038047002800F0D3800CF013
:20446400BFFF002800F0CE8021464968DFF830A28969DAF808000F783C30002F40F0C280F3
:20448400824C0068257880476168E268AF00401AB0FBF7F6A06890460027B94611464645E4
:2044A4004B4673EB090301DA884206D839464A4686428A4140DA024600E039461046EB17BF
:2044C4002A46801BB94110F04FFE0646754800680F46418B00694018643080464FF0000199
:2044E400B6EB080677EB09077042B94124DA11F097F902464B46394630460BF0A7FD0F469A
:2045040006464FF000017042B94115DA10F0A5FC0546206911F072F810B1206911F0DCFA6F
:20452400284610F0B1FE2069314611F0D1FA206911F0D0FA002000E0012055490870884635
:2045440098F8000000285DD14F480068D0F894000078002739460CF02DF900B10127381CA9
:204564004DD149480068D0F8D400474E90F88370706880690078002841D1DAF80800454C96
:20458400436C606902216A4698479DF80000002835D0BBF1010F4FF0010921D03E4EDAF8D7
:2045A4000820606996F9001011F1020F06D0926B96F900109047DAF808206069374D95F936
:2045C400001011F1020F06D0926B95F900109047DAF8082060696FF001012970317002E02C
:2045E400DAF80820606928494968896981F80090D1698847012F04BF00208AF80100002018
:2046040088F80000029852F009F9BDE8FE8F2068D0F89400007801210CF0CCF8029852F0EC
:20462400FDF8606880690078012811D110F08CF960B1606880690178012909D10021BBF1BC
:20464400010F017004D010F047FD01E009F002F810F07AF9B0B960680C30C1680978022934
:2046640009D101680F7837B12068D0F84C058047241D20680C3001680F781FB9C1680878A6
:204684000228FCD0BDE8FE8F1401002024440020CE570020D0410020E8450020E945002020
:2046A40020400020E44100202DE9F84F914F0026914C38688DF80060D0F8D400A57890F82B
:2046C40083B011F093F94FF0010A4FF6FF710AFA05F28918014038686181D0F8B800884D63
:2046E400037843B3826B32B342F21A0069469047824863790278C2B1BBB99DF80020A2B190
:204704003868D0F8B800C06D78B180472978031C0AD07868406862890078083010FB01F09F
:20472400B3FBF0F15018608163799DF80010608903FB010060816078002840F0BF8071482B
:204744003B68016803F1D4000268DFF8BC9192F88320012A33D0D0F888018047A1782A78C5
:20476400002873D04C463B68A4F8E260D3F8D43093F8315084F8E45093F8243084F8E530BC
:2047840094F8E63043F0200384F8E63094F8E6305043800023F01F0343F0020384F8E630D7
:2047A40094F8E630C4F8F00066F3871384F8E63084F8E76084F8E81084F8E96080E0C86B93
:2047C400804704460BF08AFD80462878810008FB01434C4604F1A40210784FF0020C6CF3B3
:2047E400030010707868C4F8A03040680078083080B201FB003194F88830604660F30303CC
:2048040084F888303868C4F88410D0F8282404F18D01F420904794F8000166F3030084F889
:2048240000013868D430016891F8831001290AD1D0F88801804730B16868D4F88410884252
:2048440038BF534600D3334628781BB91C2007F0E3FC35E094F8A41066F3030184F8A41010
:204864003546C4F8A0507D68042310FB03F10AB2696894F888300978083189B24A4323F09C
:204884000F0141F0030184F88810C4F8842094F88C1000FB08F041F0080184F88C1094F862
:2048A4008C10A4F89A606AF3041184F88C104FF4FA51C4F894100FF03BF901E000F0AAFF9D
:2048C400BBF1020F14D13868006C006880B10F481049007848B90E48007830B983220846BA
:2048E40002700AF0F9FDBDE8F88F022208460270BDE8F88F140100209C4400206A51002006
:20490400244400202840002088340020CB570020CD570020D05700202DE9F04F944DA86894
:20492400416EADF12C0D02A88847A846914C924DA178606902290FD170B1002008F006F8A6
:20494400D8F80800416860698847281D0068806901210170002060614FF0010A002684F844
:2049640002A00028059655D10AF036FC00283FD00AF032FC01283BD00AF02EFC052837D091
:204984000AF02AFC0C2833D00AF026FC0D282FD00AF022FC0B282BD00AF01EFC0E2827D0E5
:2049A4000AF01AFC172823D00AF016FC19281FD00AF012FC1A281BD00AF00EFC1B2817D012
:2049C4000AF00AFC1C2813D00AF006FC14280FD00AF002FC15280BD00AF0FEFB252807D06E
:2049E4000AF0FAFB262803D02868D0F84C058047D8F8080000F1200130B92868D0F84C05B7
:204A04008047D8F808102031096804F1200088475148E0630FF09EFD2968D1F8D40090F811
:204A24005300D1F83C14884707462868D0F8D40090F942000CF03EF9B0F1FF3F05D0010803
:204A440028BF4FF6FF704549088038897968DFF810913B6832464FF47A7BA9F81661401EBE
:204A6400C9F81821414303EB5100B0FBFBF0A9F8340199F821016AF3030089F8210199F8C2
:204A840020016AF3C71089F820012868D0F8C4038047F8B9B88933496F68BBFBF0F0C0B2E8
:204AA40008707968BBFBF0F008702868D0F8D40090F85300022806D00EF0CCFD032809D1B8
:204AC40005215C2001E00221A820274A11706968096808706769D8F80860A168DFF88CB094
:204AE4003FB3002007F032FF2A68D8F808106069D2F8D420637892F853200F4693420AD09B
:204B0400496888476868806980F800A0D8F80800A16806680EE0022100228DE806003F6D97
:204B240009F58A76002302AA3146B847C8F80C6008E0366809F58A7904F1200358464A4635
:204B4400B04760612868D0F8D40090F853000BB06070BDE8F08FC04654F10080B63500200D
:204B640088340020244400209C440020D04A002020400020D0410020140100202DE9FE4F4A
:204B84008A46934680460021022268460AF0E0FD844F38798DF8008028B107F1700010F00E
:204BA40045FE00203871B7F95A405FEA080007F170054FF0000600F0A2800D3800F0A2802F
:204BC40072386AD07B38012840F29C80801E00F09480401E00F08A80401E00F08380401E1A
:204BE40079D0B8F1300FC0F28D80B8F13A0F07DBB8F1600F40F38680B8F1670F80F2828009
:204C04000321601E90FBF1F094FBF1F3201A401EC0B24FEA600903FB01F0241A012C10D029
:204C2400022C1ED115F8094068463146102224F00F0405F8094004F0CBFB044305F80940F2
:204C44000FE015F809003146102200F00F00044605F80900684604F0BBFB44EA001005F8C0
:204C640009004C4650482A5D3969005D02EA0009386C4A4503D138A204F0D8FC04E037A21C
:204C840004F0D4FC05F8049097F85A00012132220B460FF004FF044621E00321601E002CF0
:204CA40090FBF1F0A4EB0000A0F10100C0B24FEA600227DD94FBF1F04843201A022805D01E
:204CC400012813D1A85C40F0F00002E0A85C40F00F00A8540AE028460FF01CFF0124A7F848
:204CE4005A400FE00124A7F85A4008E00121E0B232220B460FF0C4FECDE7E0B2C6E7284666
:204D040010F094FD112715F8010B01A902220DF01FFBDAF800001EA1098880190180DAF8BA
:204D24000000731CD9B2401801A90FF082FBF31C7F1EDEB2E7D1B8F1000F0BD0DAF8080076
:204D440014A10F2208F048FF641CABF802400120ABF80000BDE8FE8F00C046C0496E76617B
:204D64006C696420696E7075742E204F6E6C7920757064617465642077697468207375705B
:204D8400706F72746564206368616E6E656C73002000C04620202020204348414E204D4187
:204DA400534B00C034390020301C00002DE9F04F834C4FF0FF0A00254FF0100BADF1240DFE
:204DC40084F834A004F1300984F832A065E00C2015FB0096E068690306AA042310F0E8FD7C
:204DE40006F116079DF818009DF8193038700698F375C0F38541032903D09621B1EB106F18
:204E040038D1C0F30140F8703878FF2830D0FE282ED07E282CD007A80EF04EF8E0686903E5
:204E24004FF088524FF4005310F0C2FD65484FF4005650F8041D361FB6B2B1F1FF3F06F1BD
:204E4400885201D1032EF4D810684FF00108414600F0FF03FF2B18BF8846491C000A052900
:204E6400F6DB1060079810F06BF84644FE8001E0A7F806B038787C280BD0782809D070286D
:204E840004D0FE2808BF84F8325004E084F8345001E084F833506D1CEDB2E078A84296DCAF
:204EA40094F83310FF2920D194F83420FF2A15D194F832200025FF2A18D0521C92FBF0F127
:204EC4004143521A91B28A0002EBC1024A44978B002F08BF84F832A003D00A4684F833207B
:204EE4000225214691F8331000E00125FF2910D1002684F83360304607F00EF86178084379
:204F040060707E2130460EF0F3FC2146E07891F8331094F83220FF2A14D1491C91FBF0F271
:204F24004243891AC8B284F8320006F0F5FF61780843607094F83200FE210EF0D9FC204629
:204F440090F8331084F8311094F8332010462F46810001EBC0014944898BA570781EE1863A
:204F640002D0401E23D028E0172926D91046C91F01AA89B208F00EFC9DF80F00C00816D348
:204F840000200090BDF81220E18E94F833000323891AC91F01AA89B205F0DAFA68B9BDF812
:204FA400101051B19DF814000CF0A6FE05E0012084F83500002003F0ABFF09B0BDE8F08F31
:204FC40088400020002000112DE9F04F7A4CA068416EADF12C0D02A88847DFF8E0A1DFF863
:204FE400E0B19AF9000038B1594691F90000002818BF002040F0DC8010F082FDDFF8C49121
:205004000A9099F80000800806D27D20002107F01FFA0025079001E00025079502958DF8B9
:205024000C50059503208DF81800DFF89C81C8F87C51A8F8765198F88F7198F88011634B6F
:20504400012665F3030166F3000788F8801198F8801188F88F7166F3C71188F8801198F8E5
:205064008F1166F3410188F88F1198F88F1165F3820188F88F1198F88F1165F3C30188F8DA
:205084008F1198F88F1165F3041188F88F1198F88F1160F3461188F88F111868D0F8282421
:2050A40008F5C871F4209047494807789FB94846A768007880090FD3F86B8047C8F87C017C
:2050C40098F8801121F00F0141F0020188F880118DF80C600290A7683F4A3E484FF0807372
:2050E4008DE80C003F6D3D4B006808F5BA79494602AAB8470028A08006D5022041F28831F4
:205104000BF0BCFB2E464FE0594691F90000344F401C087097F90000401C38709AF900008F
:20512400C4F80C902946401C8AF8000002200BF0A5FB264F26483968057001F1AC021068F8
:20514400077807B18025B4F8540017684FF67F7303401D432843A4F8540098F88C213878CE
:2051640060F3C71288F88C21D1F8D400C28CA4F86220428D00F14403A4F860201A6804F12F
:2051840057052A6058686860D1F8D400C18CA8F8A611418D00F14407A8F8A4113A6808F55E
:2051A400CE742260786860600A9851F037FB30460BB0BDE8F08FC04620400020F64500203C
:2051C400F5450020CC5700208834002014010020ED450020E441002020004300C51F00003F
:2051E400F44500202DE9F04F754C744FE06807F5A271ADF12C0D814207D1724890F900006D
:20520400002818BF002040F0D68010F079FC0025DFF8D8810A90D8F80000A7F84651D0F8B3
:20522400B8000078002807BF4FF4860A4FF0200B70A090E8000CA068416E02A88847032028
:20524400614E8DF8180030780595800807D27D20294607F0FDF88DF81850079000E0079563
:20526400C7F84C51594B97F85001594AC7F8643165F3030087F85001E3685069B44607F132
:20528400340607F134019E420DD0B7F84420B0F848309A4207D1B7F84220B0F846309A42F4
:2052A40008BF514914D0504EFD864A4BBE6301221A7097F8412022F00F0242F0020287F859
:2052C4004120FD6397F8402065F3030287F84020DFF8049199F800700E4617BBD8F800106B
:2052E400D1F8B8100F781FB99CF80010890918D33A490F7837F07F0713D139490F7887B9B5
:20530400A068C06B8047B060307B012720F00F0040F002003073B0688DF80C702C4B029096
:205324005869A1680F6D2F4B02AA8DE8000C3146B8470028A08009D50A9851F06FFA022072
:2053440041F288310BF09AFA284634E01D49284F91F90000244E401C087097F90000E660C9
:205364002946401C387002200BF088FAD8F80000AC3001680F7889F8005007B18025B4F8A1
:205384005410806A4FF67F720A4015432943A4F85410C18CA4F86210418D00F14407A4F876
:2053A4006010396804F157063160786870600A9851F034FA01200BB0BDE8F08F8834002058
:2053C40020400020F5450020CC57002000C42264D0410020EC450020ED450020D057002047
:2053E4009E570020C51F0000CC35002014010020F445002000004F8C200000012DE9FE4FA2
:205404009B4615468946824610F07AFB7B49019008680CAF504508BF48687B4C6FF0010885
:2054240028B1B83010F0EAF8002840F0D6800FF037F8061C00F0DB8004F5CE7010F04CFBFE
:205444000023B4F9B400C6F80C90401C86F832306FF31F30A4F8B400C6F808B0B4F8B40057
:2054640030866748C6F810A097E80C0020210027B8461940104006F1180383E803004246B3
:2054840086F8332006F1200383E88001E8683064287C86F8440028687063287986F838002D
:2054A400A868F0636869B064A869F064287F86F85000687F86F851002F7C27B9EF6817B166
:2054C400012086F844002F795FB999F80C0000F00F00022805D1012086F83800D9F80800D9
:2054E4007063484608274568002D18BF002F70D100886FF30900B0F5305F18BF022506D1FB
:2055040096F83300082540F0100086F8330006F1180090E80C00414606F1180745EA020047
:20552400194387E80300D4F8D800824507D194F8DC00410824BF00F0FE0084F8DC00314803
:205544000768002F39D004F1A0000090D4F8A810D4F8AC2004F198052B463046B84710F1E6
:20556400030F10D0B6F93010B4F9B420914207D0B4F9B41001F6FF716FF31F31A4F8B41031
:2055840010F1020F1BD010F1030F18D096F83300B6F9308040F0800086F8330000278AF8E5
:2055A400FC702868864205D0F068007B00F00F0002281CD10AF026FE19E06FF00200B4F940
:2055C400B410804601F6FF716FF31F31A4F8B41005E07F1E2846FFB285E76FF0020894F8C2
:2055E400DC0040F0040084F8DC00C4F8D8A0019851F014F94046BDE8FE8FC04638300020DE
:20560400FFEFFF9F2C460020802F00202DE9F0470646F08917468946ADF1280DC01D80B279
:2056240005460AF0B9FD7A4CFF280BD1284603F06FFC854204DD641C207800B90520E3E075
:20564400012000E000206178D9B917B1022F18D1B8B1307A8DF80C00F788ADF80A70B58859
:20566400ADF8085000230093E18E94F8330001AA032304F06DFF9DF814003074BDF8107092
:20568400B78194F83310E58EE06806AA04238846490310F08DF9069800F0FF0100F0FF0050
:2056A4007E2806D140467C210EF022F9069901F0FF017C2940F0A580F08942F20102C11D15
:2056C4008FB2E9198A4240F39A80F188327AC1F301238DF81D10B18843EA82038DF81C30FF
:2056E4008A1006468DF81E200423C0F3851201F0030142EA81128DF81F2010FB03F1F21D06
:2057040001F0FC01731990B28DF820101FFA83FA0D282BDB48463146002210F0A5F8024637
:20572400052107A810F0A0F89DF82010334600F03F064A4641EAA011B0008DF8201040F084
:20574400020096268DF8210029468DF8226040460CF072FC0646514607AA07234046667061
:205764000CF06AFC304360704DD135E004F124004946324608F030FA07A90A68301900F1AF
:205784002409484609790260731D0171002204F1240099B210F068F89DF82010962300F010
:2057A4003F068DF8223041EAA011B0008DF820103B4640F0020007AE49468DF82100326851
:2057C400B0790A60B288887140468A8004F1240229460CF031FC6070E18EED194FEA8806B0
:2057E400AAB2C919E18606EBC8010919A1F84C2048B1404651460CF07FFA607803E00520B4
:2058040000E001206070C0B20AB0BDE8F087C04688400020F8B5794F7E4C3A6878490C3C93
:20582400D4321068A37890F88300012840F0BF8001F1880318780025012665F303001870EC
:2058440091F80001C1F8845065F3030091F88C3081F8000166F3C30381F88C304FF4FA532F
:2058640091F88C00C1F8943066F3041081F88C00D2F85423F4208D319047608908B96681A5
:20588400304679685F4E49683B68097808314843317848430090D3F8B810087800282FD069
:2058A4000A6C3AB304F108016846904706466179A2785748652E6CD0002E63D138684030DE
:2058C40001680A68117D052914D1D0F8941091F829607EB992F82C1004290BD1806FC669A6
:2058E400116B906D2B46B04720B93868D0F870121A204CE03868D0F8B800007800283DD1CC
:20590400607805283AD10FF0C3FB396840310868009E006810B9D1F80C0580473A480078CA
:2059240048BB6078052826D13868006C0068C08AC00820D251F0C0FA04460FF071FF3349BC
:205944000968B6FBF0F0641A24180FF069FF4FF47A776426B7FBF0F080B27043A0420AD926
:205964000FF05EFFB7FBF0F080B246430FF058FF361B00FB06F500984019009000980EF0C6
:20598400D7F8F8BD05703868D0F8701230468847F8BD3B681C6C246884F86910196C096884
:2059A40005701C2081F86A2006F036FCF8BD0024A1F8E240106890F8312081F8E42090F81D
:2059C400240081F8E50091F8E60064F3451081F8E60091F8E60020F01F0040F0010081F87F
:2059E400E60091F8E60064F3871081F8E60081F8E83081F8E74081F8E940F8BD1401002044
:205A040088340020244400206A510020B8460020D0570020A84400202DE9F04F14460E46CF
:205A2400ADF1140D0568DDF838A00490181C14BF1F1C01AF4FF00008C7F8008010F060F825
:205A44002979490838BF6FF00E0904D395F85C301BB16FF008098246D7E02E666C66EC667F
:205A6400C5F874800122C5F83080E97985F85C2001F0F701E97101F0DF01E97150F0CEFE0C
:205A840004980DF099FB6C79C14674B9BAF1FF3F0BD0BAF1000F08D005F1C80451462046A7
:205AA40010F016F8204610F015F810F029F8824650E06C6F002C3BD0049805F02FF868799D
:205AC40001282FD1E879400803D2E86E002840F09180C5F86C80287A85F85C8040F0020086
:205AE4002872504650F09AFE287A410826D2800824D310F005F8297A01F0FD01297241F0DD
:205B04000101297250F08AFECDF80090D5F80C41296E6A6F2B6C0498A047287A00F0FE0093
:205B24002872E4E7E879400864D2EC6E002C61D0504650F073FE6879012803D10FF0E0FF63
:205B4400824657E058464FF0FF310FF034FD0FF0D7FF8246EC6E002C4CD0E879010943D246
:205B640080093ED204980BF0DDFF05F17804414620460FF020FD504650F050FEA34605F197
:205B8400440A504602A90EF000FB04460FF0B8FF0390E86EA04238BF041C686F02992246BD
:205BA400801908F019F8504621460DF0B7FC686FE96E0019091B68670398E96650F02EFE02
:205BC400002C02DDE86E0028DBD10FF099FF8246687902287FF46DAF686F08B96FF00F0984
:205BE40008E06FF00C0905E0E8796FF00D0900F0F700E8716879012805D085F85C8005F11C
:205C0400C8000FF069FF686F3860504650F006FE484605B0BDE8F08F2DE9FF478246DAF8AB
:205C240004603068DAF80050076C17F4F06F47644DD0A86B00284AD0E879002400F07F0054
:205C4400E871F80A2C6028D3E86CAC6CDAF80090DAF80480241A06E00068C1B209F14400FD
:205C64000CF09AFB641ED8F800008169490901D2002CF1D1306804E001688DF808109DF829
:205C8400081081694909F7D32868401C2860E979C81104BF41F08001E9713068EB6B4468CA
:205CA40004F00F0404EA0301B1FA81F24FF0004323FA02F0014006D0A86B20B12A682B6C14
:205CC40084465046E04720460FF0F8FC2863D5F8E00140680068F16BD0F804250A4201D12C
:205CE400F90915D350460AF097FD504604F016FF6879012804D1E86E10B1504609F016FE5A
:205D040005F178000FF00AFFD5F8E00140680068D0F80415B06B014255D0D5F83C010028B5
:205D240051D050460AF0A4FA504606F013FFA87901283CD1D5F83801002838D005F58878EB
:205D440001A940460DF004FC0446D5F83801A04238BF041CD5F84021D5F82C110198891857
:205D6400224607F039FF404621460CF0CFFFD5F83801D5F84011001BC5F838010919C5F8BD
:205D84004011504606F0E6FED5F8380178B995F8280160B1002085F828010090D5F8D84104
:205DA400D5F82C11D5F840212B6C5046A047D5F83C0120B93168886B40F40060886305F5AB
:205DC400A2700FF0ABFE380B1DD33168086B20F480700863E879820811D300F0FD00E96B47
:205DE400E871880907D3A86B28B12B6C0746202100225046B84702200DF0AAFD3168886BC1
:205E040020F4006088630090BDE8FF872DE9F04F754C0646A068D0F80001807AADF15C0D30
:205E2400C00008F079FB00280C9008BF1A2400F0D6804FF0010AF07D8DF848A006F11801EF
:205E44008DF849000A680DF14A073A604A687A60097A39720FF054FE1590A068D0F88824E9
:205E64000DF1460181209047B07D00283DD004208DF803A04FF000088DF80400B78A8DF81D
:205E84000280A568ADF80070D5F894246946D22090474FF6FF79C34645461DE0C00043F814
:205EA40000B0B18AC0188180DCF80020D42008A9904702E04846ADF804008DF80780B08A4B
:205EC4008DF806803B68ADF80000D3F894246946D12090476D1CADB204F108073A6802F5EC
:205EE40080721068C088A84236DCB08A00279DF84920ADF838000DF14A018DF83A700DF13E
:205F04003B0007F069FEA068D0F894248DF844A00EA9D0209047071C18D1B08A3146102286
:205F2400ADF808000DF10A0007F056FE3069A7680790D7F8942402A9D3209047071C02D12C
:205F44000C9838B104E00C9820B101E00C9808B10CF080FCFCB23FE0ADF80250B08AADF8FE
:205F64000000D2F888236946D12090470028A1D1BDF8040081459DD0ADF82000A068D0F816
:205F8400882408A9D420904704F1080718B10C9808B303461CE0386804F108073B6800F22B
:205FA400944CD3F8000190F80AE00C9B404601E0401CC0B2864507DD03EBC00189888945A6
:205FC40002D0B28A8A42F3D186457FF467AF13B118460CF03FFC1924159850F01FFC2046C7
:205FE40017B0BDE8F08FC0460C0100202DE9F04F724C002704F19800ADF1140DB946B846FC
:20600400056802978246CDF80C903DB3D4F8AC00B84203D1D4F8A800B8421DD0D4F8A860E8
:206024000EB3D4F8A8102869096988421BD195F83300400917D3D4F8AC60A6B90127D4F840
:20604400A800C06840880028F9D0D4F8A800C06840880128F3D006E0012704E004F1E0009C
:2060640002210FF063FD002D43D087F0010B03A802AA594607F05EF95FEA000809D0012F39
:2060840007D0039929B104F5AC700FF008F94D462FE0002D2DD04A48066856B3B8F1000F0D
:2060A40027D0039828BBCDF800B002980190D4F8A800D4F8AC100AF108035246B047401ED8
:2060C40002D0401E08D014E0029800B9284601214B460091014605E001230093D4F8A80064
:2060E400D4F8A8100069B1F930104A4602F03CFD60E0002F5ED0002D5CD0606829698842F0
:2061040052D1B8F1000F0BD0039848B1D4F8A80030B9D4F8AC0018B908200DF0CBF949E079
:2061240008200EF0ADFD95F8330004F1E006C0F3001028B950460EF0E4FAC4F8A80004E092
:2061440050460EF0DEFAC4F8AC00A8691D49C0430860A8694A6810434860E869C04341F83A
:20616400080CE86951F8042C104341F8040CEC68082029460EF0A6F920460EF07FF9208895
:20618400A0F6020040B141F21E01401A04D041F6E671401A012803D8012021460EF092F9F5
:2061A4004FF08041304603E004F1E0004FF480610FF0BCFC05B0BDE8F08FC046802F002024
:2061C40030460020101004406E4A2DE9F04112780F46ADF1180D824215DD6B4C3B7804EB11
:2061E400C00466682568012B01D1786858B17878012801D1B86830B10FF082FC2979490839
:2062040003D350F00BFB0020B8E0297941F00101297150F003FBE87900F0FB0000F0FD01BF
:20622400E87101F0F702E971104600F0EF01E8710846E87100F07F00E871287A00F0FE002F
:20624400287200F0FB002872387868717878A871397DE87901F0010100F0FE000143E971F3
:206264007868C5F80C01B868C5F8D801F868A8633869E863B869A862787F85F82D00387FE0
:2062840085F82C00B87F4FF0000885F82E003A6AC5F82C8143462B661846C5F83801E8665E
:2062A400C5F830016866C5F83401A866286368632867C5F83C0185F85C0085F82801A96BAC
:2062C400C5F8E0312A6411B9E8633048A86396F8400006F0D7F9F168326905F144000FF005
:2062E40061F97169B26905F588700FF05BF928480068C06801463068884720460CF05EF99F
:206304000BF092FDC5F8E001204603F0F9F8214A05F5F270234604210DF0B2FF68460FF057
:2063240085F9327A05F10C00716801921A4A00946B460CF08EFC05F1780041460DF09CFD07
:2063440005F5A27041460DF097FD03A80FF01CFB05F1C80011490594424603AB0CF0F9F97F
:206364000F4905F5CA70424603AB0CF0F2F93068716B0860326B31682046516006B0BDE8EC
:20638400F081C046C21D0000481F0000C7F70000D0010010A15601001D5C0000B156010024
:2063A400CD5501002DE9F04F684D804605F108000068416EADF14C0D02A8884768490A683E
:2063C400D432106890F883906648DFF874B10778002F00F0A6806448077837F07F0740F02A
:2063E400A08056480778002F40F09B80BBF81600544CB9F1010F00F10100ABF816000AD03A
:2064040000200590E06694F8703060F30303012084F8703019E0C4F8FC8094F8000120F0ED
:206424000F0040F0030084F8000194F80031012060F3C71384F800310027C4F8F87094F80A
:20644400013160F3030384F8013149683E4BC96818700F781FB9D2F8842300219047B9F19A
:20646400010F01D10DF05EF90FF04AFBA84604F164071290DFF8D8A0D8F80810F87BB9F15A
:20648400010F11D00025A4F86650294605F0E0FF0790D8F80800066D5246294608208DE8C7
:2064A4000300106802AA15E0496E0AA8884704F1F4070025388A0D95294605F0C9FF0F9040
:2064C400D8F80800066D5246294602208DE8030010680AAA1F4B3946B0471F495A46088030
:2064E400118B002813D4154883211C4F017097F90000B9F1010F00F10100387014BF6434C1
:20650400F434C8F80C40129850F088F912E0491C88B22F461083134912980F7050F07EF903
:2065240006E010495A460027108B0F70401C10830EF024FC13B0BDE8F08FC0469E57002028
:206544009C44002088340020EB45002020400020E4410020F1C70000A0450020F445002030
:2065640014010020CD570020D05700202DE9FE4F89469346804600210222684609F0E8F8BA
:20658400694F78798DF8008028B107F160000FF055F800207871B7F95E40404607F1600592
:2065A4000026FB280CDCFA2880F2868000286FD00D3800F081800E387ED064384AD007E03E
:2065C400FC3870D0401E67D0401E61D0401E32D0B8F1300F70DBB8F13A0F05DBB8F1600FA2
:2065E4006ADDB8F1670F67DA0321601E90FBF1F0241A641EE0B2441040080CD2285D31461A
:20660400102200F00F0082462855684602F0E0FE4AEA00100BE0285D3146102220F00F0006
:2066240082462855684602F0D3FE4AEA0000285597F85E0038E03D4890F87A1041B9993090
:206644002946102207F0C8FA3046294608F038FC01242FE00321601E002C90FBF1F0A4EBCE
:206664000000A0F10100C0B24FEA600224DD94FBF1F04843201A022805D001280CD1A85C38
:2066840040F0F00002E0A85C40F00F00A85403E028460EF0D3FF0FE00121E0B22F220B464F
:2066A4000EF0EEF905E0E0B201212F220B460EF0F6F90446A7F85E40102715F8010B01A948
:2066C40002220BF045FED9F8000010A1098880190180D9F80000731CD9B2401801A90DF03D
:2066E400A8FEF31C7F1EDEB2E7D1B8F1000F0BD0D9F8080006A1152207F06EFA641CABF830
:2067040002400120ABF80000BDE8FE8F2000C046202020202044454641554C54204E574B62
:20672400204B455900C046C0343900209C3B0020F8B5694C2168054614310868407F002830
:2067440000F0C880D1F8C000B5F84220C08C904240F0C080D1F8581305F12800884700288E
:2067640000F0B880206840690026467721687031486E90F8290028B16068816A02208847CB
:2067840021687031086890F82B0018B16068816A01208847287C400908D36068816A102091
:2067A40088472068D0F82813802088476068C16B202088472168C868D1F8FC141030884768
:2067C4006868226841785269007800EB0120C0F30321517622685269C0F3003797762268FF
:2067E400526900F00F03C0F3031793772068D0F8D40080F82C7022680C32D2F8C81091F8D6
:206804004F000F2806D093689B7F984202DD6B68DF780FB19068807F4873106880F830602E
:20682400D2F8C800417B0F290BD19068C07E022850D1D2F8580180472068D0F86C01804703
:20684400F8BDD2F800252846904723680C339868C07E022815D1D3F8F0141868884722688B
:20686400D2F8D4001169467BD06831F81630D2F8F0244FF4707707FA06F1C91A904723684F
:206884000C33D3F8C8002A89D3F8A83190F82C1002209847206800F11401D1F8C020D0F807
:2068A400D400527B90F82C0082420FD00868D1F8E81488472268D2F87C01516988605069AC
:2068C4004169D2F8F024904721681431D1F8141310208847F8BDC046140100202DE9F04F53
:2068E400DFF898910646A9F1080000F108078068D0F80001807AADF12C0DC00007F00CFE63
:206904000028089008BF1A2500F0B4800FF0F8F800244FF0FF0B25460A9027E0ADF800601C
