:20000000003C0120C53D010039FB021039FB021039FB021039FB021039FB021039FB0210DC
:1C00200039FB021039FB021039FB021039FB021039FB021039FB021011FB021002
:20003C002DE9F04FC54D4FF0FF30686000272F604FF0020AC5F808A0ADF1240DEF60102053
:20005C0018F0A1FE286140B1076005F1140141602C69876005F15006E66093A06861082618
:20007C00EE614FF0FF34AC6140202D6218F08BFE05F114043946B24B686218B1CA00875058
:20009C0082185360491C0829F7DB8AA028650326AE654FF0FF336B651820ED6518F073FE58
:2000BC00002828660AD087A10160A649416087A28260C16002D087A202614161AF624FF0FF
:2000DC00010BC5F830B04FF0FF30E86208206C6318F059FEA86318B1076005F13C0141603E
:2000FC007EA00626E8634FF0FF346E6405F128032C643020AB6418F046FE0646002EEE64E3
:20011C0018D07CA03060904870607CA1B160F06010D07CA131617EA2706106F118042260F4
:20013C00F06107D07CA1316280A2706206F128042260F06219F00EFB14F090FB061C00F02D
:20015C005D8517F0FBFE81498446384631F80C4F002C40F04F854FF6F8720A804E607C4C2C
:20017C0020708F607068E060604618F0CAF804F140063946304619F0E9FA764841F2883295
:20019C003B4626617449009004F14C0014F008FD724E73493A46152306F12A00009010208F
:2001BC0008F086FE6F4910203A46534608F080FE4FF480605946324605F06AFD40F2024026
:2001DC005946721C05F064FD40F203405946B21C05F05EFD40F206405946F21C05F058FDDF
:2001FC00321D40F21140594605F052FD721D40F21B40594605F04CFDB21D40F20D40594648
:20021C0005F046FDF21D40F21240594605F040FD06F1080240F20C40594605F039FD06F1E6
:20023C0009024FF48360594605F032FD06F10A0240F20740594605F02BFD06F10B0240F240
:20025C001440594605F024FD06F10C0240F21640594605F01DFD06F10D0240F21540594612
:20027C0005F016FDD94910204FF0FF3208F020FED74910204FF0FF3208F01AFE1020DFF8AB
:20029C0054930090D54AD448132349460190102008F00EFE202018F076FD0146D048804626
:2002BC00816000296FD05FE0576F726B207769746800C046536574204175746F436F6E6EA2
:2002DC006563740044697361626C650047726F757020410047726F757020420053657420E9
:2002FC00436F6E6E2050485920507265666572656E63650031204D62707300C032204D6280
:20031C00707300C03120262032204D62707300C0436F64656400C0463120262032204D6266
:20033C0070732C202620436F646564004175746F20504859206368616E6765006833002062
:20035C00A9520100498D000095BD0000F01D0020BC160020E2250020D9670100441E002054
:20037C00192E0100815501004FF6F870C01D16F0D3F8CC49102008F114020090112301913D
:20039C00494608F095FD03238DF818A058468DF8193004228DF81700C3498DF81A200DF1CE
:2003BC000E0338460A6809791A600DF11702197159460DF0B3FE5846594606AA0DF0AEFEA0
:2003DC00504659460DF119020DF0A8FE032059460DF11A020DF0A2FE042005210DF10E023F
:2003FC000DF09CFE04F1140004F13802AF49C8F80400102008F05CFD207816F04DFDAC49F8
:20041C000246102008F054FD207816F045FDA9490246102008F04CFDA7491020FB2240F601
:20043C00480308F045FDA54910209DA208F040FDDFF88C9209F1180009F10C010EF032FD4E
:20045C00A049C9F8080018F077FBDFF87C82D9F808004FF4E0214246521C15F02BFFD9F86C
:20047C0008004FF4E021424615F024FFDFF82C83D9F808004FF0C0514246521C15F01AFFA1
:20049C00D9F808004FF0C051424615F013FFB84609F12400C8223B46C649CDF8008014F099
:2004BC007FFBC5484FF6F877C9F80400781D12F095F8207816F0F0FC103603460422504627
:2004DC00BE4900901020019608F0F2FC04F1E40704F1E400C02208904146384611F087F804
:2004FC004FF6F876F61D0820401E27F8186BFBD14FF0FF30414613F01DF8A06041464FF053
:20051C00FF32CAA02860284616F092FFA068DFF8309358B1AF684FB1494607270861CE4E93
:20053C000F702846CE6015F06DFFA0684D4629784246CDA316F00FFEE06800214FF04042A2
:20055C004FF0FF3319F0FEF85FEA000BF4D0002002900DF1160102AA03A816F0E5F90028CD
:20057C0040F0A581BDF80C00102840F09C8120789DF81610884240F09681029908884FF6EF
:20059C00FF72824200F08F810E463078913829D01F3803D0203800F0838184E13379A068BD
:2005BC002A787E2B04D07F2B0AD10989B4A301E0317AB7A30091521CD1B2002216F0CBFD3A
:2005DC00317906F1080019F0B9F86CE1E9750100695C0100656F010034B601008C150020A9
:2005FC00D019002070780E3841D0401E26D0401E00F034812E3840F05681B0780C2840F047
:20061C005281F778A068297887B9F279012A08D0022A08BFC7A205D0032A0CBFC6A2C8A22A
:20063C0000E0CDA20092891CCCA301E0491CD0A3C9B2002216F08FFD0C2014E0B08842F235
:20065C003201814240F02F81B278A06829781A2A1ABF0092CBA3D3A3491C0022C9B216F03A
:20067C007AFD42F23200314610F044FC1BE1B168B788087841F20542BF1A27D0A7F62B479D
:20069C00002F40F01081002840F00D81C878009008790190A1682878D6A38E46C01DC3E010
:2006BC0000C046C040B60100F9B601009D760100D96C02102D6D02100D520210397F011060
:2006DC0008210020D96001000E000580B168491C91F902A0002840F0E6804A78087800EB53
:2006FC00022017F0D7FB95F800C0D4F808E00746082F80F2A780BAF17F0F00F088800898F4
:20071C00F90001EB07114618727C531C73748A18121882F80CA0727C4FF005084346401811
:20073C000C30002192FBF3F303FB08F3D21A4346727410F9012B5B1E0A4411B2F9D140466A
:20075C0091FBF0F040B2B074F37C002B5FD110F11F0F4FF0000904DD337D022B18BF002BFA
:20077C002ED196F9120010F11E0F07DA10F1290F04DD337D012B18BF002B17D110F1330F8B
:20079C0004DD10F1280F42DA337D4BB910F1320F3DDA04224FF0020913E0C0460E00001074
:2007BC0004224FF001094FF006080CE04FF00108424608E0A1840100D57801008DA7000015
:2007DC0002224FF00208737D984502D1B07D022801DB98451BD0308811464B4615F0A2FDB1
:2007FC000120F074707D80451CBF0020B075B9F1000F06D0B9F1010F14BF4FF002084FF0E2
:20081C00060886F81580D4F808E095F800C0F8000899CDF800A000EB0710401890F91200A7
:20083C00CAA301900CF105000FE0C04653696D706C65205065726970686572616C00C0460B
:20085C00E02300200CF10100C8A3C1B27046002216F081FC27E0C0460DD3000008200021EC
:20087C0007F0C8FC1FE0C0463D3D3D3D3D3D3D3D3D3D3D3D3D3D3D3D3D3D3D3D00C046C012
:20089C004D54552053697A653A20256400C046C046432056696F6C617465643A202564001E
:2008BC00084601F08BFE029808B118F02CFA5FEADB70FFF441AE206918F03CFF00287FF4F6
:2008DC003BAE2069064618F031FF864208BF002602D0866815F03AFE002EECD03078401E64
:2008FC00082800F27F81DFE810F05801EF00C900A5008F0075007B01750109007068478897
:20091C00384617F0C7FAA1682A7808280EDA089BC10001EB0011C918C87D012840F06281EF
:20093C00B9493A46102008F0C3FA5BE1571C8FA39CE0C046324D00C0434F44454400C0462D
:20095C00556E6578706563746564205048592056616C756500C046C0314D00C05048592023
:20097C005570646174656420746F20257300C046504859204368616E6765206661696C754B
:20099C00726500C05048592055706461746520537461747573204576656E743A2030782543
:2009BC007800C046504859204368616E6765206661696C7572652C207065657220646F65EE
:2009DC0073206E6F7420737570706F7274207468697300C002200DF11B0114F079FC002865
:2009FC0040F00081032001210DF11B020DF096FBF8E0C046525850683A2025642C20545821
:200A1C0050683A20256400C07768787A48B17F4800902978A06800227DA3C91CC9B216F0ED
:200A3C009AFB7A480090BA49FA880023102008F03FFAD7E072681079A1682F781278DAB1CB
:200A5C00521E10D0521E08D0521E40F0CB8000280EBF73A3009077A307E0002808BF7BA34E
:200A7C0003D07FA305E018B983A3FF1C8846ABE085A3FF1C8846A6E088A3F6E77768A2688D
:200A9C0028783968491E0CD0491E08D00E3912D179680B780093498884A3019105E08CA3B8
:200ABC0000E090A3796809780091001DC1B21046002216F050FB3868B0F1004F00F0928029
:200ADC00786815F043FD8DE070680078010923D24009C0F087800E2017F010FD002840F07F
:200AFC0081806A68A8689168814213D0B0F1FF3F78D0116951F830702FB901EBC001486889
:200B1C0015F080FC6EE0116901EBC0014968C0B2884767E0D068F3E70F2017F0EFFC00282F
:200B3C0060D16968A8688968814208D0B0F1FF3F09D0401C15F0C4FEB0F1FF3F02D100204E
:200B5C0015F0BEFEA8600BF003FE4BE0525353493A25642064426D2C204156472052535310
:200B7C00493A25642064426D00C046C0436F6E6E656374696F6E2068616E646C65206973BC
:200B9C00206E6F7420696E2074686520636F6E6E4C6973742021212100C070682F78D4F878
:200BBC00088000787F1C38B1801E1BD1022007A914F08EFB50A304E0002007A914F088FB7E
:200BDC0050A39DF81C000090F9B24046002216F0C2FA07E07068B0F801000CF0C9FC05E0A2
:200BFC0012F018FE706808B115F0B0FC304615F0ADFC60E6401C0628FFF4A8AA18F01FF926
:200C1C0009B0BDE8F08FC0460D2B021040E2010050617373636F64653A20256400C046C08D
:200C3C00426F6E642073617665207375636365737300C046426F6E642073617665206661EE
:200C5C00696C65643A20256400C046C0456E6372797074696F6E207375636365737300C02D
:200C7C00456E6372797074696F6E206661696C65643A20256400C04650616972696E6720D5
:200C9C00737563636573730050616972696E67206661696C3A20256400C046C05061697284
:200CBC00696E67207374617274656400416476205365742025642064697361626C6564203B
:200CDC00616674657220636F6E6E20256400C0464164762053657420256420446973616256
:200CFC006C6564004164762053657420256420456E61626C656400C04368617220333A20DD
:200D1C00256400C04368617220313A20256400C04168010038B586B004468DF805104FF606
:200D3C00FF720120ADF80220090ADFF8545AADF8000002238DF806108DF8043069462A7837
:200D5C00204618F0EFFC162803D12978204618F0E5FC07B030BD3EB504000D461ED0DFF869
:200D7C00240A0068224618F0D5FCFF2815D000200090002301AA294620460DF079FD60B995
:200D9C009DF8040000F075F9C00606D59DF8040000F06FF910F0040000D001203EBDFEB50B
:200DBC00164615244FF6FF7290420D4615D100208DF80400DFF8C8799DF80400F97988422B
:200DDC001AD23246294600F03AF800B100249DF80400401C8DF80400EEE718F097FC50B13E
:200DFC0000F0A2FB40B99DF804003246294600F026F8002400E014242046FEBD7CB50D46E2
:200E1C00044606214C43164600F080F8A8B900F078F890B99DF80700002E14BF054320EAF9
:200E3C000505E9B2814206D08DF807506A460821A0B216F0C1FA012076BD002076BD2DE9D3
:200E5C00FC410646344606235C438846154600F05DF8002852D100F054F800284ED1DFF898
:200E7C002079387A800017F03BFD040002D100F02BFA43E0397AE03689062246090EB0B204
:200E9C0016F072FA002835D1204600F058F85FEA08000ED13A7A9206120E0021204616F0C7
:200EBC00FBFE38BB3A7A92000021204617F080FB16E0214600F030F858B9280004D02146F2
:200EDC00002000F029F810B900F0DDFB16E0A0F800808178A9420DD085700DB90021018008
:200EFC00204600F02CF8397A89062246090EB0B216F062FA00F0C7FB012000E00020BDE85F
:200F1C00F6810622FF21684616F0C6BE20346A460821A0B216F028BA70B5DFF864381D7A28
:200F3C00002200E0521CD4B2AC4206D231F824608642F7D101EB840070BD002070BD10B5ED
:200F5C000021DFF83C280AE030F82130DB4320F8213000EB8103491C9C78E4439C70137A87
:200F7C009942F1DB10BD2DE9FE4FDFF814480646207A0F4691469B46800017F0B1FC5FEADB
:200F9C00000803D100F0A0F90A206CE00C9D0297B246062717FB0AF7029A07F12000082103
:200FBC0000F064F88DF80400304600F09FF8227A9200FF21404617F0FBFA9DF8040000904A
:200FDC00E036217A89064246090EB0B216F0F4F9009E02990643206A082200EBCA0017F0CF
:200FFC00DDFABDB10299887900232A4600F0010018F088FB00281CBF9DF93C00002803D015
:20101C00DFF884170120087007F123002A4600F02CF806435FEA090205D007F121001C2142
:20103C0000F024F806435FEA0B0205D007F122001C2100F01BF806430D9A62B107F124009B
:20105C0000F013F8054625370EAA0421B8B216F0B3F905432E43207D08B100F09AFA4046C0
:20107C0017F046FCF0B2BDE8FE8F102180B216F0A3B9E0B50623584320306A46082180B2BE
:20109C0016F072F910B99DF807000EBD00200EBDDFF8EC06007808210CF09EBB38B50025D7
:2010BC00DFF8DC4619E0206A062313FB05F300EBC5022033082198B216F056F958B1206A09
:2010DC000622FF2100EBC50017F072FA206A00EBC5010022CA716D1CEDB2E1798D42E2DBE3
:2010FC00207D10B1BDE8314053E231BDF8B5DFF89016DFF89836C9791E680C460A4600E024
:20111C002A46D5B23DB1551ED2B2324412F8017C8742F5D12C46E4B220464D1E07E017185C
:20113C00165C7F7817541A680244401C5670A8421A68F4DBAC4204DABDE8F840052016F0C6
:20115C003BB9F1BD70B50024DFF8345600E0641CE879E3B283420BD22B6AE6B20622FF21BA
:20117C0003EBC60016F098FD0028F0D0E0B270BDDFF81C26117819B1DFF81006016808781B
:20119C0070BD38B500200024DFF8F45503E0E0B200F008F8641CEA79E1B2914201D2010033
:2011BC00F5D032BD2DE9F84F83465D46062313FB05F58EB005F1200701AA0821B8B216F0C6
:2011DC00D3F8002873D10622FF2101A816F064FD00286CD1DFF8A865307A800017F080FB6F
:2011FC005FEA000903D100F06FF80A2061E01C22FF2103A817F0DCF9327A9200FF2148461A
:20121C0017F0D6F905F123040AAA1021A0B216F0ABF860B91022FF210AA816F03DFD30B999
:20123C009DF80A0001A900F0010018F067FA082200F042F801AA0821B8B216F0BDF88DF81D
:20125C00000003AA05F1210000F03AF8074605F1220003AA00F034F8804603AA1021A0B268
:20127C0016F0AAF8044605F1240003AA102100F028F88246253503AA0421A8B248EA0707CA
:20129C0016F09AF82743317A9DF800504AEA0707074389060BF1E0034A46090E98B216F0AF
:2012BC008BF80743484617F023FB3D4300E0002528460FB0BDE8F08FFF2101A817F078B9BB
:2012DC001C2180B216F078B8042015F0ABBE2DE9F84187B0FF208DF80000DFF8A454E87961
:2012FC0017F0FEFA040003D1FFF7EEFF0A2030E01022FF2103A817F05BF9EA79FF2120469D
:20131C0017F056F90622FFF7D7FF03AA1021022016F052F8064603AA1021032016F04CF880
:20133C0006436A460121042016F046F80746E9792246052016F040F8054601AA0621062051
:20135C0016F03AF8804600F09EF93E432E4348EA060008B0BDE8F081DFF82414408809789C
:20137C0015F08ABFF0B5A9B006460D46144618F0CDF908B91420ACE0A4220021684617F021
:20139C0017F9ADF800600DF12607DFF8F463F078B17B8DF80400F07B8DF8A000279861F303
:2013BC000000B17B27908A074CBF0222002220F0020010432790CA064CBF4FF480720022FE
:2013DC0020F48070104327908A064CBF4FF40072002220F40070104327904A064CBF4FF445
:2013FC008062002220F480601043279049074CBF0421002120F0040008432790307C022842
:20141C000CBF01200020787418F074F9412807DB307C00B108209DF8991008438DF89900CC
:20143C00B07CB8B10121B974202206F18C010DF1390017F0B3F8202206F1AC010DF15900C0
:20145C0017F0ACF8202206F1CC010DF1790017F0A5F800E0B874707B8DF8050090B1DFF80B
:20147C003473102207F110010DF1060017F096F89DF89900082805D1102239460DF11600DC
:20149C0017F08CF8307B8DF8260030B11022DFF808130DF1270017F081F8307948B1022DD4
:2014BC0018BF032D03D1279840F002002790012100E000219DF899000143B0788DF89910A2
:2014DC0000B1042001438DF899106846214618F00DF929B0F0BD2DE9FC41154615244FF6D4
:2014FC00FF72904288460DD10027A54EF179F8B2884216D22A464146FFF780FC00B10024C3
:20151C007F1CF3E718F002F950B100F00DF840B99DF804002A464146FFF770FC002400E052
:20153C0014242046BDE8F681002100910023417901AA01F00101801D0DF09AB970B504464C
:20155C000D4606204543082B88B0164603D1300758BF223500D521351C220021FFF7ADFE03
:20157C0001AA1C21A8B215F0FFFE80B99DF81E00C01F0A280BD29DF830000090F20801AB36
:20159C0002F0010206F00101204618F0ABF808B070BD38B518F0A2F80024794D0FE0286A52
:2015BC000622FF2100EBC40016F076FB28B9286A00EBC401002018F08DF8641CE4B2E8795A
:2015DC008442ECDB31BD3EB50C46002501460095002301AA20460DF04BF938B99DF804002F
:2015FC00FFF747FDC00601D401203EBD00203EBD2DE9F041694F3C6806468846154603E0C8
:20161C002089B04224D02468002CF9D10C2017F067F9040019D0268184F80A8000202060D0
:20163C00E07245B10821284616F05EFC606018B900F029F80AE06060396811B93C6004E018
:20165C00014608680028FBD10C600CB9152018E018F03CF808B1002013E00120E0722A467A
:20167C0041463046FFF77EFE04464548C06900281CBF4368002B03D000220021304698479B
:20169C002046BDE8F081204617F032B938B505464248046803E02089A84204D02468002C2A
:2016BC00F9D1012032BDE07A012807D100F05CF820B13348007804210CF08EF8E17A491C6A
:2016DC00E1722846C9B200F002F8002032BD38B5022904462A4D02D003290DD01EE042F6CF
:2016FC00C921FFF717FB02001CBFE869002818D04368B3B105210CE042F6A621FFF70AFB83
:20171C0001001CBFE96900290BD04B684BB102460421204601B0BDE830401847BDE83240BD
:20173C0000E031BD10B51D4A1468002101E0214624686CB123898342F9D1206800290CBF4E
:20175C0010600860606808B117F0D2F8FFF79BFF002010BD024604201049096819B10B8932
:20177C009342FAD1C87A70470C48006828B1006818B1C17A0029FAD1704700207047000031
:20179C00001C0020680F002090390020243900208F390020DC3600200C37002028390020F6
:2017BC002DE9F04385B0064600208946009090461C46B179002304AA30460DF059F820B1FC
:2017DC00FFF7C0FC8DF810001BE0D4B19DF810300620434323336A46102198B215F0C4FD5E
:2017FC0078B91022FF21684616F056FA48B9B079314600F0010017F081FF10B119490120E9
:20181C000870194F9DF81000F979884227D201200390009443460C980D990E9D0190029108
:20183C004A469DF810003146FFF79DFB044655B1397A9DF810008906E0302A46090E80B252
:20185C0015F0BAFD0443200005D09DF81000FFF7A9FCFFF723FC204605B0BDE8F0831520B7
:20187C00FAE700BF90390020001C00202DE9F84F012014F03BFF012816D1DFF8986630783E
:20189C00002117F01FFF040004BF002015F0CAFB00202072201D0DF0E7FE04F005FF050067
:2018BC0003D1812017F00AFF30E301206871DFF86826DFF868064178491C4170A879A072CE
:2018DC004020317811700CF003FE2860616D4A78206DD10620D5816C0A681179032908D007
:2018FC00816C0868007903280CBF0120002015F099FB206D816C0A6890F86C0002F1080744
:20191C0001281CBF002015F08DFB216D486F296800F5B060C8604AE0C16E0A681179032976
:20193C0008D0C16E0868007903280CBF0120002015F078FB206DC16E0A6890F8980002F1AB
:20195C00080701281CBF002015F06CFB226DB5F87401D2F8A0102A68DFF8C435DFF8C4653F
:20197C00D16097F82690B9F1030F1BD8DFE809F002050E1101F5B06101E001F53471D1608C
:20199C0005F59A711888088718880EE001F5355101E001F6B871D16005F59A71308808876F
:2019BC00308802E001F5B061D160A5F8740106222868DFF87465C168DFF8708501F59071D3
:2019DC00C160B91C3878C0F3801085F82E0105F5947016F0E3FD042207F10E0105F124002B
:2019FC0016F0DCFD306895F8069000F10C03042207F10E0103EB491016F0D0FD3068AB792E
:201A1C0000EB4313032207F1120103F1100016F0C5FD05F12C09787D89F80200022207F1AE
:201A3C00160105F1300016F0B9FD022207F1180105F1320016F0B2FD022207F11A0105F152
:201A5C00340016F0ABFDB9F808006884022207F11C0105F1360016F0A1FD99F80200B9F896
:201A7C000A10400089F802000901B9F80400A9F80A104000A9F8040089B2B9F806004000DC
:201A9C00A9F8060003046A8C521CDB0B5A438A4201D280B230B998F8000080210BF09CFE15
:201ABC003B2133E105F12E01284617F003FE0520A8814FF01C0A284617F0F8FD052207F1C3
:201ADC001E0105F1610016F069FD97F82300400989F8000017F0E6FD688205F59A72618DC4
:201AFC00401AD08005F1610197F82300DFF8407400F01F0089F80F00284617F0CFFD616DDD
:201B1C004A78206DD1064CBF816CC16E41F62102086800210171A97938681AFB01F14252A2
:201B3C000021AB791AFB03F303445980AA791AFB02F210444160616DDFF8F8034A78D106BF
:201B5C000DD5DFF8F4138A7851060AD5DFF8EC23138841F20A418B4208BFDFF8E403C5F863
:201B7C009C01D5F89C11284688473A68A97902F10E031AFB01F15854AA7938681AFB02F2AE
:201B9C0002440020D0733968A87901F10E021AFB00F0115C89F80D10606D4178CA061DD564
:201BBC0095F8960108B915F03DFAA97938681AFB01F1014495F89601421E0A74A879396816
:201BDC001AFB00F00844002141743A68A97902F112001AFB01F1002242522BE0A97938686F
:201BFC001AFB01F10144206D90F840200A74A87939681AFB00F00844216D91F84120427449
:201C1C00206D3968AB79403001F112021AFB03F34188D15205F5CB710078012200F0030025
:201C3C0082400A70226D92F84000800814BF0120022008713968A879DFF808B301F1140280
:201C5C0031681AFB00F301EB4010D050A87939681AFB00F00844BC498161DBF81400007812
:201C7C00C107DBF8141009784CBF1F200F208A07DBF81410097848BF40F020004A07DBF80B
:201C9C001410097848BF40F040000A073168AA7901EB421348BF40F080001872A979306803
:201CBC0000EB41120B2050723168AA7901EB42100421A64A81721078012806D13168A87999
:201CDC0001EB40120121D17207E0DBF824003168AA79407801EB4213D8723168A87901EBC2
:201CFC0040121F2111763068AA7900EB421100204876A8790CF030FBAA79316852018850A9
:201D1C00AA7931685201885820B90721284615F0C7FAFBE08E48AA79016801EB021017F041
:201D3C00B9FCA87931688A4B01EB4012196801EB00105060A979306800EB41125168C9F866
:201D5C003C10AA7952018158C9F84410042198F800000BF041FD616D4A783868D10648BFBB
:201D7C0002210AD4A9791AFB01F101440A7C02F00302022A14BF04210621B9F8042095F8AE
:201D9C0006C04FF4C8738A18698AAA615143B1FBF3F35B1C6B611AFB0CFCD5F800E060446C
:201DBC00DEF80CC040F6C41101FB02C2D21AA2F5A8628260AA7938681AFB02F283189A68C2
:201DDC002B689A6000F10C03AA791AFB02F20C309B5C03F0EF038354A8793A681AFB00F077
:201DFC0002F10C030C321B5C03F07F031354A8793A681AFB00F002F10C030C321B5C03F0C2
:201E1C00F00343F002031354AB7938681AFB03F31844427B02F0F00242F001024273AA793B
:201E3C0038681AFB02F2024490682B6818613068AB7999F802C000F11402686940005B0110
:201E5C0011FB0C0000F5F660D05095F8960104280DD13068AA7900F114034FEA421C143017
:201E7C0053F80C20AB795B0102F56162C2503068AA7900F114034FEA421C53F80C20C5F8F5
:201E9C003421AA7900EB4210C37C03F0F00343F00403C374DBF830003268AB79006802EBC5
:201EBC00431CB9F8062042436423B2FBF3F35943A1F59661CCF81C103068A97900EB411022
:201EDC00C27E02F0F00242F00402C276A97938682A681AFB01FA00EB0A01516028460E21AA
:201EFC0017F0D4FB1B4907200870204613F026FF19488178880704D5AA790021204617F0EC
:201F1C00C1FB28681549164A41618261BDE8F14F03F09CB8D50F0020D70F0020780E00203A
:201F3C008E0F0020900F00209C0E0020C70F0020980E002081010210C00C00209A0F00203A
:201F5C004DE5011094B70100980C0020CC0F0020A40E0020C80F0020200E002099C00000A7
:201F7C00020480802DE9F84F054688B0A978DFF84466002710294FF0060A3CD8DFE811F032
:201F9C00110015031503150315033C00CF0015031503780215010001CA0215034E02900222
:201FBC000D036878002826D117F068FB044617F061FB054617F05AFB8DF80000224610211A
:201FDC00022015F0F9F92A461021032015F0F4F96A460121042015F0EFF99DF80000012875
:201FFC0018BF032807D1012017F03CFB02460621062015F0E1F9D8E268780028FBD195F8FD
:20201C000CB06C8900900023E97801AA01F00101281D0CF02DFC00284FF0010875D19DF88C
:20203C000400FFF726F88146BBF1080F307A08BFB846800016F054FC050003D1042014F09C
:20205C00F1FFB2E270789DF8041002280CBF0120002000905B464A462046FFF76FFA14225D
:20207C00002102A816F0A4FA9DF804001AFB00F0243002AA102180B215F076F9B0B91022C5
:20209C00FF2102A815F008FE80B99DF804001AFB00FA0AF1250306AA042198B215F064F9CA
:2020BC0002AA09F00101204617F0D8FA317A9DF804008906E0302A46090E80B215F054F930
:2020DC0098B92846FEF73BFFBA4609E005EB8000018819B18278204615F050FC0AF1010A93
:2020FC00317A5FFA8AF08842F0D3B07A30B95FEA897003D53178204615F0BEF89DF8040029
:20211C00FEF7F4FF284616F0F3FB7078022805D1B8F1000F02D0204611F04EF945E2A888E2
:20213C00FFF700FB17F096FA0028F7D1707D012808D1FFF726F8706A77750422002116F0F5
:20215C0037FA17E0B07D012803D1FFF7C0F8B77510E000240AE0706AE5B2415D012904D12B
:20217C00E0B2FFF71FF8716A4F55641CE0B2F1798842F0D3502015F001FDFEF78FFF14E230
:20219C0017F0A4FA00280CD0F06900281CBF0468002C07D0286900906B7B2A7B6989E81C0D
:2021BC00A04701E268890121F4E168780024002840F01D81A879C10740F119810822002158
:2021DC0005A816F0F5F9A88817F0A0FA040076D06F694FB30622002107F1110015F05CFD9D
:2021FC0068B306220021384615F056FDD0B9387C00F001084FF0000909F1010987F81190E7
:20221C000020009000230022414607F111000CF02FFB00285FFA89F002D10028ECD101E064
:20223C0000280CD1002068610622607900F001008DF81A00A11D05A816F0B0F91FE06F6912
:20225C00EFB1387C00F001008DF81A00062207F1110105A816F0A2F96079012805D10622FE
:20227C00A11D04F10C0016F099F9062207F11101A01D16F093F9387C40F002006071A87992
:20229C00410720794CBF40F0020000F0FD002071A9790A0754BF00F0DF0040F02000207190
:2022BC00A9799DF81B00890801F0010108438DF81B00A9790A074CBF0821002108E0FFF75B
:2022DC0053FA0028ECD0307804210BF085FAE7E708438DF81B000020009000239DF81A101F
:2022FC0004AA05A80CF0C4FA20B1FEF72BFF8DF810001AE06869C0B19DF810001AFB00FA38
:20231C000AF123036A46102198B215F02DF860B91022FF21684615F0BFFC30B99DF81A00BA
:20233C0005A900F0010017F0E9F99DF81000F179884258D2E968686900290CBF00220A694B
:20235C00002303930292019100902B69AA689DF8100005A9FEF707FE0446AF88B06A4FF61F
:20237C00FF7848B906F1180100910223924A4146012017F06BF9B062B16A19B3FF20039069
:20239C00022200230292019307A800900DF11203328B384605F066FA68B99DF812009DF873
:2023BC00131000EB012290B228B1B06A418992B23846FEF7F4FC328BB06A0023414617F0A2
:2023DC0041F9B062200005D09DF81000FEF7EAFEFEF764FE200007D1707A0028A88804D1B8
:2023FC00FFF754F903E01524A888FFF79BF9F06900281CBF4368002B0FD06A78A888012163
:20241C0098476878002808D1A879C10705D5F369A88822465C680321A047BEE068780628AE
:20243C001BD1A88817F072F9B8B1F17C012904D013D3032907D00CD30FE04179A88800225B
:20245C00FFF7D6F809E00022002140F2094003F01FFCA888052117F0F1F8F06900281CBF45
:20247C004368002B03D06A78A888022198479BE000970023E97801AA01F00101281D0CF00E
:20249C00F7F90028F3D19DF804001AFB00FA0AF1250305F10C02042198B214F08DFF83E013
:2024BC00F06900281CBF4368002B03D0A888002200219847707810B9A88805216AE0A88828
:2024DC0017F024F9040070D0A87AC10712D5009700236179002201F00101A01D0CF0C8F984
:2024FC0000281EBF60790028012803D0E868C0F3402028B1307C022807D1A87A010704D4D2
:20251C00A888032117F096F84FE06179A88805F1080227E02F7BAD88284617F0F7F804002F
:20253C0042D017F0D3F800283ED100900023617901AA01F00101A01D0CF09AF928BB9DF875
:20255C000400FEF796FD07F00C07042F11D0082F0BD00C2F0FD100F0090109290BD06179A7
:20257C0000222846FFF744F81EE010F0090F02D1F5E7C107F3D501220092A37C9DF80410AB
:20259C0002462846FEF7DAFF0EE070780028E6D10521284617F04EF806E0FFF7E5F818B183
:2025BC00307804210BF018F90127384609B0BDE8F08F00BF001C0020C4B101002DE9F04FDD
:2025DC00CC4AC84C064690461078A168B278ADF1240D401C002A00F08F81C54D521FB6A3A7
:2025FC000FF2F02900F0C080521E4ED0521E1ED00A3A40F04182B088B77BADF80800708942
:20261C008DF8127060B9ADF80E00B089ADF81000F188ADF80A103789ADF80C70012000E0C3
:20263C000020B1498DF8130002AA0D4620E1AF49B288102002AB06F03BFC98F80070A56883
:20265C00F078BF1C30B90DF10A0011F0D1FE8BA3009007E00DF10A0011F0CAFEB17800912A
:20267C008CA30190F9B22846002214F074FD04F1300015F0EEF8041C00F0068220890AF083
:20269C0077FF204613F062FFFEE1294610201A4606F00EFC5FFA80FA98F80010A068002263
:2026BC0086A3491CC9B214F056FDCDF800A098F80010A06800224B46891CC9B214F04BFD72
:2026DC00B088814615F0E6FB08282CD0C50005EB00152D19E435A868071C0ED016F0C1FBD1
:2026FC0010B1384616F0A9FB384616F09FFF384613F02CFF686813F029FF04F13000076878
:20271C004D4657B106463889854203D13046394614F0EEFE3F68002FF5D1284613F086FBE7
:20273C0028460FF05BFFBAF1000F08D104F14C0016F083FBCE480221012214F079FE002562
:20275C000095CC4EA27810202B46314606F0B0FB0095E27810202B46314606F0A9FB98F8AA
:20277C000000A168C01C89E1294610201A4606F09FFB5FFA80FBCDF800B098F80010A0686E
:20279C0000224B46891CC9B214F0E5FC7078002851D1B6F80AA004F1E409082000254FF667
:2027BC00FF72A9F1180737F8181F8A4204D0401E05F10105F7D127E0A7F800A0032016F03C
:2027DC00E2FA7860D0B1082101707868A0F801A0242016F0D8FAB86018B9786813F0B6FE59
:2027FC000CE0E80000EB0510484441680091B349806841F27072012312F0D2F9E80001212F
:20281C0000EB05104844017598F80050A768301D11F0EEFD6D1C009000229DA3E9B23846DE
:20283C0014F099FC92480121022214F001FE04F14C0016F000FBBBF1080F12DA607880B9BE
:20285C00002600968B4DA27810203346294606F02FFB33460093E2781020294606F028FB58
:20287C0012E1974DE2781020294606F021FBA2782946102006F01CFB06E1C0464C696E6B19
:20289C0020506172616D20557064617465643A20257300C04C696E6B20506172616D20555E
:2028BC007064617465204661696C656420307825783A20257300C04600C046C044657669DE
:2028DC00636520446973636F6E6E65637465642100C046C04E756D20436F6E6E733A20256A
:2028FC006400C046BC160020D9570110F9DC011001560100E02300207778002F40F0C4802C
:20291C00F7798DF80970337A8DF80A30B2798DF8082000258DF80C508DF80B50F77A8DF80D
:20293C000F70B37A8DF80E3002AA777A654B8DF80D70176852681F60C7B2084639465A6005
:20295C0057A32A4614F007FCA01CDFF880A1614F5D4900905246102007F1400306F0A8FAB5
:20297C00C0B208B115F030FD4FF00B0907F11400CDF8009056490190A2782B46102006F049
:20299C0097FAC0B208B115F01FFD1C2007F15C0300904F490193A2781020012306F088FA09
:2029BC00C0B208B115F010FDA2784B491020922306F07EFA0095DFF8BCB0A27810202B462A
:2029DC00594606F075FAC0B208B115F0FDFCE01C3D490090524607F17803102006F068FA09
:2029FC00C0B208B115F0F0FCCDF800901F3701973749E27810202B4606F05AFAC0B208B16C
:202A1C0015F0E2FCE27834491020922306F050FAA946CDF80090E278102059462B4606F0E7
:202A3C0047FAC0B208B115F0CFFC98F80070A568B01D11F0DDFCBF1D1FA100914A461BA30F
:202A5C000190F9B2284614F086FB10F0E3FE234840F6B83201231949009004F1700012F042
:202A7C009FF81F4802214A4614F0E2FC0CE0C04668330020ED740110421CD5B2C2B20846E1
:202A9C0011462A4615F0ECFF09B0BDE8F08FC046436F6E6E656374656420746F2025730032
:202ABC00496E697469616C697A656400257320416464723A20257300494400C0D9670100D1
:202ADC0065020210F7140020990101103375010041CA0000441E00201DEF0110E325002010
:202AFC00683300202DE9FE4F04460020009000250CB914F097FA04F1500841F62300D8F8AC
:202B1C00007038807D8002223A737A73694620460BF05AF808B9072051E2009901B1B860D6
:202B3C00B8682061DFF89C04017884F8B810D8F80400407A12F022FB25302076207EB87343
:202B5C00FD73D8F80400017D022904BF002014F069FAD8F80400007D012802D10020002194
:202B7C0004E083280CBF0620022020213874797404F12406DFF850A4DAF83C0041690868AB
:202B9C00717901EB41010844B0F801207A82D8F80400417848060AD5607DC10604D5E07F5A
:202BBC0040F04000E07702E040F04000607507F15C0904F1300089F80050B17E890001F00F
:202BDC00040189F80010B866607DC10656D5D8F8042051788A060CD500F0FE006075D8F895
:202BFC000400417811F0030F03D1E07F00F0FE00E077607D16F016FDA075421C387CC0F3A1
:202C1C008001002392B200F0030016F007FDA0831E20A28B02F59B7393FBF0F01E2101FB77
:202C3C001030C0B208B1C0F11E00821802F59B7262831E20A28B02F5967293B293FBF0F09E
:202C5C0001FB1030A283C0B208B1C0F11E008018A08380B2E27D618B521E50434018608387
:202C7C0007F13005608BB43080003866062089F80300E17F41F00801E17720E040F0010051
:202C9C006075D8F804104A78510744BF40F002006075607D16F0C6FCA0750023401C82B2CE
:202CBC00387CC0F3800100F0030016F0B7FCA083A08B00F59670A0833D6689F80350A17D63
:202CDC00207D61F3050007F18801207508700322607D48708A70B07E800000F0040040F0CE
:202CFC0003008870F27ED20002F00802104388700020C870C7F89000B08BC0F30B00B08361
:202D1C00D8F80410CA7D40EA0230B0830022617D01F0FE0120460AF011FA019700271EE0C5
:202D3C001C2010FB07F004EB000B01991C220BF1640015F033FC0BF16C00052101717F1C38
:202D5C00A28B92000260FFB2DAF83C104A691168737903EB43031944B1F801204281E07DD4
:202D7C00401E8742DCDB019F20460DF0FDFFE07D012809D013D3032808D03EBF04F16400BC
:202D9C007860C8F818500AE07D6008E004F16400786004F18001C8F81810C8F8345041F65E
:202DBC00240038860021798607F13C05B868618B00EB8100B86302218220287069700021D2
:202DDC0094F82100E97000F03F00A870D8F80400807D012818BF022803D100F07F00401EEE
:202DFC0004E083280CBF062002202021287169714FF0000BDAF83C0041690868727902EB17
:202E1C0042021044B0F80110E980C7F86CB0D8F80400417811F0030F20D016F0FBFBF86617
:202E3C00DAF818000078C107DAF8181009784CBF1F200F208A07DAF81810097848BF40F015
:202E5C0020004A07DAF81810097848BF40F040000A0748BF40F0800089F8140089F815B050
:202E7C00D8F80410594A897C01F0030189F81510B07E800000F00400014389F81510F07E15
:202E9C00C00000F00800014341F0100189F81510107838B199F8140000F0FE0041F04001BC
:202EBC0089F8140089F81510E07F16F0BBFB84F82000204616F0AAFBE07FC10636D5D8F8F2
:202EDC00040094F820204178521C88074EBFD21EF07F12182879C0F380010023D2B200F04E
:202EFC00030016F09BFB30801E22308800F59670C0F11E0190FBF2F21E2000FB0211317147
:202F1C00D8F804104878810731884CBF00204FF49B70401830807080B86B3188327952184E
:202F3C00A63200EB82007867022002E0C7F874B0002089F8170004F13000C7F8800007F156
:202F5C008400D8F804104A78510707D504F13802026099F8150040F0200007E01C490A68B2
:202F7C005168016099F8150000F0DF0089F81500A17F94F8200060F30501A17740F60B0092
:202F9C002882A5F812B0DAF83800008880007865DAF83800008800B1072028770220687713
:202FBC0094F84510E983D8F804004178880744BF0121E983009808B109F090FE0020BDE85E
:202FDC00FE8F00BF8639002094B70100880E00206C0F00202DE9FC47D44C0F460646F80BF0
:202FFC0080F00C826078B90F80F0AC81B90880F09F81DFF84C83F90A80F00281390B80F0D9
:20301C00CC80380907D2F80FC0F02E8227F080470FF0AEFA28E215F0AEFE814614F06EFD51
:20303C00002800F0B480082015F098FD002840F0AE80802015F092FD002840F0A88068467E
:20305C000CF0C0FE012803D10098002800F09F8094F84102002840F09A8000250126E8B2A7
:20307C0015F092FA48B1837A3BB1867290F9090006FA00F0C0B213F06DFB6D1C032DEED3F0
:20309C00032084F8240004F5CE7015F06EFE484616F0B8FAC34800252A460168056050F8AD
:2030BC00081CD44940F8085C04F1600014F036FC40460068006B8047A168401A010BE06AB3
:2030DC00C1F1FF3282422CBF08444FF0FF30E06294F8300020B12069E16AB1EBC02F25D95C
:2030FC0014F01CFD294600B13146081C1BD0C24840F6090101804580417B06F00F0221F08D
:20311C000F010A434273017B05F00F0321F00F0143EA010202732946416015F0C9FB418896
:20313C0011F4406FFBD084F83060E56211F084FDD14829460560022014F07EFA022013F06F
:20315C0017FD11200AF08AFF207818B96068503015F05BFEC948007810B90E200AF07EFF85
:20317C0094F8310020B184F83150052013F000FDC348A06284F82450B4F9B400B4F9B610B2
:20319C00884214BF022007200DF030FE02E0484616F038FA27F008073AE720B1042013F01B
:2031BC00E7FC00206070656813F0A0F838B128462D6A6FF4807100224FF00073A847E0686B
:2031DC0058B140460068006B8047E2686168801AC860000BC8600026E660AA4904F16000EE
:2031FC00002214F09BFB0221D4F8A00084F8241018B104F1E00015F01AFE27F4006707E78D
:20321C0015F0B9FD064614F079FCD4F898100028894600F08480002900F081809A4904258D
:20323C0004F16000002284F8245014F077FB304616F0E8F904F5CE7015F097FD404600687A
:20325C00006B8047E0604FF0010884F80180284613F0A6FCD9F810006060D9F81000816A1B
:20327C00C90803D3436A294600229847404610F073F8606880F8198060680BF087F9656894
:20329C00D5F808A040F60A02D01F564600F1010C00E01E46736833B119888A4203D08842C5
:2032BC0018BF8C45F5D100217160727B08F00F0322F00F0213437373D9F80C2012889042D3
:2032DC0024D06046904221D02B8F03B3E96305F13802518095F8440001F00F0320F00F00C5
:2032FC00034385F8443095F8450008F00F0320F00F00034385F845307260707B01F00F0586
:20331C0020F00F0045EA0001717300E0E160504615F0CEFA5146404614F08EF902E03046DA
:20333C0016F070F927F480679EE0C046E00F002006F08EFDD4F8A00008B927F0020793E02C
:20335C008C010010514A116841F08001116020B1042013F00DFC0020607015F00CFD8046B8
:20337C004B480068016804208847216A81421BD1357ECDB1A568BDB1D4F8A8506DB1E968C1
:20339C00098840F60300884204D0E9680988401C884202D106F1140001E006F1100012F0D9
:2033BC00C1F906E01410044040F6C411316171612062404616F026F912F098FF80B1356AE4
:2033DC0030466FF4807100224FF00073A847D4F89800002808BF47F0020701D00FF0C8F821
:2033FC00F569002130464FF080630A46A84727F0005739E0D53701006C38002015F0BBFC47
:20341C00D4F8B06066B306F1280106C90A234FF0E0450B40154008BF002B21D106F1280177
:20343C0091E8000306F1280595E8060006F1280322EA090221EA080183E8060016F0E2F8AF
:20345C00B16879B1B9F1000F08BFB8F1000F09D03069B6F93010B5684B464246A84701E06E
:20347C0016F0D0F827F4804727B104F1E000394615F0DDFCBDE8FC87000004601EB6010015
:20349C0051C9000091BC0000F97A0100CC210840E00100102DE9F84FDFF85854A9780024EA
:2034BC00FF2904BF002013F0BDFDA87815F01CF8054605F1680605F5C9773168086805F107
:2034DC00900808B1EC8311E0B07B002804BFB07E00280BD198F80010002904BF3878002873
:2034FC0004D1287F012804BF688CE8832989E88B4118491C6981284616F080F801281EBF2A
:20351C00DFF8F4030178012903D12989EC83491C69814FF6FF79B07E01280DD1B28B6989B9
:20353C00288916F067F838B1298968894A1C93B298422FD0B08B23E098F8000001280FD172
:20355C00B8F802206989288916F054F840B1298968894A1C93B298421CD0B8F802000FE0E2
:20357C003878012816D17A886989288916F042F880B1298968894A1C93B298420AD0788857
:20359C0092B2904206D04844688180B216F02EF84844E883387801280FD128897988401C92
:2035BC0080B2884209DB7C793C71022038702346A979224600200AF043F805F59A710879D5
:2035DC0020B128890021401CE9836881B07E012813D12989B08B4B1C9BB298420DD16881FE
:2035FC0016F004F8804605F12E008188308C01FB080828460DF000FF03E005F12E01B1F8D7
:20361C000480EA8BDFF8F492501C00FB08F040F6C41808FB00F100912B68D3F80CE0714443
:20363C00D960B74B196809788909032940F0168199F80F30B349DB0740F10081B5F812C0CD
:20365C0000230CFB00FC4FF4C87EBCFBFEFC0CF1010C0B80A861C5F814C085F820204FF0C3
:20367C001C0BDFF8A4A2AB79DAF8000000F108021BFB03F3D1582A68116100F10801AB79A2
:20369C00D26868691BFB03F3121ACA50DAF80000AB7900F108021BFB03F3D1582A68916008
:2036BC0000F10C02A9791BFB01F10C30535C03F0F00343F002034354DAF80010AB798A1C79
:2036DC001BFB03F30021D152387908B913F0AAFCDAF80000AA7900F1100138791BFB02F2B1
:2036FC0040088854A879DAF800101BFB00F00844002141743879042814D1A879DAF800109A
:20371C001BFB00F001F110021031135C3A7A43EA82030B54AA79DAF800001BFB02F20244C9
:20373C0020205074DAF80010A87901F112021BFB00F0002111527549A8790A6802F114037B
:20375C004FEA401C143253F80C00AB79D5F814C05B0100EB4C00D050B07E02280DD10A68FB
:20377C00AE7902F11403760114329859AB7995F82E605B0118FB0600D05005F12E0299F8C3
:20379C000F00C30773D5DAF80000AE7900F108041BFB06F60830A359AC791BFB04F4A3F5E5
:2037BC00A8630351DAF80000AE7900F108041BFB06F6A3592C68A36000981B1A2361086832
:2037DC00AE7900F1140476011430A359AC79640103F5F6630351387904280BD10868AE7967
:2037FC0000F1140476011430A359AC79640103F5616303510868AC7900F1140364011859E0
:20381C00C5F83401424B186B0C68AE799288006804EB461742436424B2FBF4F408FB04F088
:20383C00A0F59660F8613B480278012A48D10868A97900EB41120120D07248E00B885B1CE2
:20385C001FFA83FCBCF1010F11BFB5F812C005F59A7EBEF806C00CF2DC5CF2E6698A414395
:20387C004FF4C873B1FBF3FC0CF1010CF2E6042C0BD10868AE7900F1140476011430A359CE
:20389C00AC79640103F56163035138790B68AE7904280CBF4FF4AA504FF4E66003F114045E
:2038BC007601A359181A938808FB03F3A3F516739842A7D30821284613F0F2FC012016E01F
:2038DC00586A0968AA79407801EB4213D872A879DAF800102A681BFB00FB01EB0B005060E6
:2038FC0007210D48017028460EF008FB0020BDE8F28F00BF780E0020D10F0020980C0020E0
:20391C003C0F002078390020980E00209C0E002094B70100CC0F0020C80F00202DE9FE4F1E
:20393C000546DFF82404DFF824640278002A4CD0052A73D0062A00F08080072A18BF082A36
:20395C0000F0F7800A2A00F0D381112A02D0132A70D0F1E1DFF8F8331878002115F0B2FEA8
:20397C0004001EBF606D407810F00C0F2DD0216DC0064CBF886CC86E0622016801F1080594
:20399C00A91C684614F00AFE287800F00F0105291BD145096946C0F3801015F023FE002844
:2039BC0013D03168684615F019FE0746316804F1380015F013FE87420DD0606D4178C80682
:2039DC0004D440F2014015F005FEBBE1607B40F002006073B6E133681E2010FB07F69819D3
:2039FC0006226946C01D14F0D9FD606D4178C806F0D5A17B0129EDD1DFF858038178480687
:203A1C0005D5E90703D4206D41F20A4102E0206D41F2044141804183418693E115F0DFF95A
:203A3C000028FAD10EF032FA012802D0012015F0CDFD87E10EF011F984E1DFF81C532868B7
:203A5C0015F0C0FD0400F7D020790328F4D1207A00F00F01072937D1C04800684169497A85
:203A7C004A1E11425ED0617A04F10A035A5C02F03F02252A56DBA17A8A09012A52D111F0FE
:203A9C003F0F4FD0007C14F02FFDE17ACA074CBF04F1110204F10B028B0748BF921D0B0756
:203ABC0048BF921CC90648BFD21C1621127852094A43AB498B180A31EB608A5A42869989DD
:203ADC008186DA89C2862DE000F00F00082829D1A17A880926D129B3A0480168087C14F08A
:203AFC0003FDE17A074688071CD5062201F001015143601800F10C01684614F04FFD207AC5
:203B1C00C009FF280ED0694615F06CFD50B1306800F10D01684615F051FD18B90521384690
:203B3C0013F0BEFB2079032802D0002013F07AFAFEE0DFF830B29BF802000024FF281BD01E
:203B5C0014F0D2FC804608F16C09D9F8040015F039FD2A460179032901D011000CD0836874
:203B7C00197801F003008D06009003D50124009818B9BAE01000FAD0E4E05D7803F1020A0E
:203B9C0034B31AF8010B784B01902C2098F806C01F6810FB0CFC67444FF0010E87F805E017
:203BBC00002A1F6898F806E007F11A0C019F10FB0EFE07F01F070CF80E7098F806701B68C5
:203BDC0010FB07F01844019BC3F38113C3761AD10098032808F217171AD0ADB199F800009D
:203BFC0068B108F1F4000278012A0DD1564B1A78072A04D0082A04BFC078012804D13D215F
:203C1C007970012038709DE0584A1378012BFAD098F8940070B32D1FEDB253462A46404675
:203C3C000DF0AEFA00281EBF51490878002807D13D21797001203870306815F0BBFC81E0DF
:203C5C004C4801688847064698F80610DBF804204FF4D07041435018002280F8412108F52B
:203C7C009E700168807949080DF0AEFD42490A68304690470098032819D040484169097816
:203C9C008A0708D541690878C1074CBFE81C28461AF8000000E0812089F808002A46009807
:203CBC00C3B29BF80200514605F0B2FC1DE09AF800001CB11B2804BF022D01251C2803D2D4
:203CDC002F490B5C9D4205D0B8700721404615F0DDFC0AE01C48017808295146404602D199
:203CFC0015F045F801E000F075FAD9F8040020E0244C207830B3244D286815F063FC08B346
:203D1C00017903291ED1017A8A0611D5807AE178C0F38112914202BF217900F01F00814268
:203D3C0006D1A078002801BF607800280121A170286815F03BFC05E0002013F073F9862077
:203D5C0015F0BCFCBDE8F78FC80F0020680F0020D50F0020C00C0020BC0A0020540F002078
:203D7C00E0070020780E002000390020D20F00208B390020AC1D0020B01D002094B701001A
:203D9C002CB80100A4380020AC0C00202DE9F04F0F46380589B018D5DFF8E4532888FF285C
:203DBC000ED0C0B214F0A0FB040009D0A079162115F0F8FB204614F08DFB204615F0EEFB8D
:203DDC00FF20288087F40060D6E1F80504D50EF08AFA87F48070CFE1B80604D512F081FBE6
:203DFC0087F02000C8E1F8070CD514F049FD30B100218160DFF88C03006800B1804787F09D
:203E1C000100B9E1380704D512F0D9FD87F00800B2E1F8060FD50021002200230691059273
:203E3C0004910393029101920091022015F0B2FB87F01000A0E1B8070FD50021002306912A
:203E5C0005910491039302910191009101223C2015F0A0FB87F002008EE179074FF01E08E3
:203E7C00C94EDFF828A340F1CD80C9480022002108920791007815F025FC0446C54881787B
:203E9C00FF2904BF002013F0CDF8A07A14F02CFB05469AF8000095F82E91002805F5947B94
:203EBC0069D0606D807A022818BF032807D130680D3015F06BFB10B93068C11D079159462C
:203EDC00484615F08FFBA0B3606D807C3368002818BF012804D11946584615F07FFB04E095
:203EFC005A464946184615F015FCFF2843D018FB00F83068404406225946C01D14F04EFBB1
:203F1C00306810F80810404400F1010BC01D41F0020908900622616DC87A00F0010085F8F5
:203F3C002E01606D00F10C0105F5947014F036FB21E05946484615F025FBE0B130685A461C
:203F5C00494615F0E7FBFF2815D018FB00F8306840440D3015F01AFB58B9306840440D30DB
:203F7C0015F014FB002801BF30684044417F012901D149F0020905F12C004B46017806914A
:203F9C004289120905920122698C0491C0880899029140080390CDF800B0079801900020BF
:203FBC00A97915F0F7FAD5F89C017B498842A8790CBF0021012115F0E1FA7848AB79026878
:203FDC002C214B43134401221A73AB7904684B4323445A73AB7904684B4323449A73AB79DB
:203FFC0004684B432344DA73AB79006811FB03F10144002008740720A9790CF0C2FB87F011
:20401C000400B9E038060FD500210023069105910491039302910191009101223B2015F0F0
:20403C00B9FA87F08000A7E0F8045DD55C4930680C680D3015F0AAFA002844D13068C11DBB
:20405C000D3015F097FA3EE0606D4178480704F13E0526D5287802281EBF03286878012870
:20407C0030D16978306804F1380215F053FB8146B9F1FF0F15D0306818FB09F948440D304E
:20409C0015F084FA68B930684844C11D0D3015F071FA30684844C11D062204F1380014F056
:2040BC007DFA2878022818BF03280BD130680D3015F06CFA30B93068C11D062204F13000D9
:2040DC0014F06CFA2468002CBED13648DAF8042000784FF4805111F03FF910B18E2015F066
:2040FC0045FA87F4805047E0B80505D514F0D0FC2D4901200860FEE7780504D514F085F9D0
:20411C0087F4806038E0780405D5812015F02EFA87F4804030E0B9042DD5244C206810B129
:20413C00002012F07FFF4FF0FF3020600020204C0DF00EFB216851F8202F684690471D4937
:20415C004A6B086BC96A24681B4B019200900293ADF810106B46194A19491A4803921A4AA8
:20417C0007922568194AA8471949086003F07CFC87F4005000E0002009B0BDE8F08F00BF0F
:20419C005E240020480F0020680F0020880E0020D70F0020780E00204DE501100039002055
:2041BC004C0F0020C70F00207C052043380F0020200F0020541F00207D8801008D88010029
:2041DC0070240020A02E00201EFB0080EC0A00201C0F00202DE9F043044685B0084611F808
:2041FC0001CBDFF8A883DFF8A8332C22BCF1030F4FF0000904F5A47704F1660504F1F4066B
:20421C0000F0C380BCF1070F00F08381BCF10F0F0CD0BCF1110F00F02781BCF11A0F00F0C6
:20423C003981BCF11B0F00F0648191E1707A820703D40F2184F8191159E008784A7800EB04
:20425C0002233B808878CA7800EB02237B8008794A7900EB0223BB808879CA7900EB022332
:20427C00FB80087A38724A7A887A02EB00237B81C87A0A7B00EB0223BB81487B8A7B00EBE3
:20429C000223FB81C87B0A7C00EB02233B82487C8A7C00EB02237B82C87C0A7D00EB022319
:2042BC00BB82487D897D00EB0122BA48FA8201788A0658BF4FF01A0913D504F5AA7004903D
:2042DC0079890391387A029021890191F8880090BB887A883988204615F044F9C8B14FF036
:2042FC001E09707A410706D40F2084F81901204615F034F9F3E04A460F21204615F02AF9F1
:20431C00F8880090BB887A88A17948460FF0F6FEECE004F1860079888180BA88C2800222A0
:20433C00F98801810270A0F80290A18EC91DE983628E8188B1EB520F02BFC188A28E91423E
:20435C0002BF0089E18EB0EB111F1CD0287C012804BF687C0F2809D0687D00281CBF687C81
:20437C001A2803D00F21A976FE2179E0FC21204615F08CF9F8880090BB887A883988A07909
:20439C0015F0E4F8B2E010216AE0707AC20709D431781A200129707002D1FF220D213BE059
:2043BC000D215DE085F8009085F8069001233371082204F1B00015F0C5F80146022204F19D
:2043DC00B80015F0BFF804F1A80801460822404615F0B8F807460821404615F0AFF804F15F
:2043FC009C0804223946404615F0ACF80421404615F0A4F804F1A00015F09CF804F1980022
:20441C0015F094F86448018841F0800101803078012805D1FF220421204615F083F865E06F
:20443C006E7C0F2E18BF142E07D00E2E18BF0C2E03D01A2E18BF162E11D12F7C204615F0CE
:20445C006DF80421204615F021F9012F05D11A2EAE7614BFFD21FB2102E0314600E0042154
:20447C00204615F013F941E00E783E761A2E497879766DD11868A679411C564301F80690F4
:20449C001968A37912FB03F20A4482F80490A179787E56E0A77918680E785743074406F0BE
:2044BC001F0117F8210FB60938B17878F040C00703D594F89601042805D120221A21204612
:2044DC0015F048F812E0F970A179186812FB01F28118204681F82360002114F082FC28B907
:2044FC0098F800004FF4804109F076F94FF0010932E0A179186851430144C88808B981F84C
:20451C000190A179186812FB01F2811881F80490ECE709780F2917D01A2919D1A179186874
:20453C00514301441A2081F80190A1791B6812FB01F2991881F80490F17A01F0FB01F1722C
:20455C00A17907F096FBD1E7717A01F0FD0171720146204614F0DEFF687C1A2812D1A87C6D
:20457C0017281CBF1028FC280CD12E7C204614F0D5FF012E03BF1A20A876FB211A212046DE
:20459C0015F084F8484605B0BDE8F083C70F002000390020200E00209C0F00202DE9F84F5E
:2045BC000422FF21684614F003F8DFF88C63B0780024FF2800F0BE8113F096FF0546B07879
:2045DC0014F036F9064605F217100178012908BF417800F0008105F1740005F5927A817B22
:2045FC00022904BF05F174018C7395F89201022805F1740008BF85F89241017F022904BF0E
:20461C0005F174010C77BAF80E1019B19AF80C0009F0E2F86889C94F288105F58D7BBA7A9D
:20463C00F879397B80184118F87A0818797B00EB0109BBF80400BBF80010401CABF8040050
:20465C004944BBF80200ABF800101018ABF80200DAF80000F0B1BA4995F806E00B681C21E3
:20467C0003F10E0C11FB0EFE0E331CF80E1030F811C0CC4420F811C01C2195F806C011FBF7
:20469C000CFC13F80C3000EB4300B0F84A105218A0F84A2012F054FAF879002804BFF87AF5
:2046BC00002805D1387B002804BF787B002840D0F481A046F07EC00910D0307F00F00701FE
:2046DC00022907DA00F0F802401C00F007001043307703E0A879002110F0AAFB2989E8898E
:2046FC002C744118287FA981012804BF688CE883A979012207200CF044F8787805F1740685
:20471C0058B101212977B078002804BFB07B002803D1307F08B9688CE8839AF814000028DB
:20473C0062D0022804BFF87A002858D18AF814405AE0A979002207200CF023F8EC83317FCA
:20475C0011F0070F02D1F07EC00903D0A879002110F06EFBB87A38B1287F01284FF001086B
:20477C0027D1688CE88324E0BBF80600401CABF806004FF00208287CD8B172490868AB793F
:20479C0095F82E6000F1140268694FEA400C40F6C4105B0110FB06CC0CF5F660D05009685A
:2047BC00A87901EB4010C17C01F0F00141F00401C174A8892989814206D088429DD2081A1F
:2047DC0041F2AB02904298DA287C08B1052901D0082100E03E21284612F062FDAAE0787A8A
:2047FC0010B102218AF81410F87BC1070DD538692968C86000F59070C86052480168A8795B
:20481C0001F114024001145014E04E48AB79026802F114015B01C858CAF810004848AB79AD
:20483C0001681C2001F108024343D0582968C860EC832C77444A50690078810702D5B87BF1
:20485C00802800D181203070404991F8200018B12946012014F0B9FA284609F051FF02285F
:20487C001BD1F079022805DB6A46394928460EF0E3FC0446284614F049FE01285AD02000CA
:20489C000DD02246694628460FF02EF938B9284609F036FF012802D14CE001284AD001215A
:2048BC00284614F02FFEFEF7F5FD012842D028460EF031FC00F0CAFB264F3868002839D087
:2048DC00B888AA7990421CBF4FF6FD71884231D12148007B14F014F804002BD084F800803E
:2048FC00A8791E4960800A68A879115C217105F5C9721079607196F90010A171A4F808902E
:20491C00BBF80200608113F0BBFF050005D1FF204FF0FF312073216109E02878207314F08A
:20493C00EDFD0146A86814F0E5FD80082061204639688847BDE8F18F780E0020980C0020C6
:20495C00980E00209C0E002094B701009836002064230020800E00208024002018390020E7
:20497C002DE9F041FF2806462AD114F0C7F810F01F0F22D0042011F065FC08B1042016E02A
:20499C00012011F05FFC08B1012010E0022011F059FC08B102200AE0102011F053FC08B13E
:2049BC00102004E0082011F04DFC20B10820BDE8F04111F0B5BE12F035FB0020BDE8F081AA
:2049DC0011F0AEFE8046012ED8F8044046F2A81740F6C4100BD0022E5DD0042E00F0AB807F
:2049FC00082E00F0F380102E00F04281E5E7DFF8000301688F88102011F024FCE8B11020D1
:204A1C0011F08EFE05466E6846B9022011F01AFC20B1022011F084FE05466E68012011F0DB
:204A3C0011FC40B1B068A0EB8701A06812F0F6FF08B94046C2E72846C0E7022011F002FC0C
:204A5C0090B1022011F06CFE06460120756811F0F9FB38B1A868A0EB8701A06812F0DEFF3A
:204A7C000028E6D03046A9E7042011F0EBFB08B10420E7E7082011F0E5FB30B1082011F06D
:204A9C004FFE4168002999D1D3E7012011F0DAFB002893D0CDE797490A689749D3690A7891
:204ABC0002EB82029E18F7884743042011F0CAFB07F5166788B1042011F032FE064602204B
:204ADC00756811F0BFFB0028CCD0A868C11BA06812F0A4FF0028C5D1ABE7082011F0B2FB9F
:204AFC00D8B1082011F01CFE05466E6846B9012011F0A8FB20B1012011F012FE05466E68C5
:204B1C00022011F09FFB002895D0B068C11BA06812F084FF00288ED18BE7012011F092FB06
:204B3C0008B10120C8E7102011F08CFB08B11020A5E70220AAE771490A68714953690A78CC
:204B5C0003EB0216B7894743082011F07BFB07F5166780B1082011F0E3FD05466E6846B9F7
:204B7C00012011F06FFB20B1012011F0D9FD05466E680420C5E7012011F064FB28B1012058
:204B9C0011F0CEFD064604209AE7102011F05AFB80B1102011F0C4FD05466E6846B9022051
:204BBC0011F050FB20B1022011F0BAFD05466E680420A6E7022011F045FB28B1022011F0B1
:204BDC00AFFD064604207BE704205FE714F0FFF808B1D0F89070042011F034FB58B10420D4
:204BFC0011F09EFD06460820756811F02BFB002818BF002C68E7012011F024FB60B1012098
:204C1C0011F08EFD0646082011F01CFB002818BF002C3FF427AF0CE7102011F013FBA8B1A1
:204C3C00102011F07DFD05466E6846B9022011F009FB20B1022011F073FD05466E680820B9
:204C5C0011F000FB002818BF002C5DE7022011F0F9FA58B1022011F063FD064608207568DA
:204C7C0011F0F0FA002818BF002C2DE708200DE7032014F0AEF808B1D0F89870022011F059
:204C9C00E1FA50B1022011F04BFD0646102011F0D9FA002818BF002CBBE7042011F0D2FAA3
:204CBC0028B1042011F03CFD0646102008E7082011F0C8FA80B1082011F032FD05466E68A1
:204CDC0046B9012011F0BEFA20B1012011F028FD05466E68102014E7012011F0B3FA28B1D3
:204CFC00012011F01DFD06461020E9E61020CDE614390020500F0020D80F0020540F0020B8
:204D1C00D90F00202DE9F84F054605F14C0AE87D9AF80010DAF8047081424FF00008C0F074
:204D3C00938105F1280407F1900907F17306C34640F08C80A87F7075E97FB175DAF8082046
:204D5C005278930710D5EA7FD30604D5C01E707501F0EF01B175C7F874B086F80080002206
:204D7C00B17D01F0FE016AE1910608D4E08B00B1E07E3076E08B00B1206AC9F80000DAF8E2
:204D9C0008004178CA070DD5E08B00281CBF206A002807D0C9F80000A17EE08B814238BF87
:204DBC0008463076E87FC1060CD5B86B217800EB8100B863B86BA98CA63100EB8100786717
:204DDC00022002E0C7F874B000203070DAF80800417811F0030F22D1007813F0FCFF5FEAB8
:204DFC0000081CD098F8B000032809D1E87F810615D440F02000E877B07D40F020000DE06E
:204E1C0068B9E87F81060AD500F0DF00E877707DA0F112017175B07D00F0DF00B075E97F5A
:204E3C00002201F0FC01284608F088F9B8F1000F36D0E87F810633D598F8B00002282FD141
:204E5C0041462846BDE8F44F13F0CFBFE87F81060AD500F0DF00E877707DA0F11201717556
:204E7C00B07D00F0DF00B075DAF808004178C80717D5B07D717D00F0F700891E01F03F01CD
:204E9C0082075CBF891D40F00200420644BF491E00F0BF00B0757175C9F800B086F8188087
:204EBC00D2E09AF80020E87D121AD2B28907009240F18280012A07F140083FD1B86BA98C35
:204EDC0000EB8100B863A87F00F03F00A8777075E97FB175DAF8082053785A0703D5801FAA
:204EFC00707501F0FD01B1750023707DE17E00F03F00421898F80000521CC0F3800192B22E
:204F1C0000F0030014F08AFB00F59B70A8841E21A88C90FBF1F18AB2B17D01F0FE01284625
:204F3C0008F00CF986F800B0E08B00B1E07E3076E08B00B1206AC9F8000085E0B86BA98CE6
:204F5C00022A00EB8100B86326D1E87FC10706D5707D811F7175B07D00F0FE00B0750023AB
:204F7C00707DE17E00F03F00421898F80000521CC0F3800192B200F0030014F04FFB00F594
:204F9C009B70A8840022B17D01F0FE01284608F0D5F8607FA8F81A00617F0098491C081AB3
:204FBC00C0B201281CDDB96BAA8CA63201EB820179670221317014E0B86BA98C00EB810044
:204FDC00B863617F0098081AE97FCA06C0B207D5B96BAA8CA63201EB820179670221317035
:204FFC0090B395F81F80A97FD9F80020E37E1A44C9F8002028F00108DAF80820527853072E
:20501C0048BF28F00208920748BF28F00808012807D1207F3076C7F874B028F0100886F8AC
:20503C0000B001F0C004404614F0FCFA00F03F002043707586F81680002208F0FC0128465F
:20505C00BDE8F84F08F07AB8BDE8F18F2DE9FE4FDFF818536F681FB9BDE8F74F14F046BAB6
:20507C003878DFF80CB3C34EDFF80C83012818BF02280AD004281CBF0828102805D04028A7
:20509C0018BF802800F0A78069E113F03DFD0028FAD0012011F0D6F820B1012011F040FBC7
:2050BC0011F07CF8082011F0CDF820B1082011F037FB11F073F83878FFF752FC814698F88E
:2050DC000100D9F80440002850D004F015FE13F00BFA8246DAF80000009047689AF80600D6
:2050FC0088F80300BCB10099484613F0ACFE022811D099F80010012902D0082965D02EE1B3
:20511C0028B914F0FBF900F5E8504C30A0600120A87011215CE00098017880290BD108208C
:20513C00964930700A787869012A1ABFDBF824100978012114E0072030709AF8060013F06D
:20515C0077FB0446207BC10748BF9AF8060067D48A480178786901291CBFDBF82410497841
:20517C00C1729AF8060088F80200BFE0B9F1000F11D099F800004F4509D1012818BF08285E
:20519C0001D134BBF0E0002011F04CFF21E0012802D0082817D0E2E0002CF3D014F0AEF987
:2051BC000146A06801F5C241A83112F037FC28B914F0A4F900F5E8504C30A0601120307081
:2051DC000121A97005E0002CDCD00820A870122131704846BFE098F80100002800F08880C9
:2051FC0004F08AFD13F080F98146D9F800000090D0F804A098F8020013F076F9019099F8E2
:20521C00060088F803003978402913D199F8060013F00EFB0446207BC1070BD599F8060024
:20523C0013F062F9052112F03BF8207B00F0FE00207399E013F062FC10F01F0F32D0012052
:20525C0011F000F820B1012011F06AFA10F0A6FF082010F0F7FF20B1082011F061FA10F0CA
:20527C009DFFA878FFF77CFB07467C68D4B1009913F0E9FD022815D03978012902D00829C4
:20529C000BD00CE028B914F039F900F5E8504C30A06011203070012156E0082057E00020C3
:2052BC0011F0C0FE0198484520D0009933480A78802A0BD10821317000780128DAF8140090
:2052DC001ABFDBF82410097801210AE00722327000780128DAF814000EBF0121DBF82410FD
:2052FC004978C17299F8060088F80200009832E013F004FC10F01F0F36D0012010F0A2FFE2
:20531C0020B1012011F00CFA10F048FF082010F099FF20B1082011F003FA10F03FFFA8781C
:20533C00FFF71EFB074638787C68012802D008280CD019E0C4B114F0E1F800F5E8504C3066
:20535C00A060012111203070A97003E064B1A870122131703846BDE8FE4F07F07FB9BDE8FD
:20537C00FE4F002011F05EBEBDE8F78FBC38002094B70100C80F0020780E0020CC0F002064
:20539C002DE9F84F05004ED0DFF8E48298F80000092818BF0A2804D00B281CBF0C280D281F
:2053BC0001D1212062E1A878002114F08BF9040008BF4220F6D0AF4FA978DFF8BCA23970C2
:2053DC0098F8000010B9A8788AF8000004F14806F068417801F01201022902BF7069002871
:2053FC000C2012D0607AF0B1A07B012804D1B5F8030008B1812816DA6878402813DA204652
:20541C0014F070F8B06808B907202FE1B561287801281FD1A07B00281CBF0128042819D1C8
:20543C009648007808B9122020E195494A78824208BF0920F8D0F068417848070AD504F1B6
:20545C00220180204A7F04F1380105F0B7FF08B10B200BE1687808B9112007E12878DFF8CA
:20547C002492DFF824B2012840F0AF8000212173F166217A012903D1B16968794871F4E0F8
:20549C00012000212072E1726173254609F020F86060DBF8000080477C4A0146106802E0B8
:2054BC006A68426000680028FAD10846D9F8001088476968764848610021387813F07DFC7E
:2054DC003978012211200BF05CF9F0684178C80605D5284600F080FE010024D0C6E0688C37
:2054FC000EF060FE85F82100F068007813F073FC04001CBF94F8B000002807D0E87F40F0A3
:20551C002000E877687D40F018006875284613F09CFC0100E2D134B194F8B000012804BF1C
:20553C00284613F060FCF0684178C8071CD505F14204A18800291CBF3068002814D022780A
:20555C008A4211D20F2013F0C9FF68B1F06801788DF800100F20A288ADF8012021788DF8CA
:20557C000310694613F0B6FF98F80000A0B94949087800281EBFF068417811F0030F03D09E
:20559C004548006813F0A2FF112088F8000001212972FFF75BFD68E0284611F08DF8002836
:2055BC001CBFB168002960D0AA7B012A04D02A69808802EB800202E0486E2A69821895F802
:2055DC00B810104609F018FC4FE0207A00284CD0DBF80010884705463878012113F0EDFBBD
:2055FC0000202E4920720A683E7811460B68187A002802BF586D0378B3421FD0C9689142D1
:20561C00F4D138789AF80010884224D113F038F9616888421FD111F093FA40F2014013F0DD
:20563C00D9FF1F491F4A204808600121107808F0D3F8D9F800102846884716E01B4E307843
:20565C000128DEDD084610F08DFD13F051F93078411E3170D5E7204613F034FFD9F8001044
:20567C0028468847204610F069FB0020BDE8F28FC80F0020D60F0020D50F0020D40F0020BE
:20569C00780E0020B01D0020AC1D00204C0F0020CD830000880E00206C0F002014390020E9
:2056BC00480F0020C70F002051900000883900202DE9F043A24CA349A34E20700A220020AF
:2056DC0008600D23A14840F2232102704380818085B09F4A9F48106037789F480770FF2FD1
:2056FC007178417008BFFF29B2788270F378C370357905717679467114D1FF2A08BFFF2B82
:20571C0010D1FF2D08BFFF2E0CD194490A7802704B7843708A788270CB78C3700A790271E8
:20573C00497941718E4902788E4D8F4E8F4F0A7043784B7082788A70C378CB7002790A71A2
:20575C0040798B4A4871FF2028706870A870E87028716871002087490880F06B864940781B
:20577C0008708649F06B007808701388844885490380F06BC06C08608349F06B90F83C00E9
:20579C0008708249F06B90F83D0008708049F06B90F860000870F06B406901797D484A1EE3
:2057BC000270F06B7C49C0783870F06B8069086008B911F037FCF06B7849C069086008B94C
:2057DC0011F030FCF06B416D75480C2212F0E6FE13F074FEF06B7349006A086008B911F086
:2057FC0021FCF06BDFF8C081406AC8F8000008B911F018FCF06B6D49806A086008B911F098
:20581C0011FCF06B6A49C06D002840D001220A75F06BC06D02681378C3F3400048B1F06B83
:20583C00C06D02681378C3F3C00000280CBF01200220487500208860C8600861F06BC06DA0
:20585C00426890780870F06BC06D4268D0784870F06BC06D426813788B70F06BC06D4268E6
:20587C005078C870F06BC06D426810790871F06BC06D426850794871F06BC06D42689079E9
:20589C008871F06BC06D4268D079C87101E000220A7501F08BFA07280AD105F01FFE207893
:2058BC004FF4804107F098FF002011F0BBFB43E040480168884781460CF0C8FBD8F800002A
:2058DC0001688847684612F091FED8F8002004208DF80000694652F8043F002098473649E2
:2058FC0008600EF0F3FEF068344A01883878344B014311804846196888470C21314813F04B
:20591C007AFA284613F0D6FD13F0D0FD2E4800214FF6FF7201608280F06B90F858102B4875
:20593C00006812F07DFF0121FF2013F046FA20784FF4005107F050FF05B0BDE8F08300BFE3
:20595C00C70F0020380F0020D04F0050700E00203C0F0020B63F0050400E0020E812005059
:20597C00500E0020480E002094B70100C40F0020F22400209E0F0020C60F0020D40F0020DD
:20599C007639002008390020893900208A39002087390020CB0F0020200F0020240F00207A
:2059BC00B0380020280F00202C0F0020300F00203C380020AC1D00200C390020A00F002001
:2059DC00B01D0020FC0D0020800E0020203900202DE9FE4F01200190A24EA348A34F027812
:2059FC00112A02D0122A0DD036E1A14C2078002113F068FE9F490546087810B100220A702F
:205A1C00F2E0002D00F01B819B48DFF87082DFF8709238600122217811200AF0B2FE286D96
:205A3C00696D009141F60802009B96495C78E30640F1DC80044641F20443B4F802C09C45CB
:205A5C001FBFB4F81AE09E45B4F832C09C454FF4A05A1CD095F80EC0BCF1010F04BFB5F893
:205A7C009EE09E4513D0B4F802E041F20A439E451FBFB4F81AB09B45B4F832E09E4506D02A
:205A9C00BCF1010F04BFB5F89EC09C4503D13380C7F800803DE0002340F2FE3B4FF0180CAA
:205ABC000CFB03FCA444BCF802E0A6F800E0BEF1010FF3D0BEF1000F55D0AEF1020EBEF105
:205ADC00010F50D9BEEB0B0E1AD04FF48063BEEB030359D04FF4406BB3EB0B0343D09B1E61
:205AFC00012B40D91B1F3ED040F2FA3BB3EB0B036FD05B1E61D0D81E46D0001F44D06DE075
:205B1C00B4F800C040F6010EF4452CD15B1C022BC4DD3868404525D1A06C0168A06C026837
:205B3C0010790831032804BF94F86C00012811D1D1F80E0000281CBF088B00280AD091F89E
:205B5C00220010F0E00F05D101F11E0013F0AAFC012870D0A6F800A0C7F80090A06C01681E
:205B7C000020087167E0A87B01281CBF0428A6F800A0C7F80090087D0028CAD08868401CB6
:205B9C00002288600A82C4E7A87B012806BF41F20243ACF80230ACF802A03088904215D193
:205BBC00CA68088A4D8A521CCA60401C82B2AA4238BF2A464A82088208E000994A78D10643
:205BDC004CBF816CC16E086800210171C7F800909FE7002011F026FA832003E0002011F0C2
:205BFC0021FA842013F06AFD012038E0438E41F204455C1B1CD0A41F1AD03380408890427D
:205C1C000CD1CA68088A4C8A521CCA60401C82B2A24238BF22464A82088206E0087D20B1F4
:205C3C008868401C002288600A8241F20643C846C7F80080338001211348007809E013F009
:205C5C00C6F858B1C08811490F4A308039600121107807F0C1FD01E0002001900198BDE8EE
:205C7C00FE8F00BF9A0F0020C80F0020480F0020D50F00208C390020756B02108918000009
:205C9C00519000003C380020C70F00201B130100F8B5144600254FF48067DFF89862C21B4A
:205CBC0084B006F18C0334D0921E39D0521E47D0521E52D0521E58D0521E5CD0521E00F0A4
:205CDC008280921E00F08480D21E00F0B480521E00F0BF80921E00F0C880521E00F0838004
:205CFC00521E00F0C980521E00F0D780521E00F0DA80521E46D0521E5ED0521E53D0921E07
:205D1C0000F0E580921E00F0E980521E00F0F48003E1012915D12078022822DC707006E1BA
:205D3C0001290ED1207802281BDA012804BFF178032900F0FB800028B070F0D17574E7E0E2
:205D5C00012940F0E880207805280ADA0328F0700AD10020B0707074DAE001296CD1207879
:205D7C00022880F2D8807073E1E0102964D110222146714814E001295ED12078022863DA63
:205D9C003071D4E0012957D1207802285CDA00287071F6D00120B074602206F12C01184630
:205DBC0012F0FCFBC3E00129FCD12078022802DAB07112F06DFDBAE001293DD12078022875
:205DDC0042DAF072B3E0012936D12078B073AEE0002931D113F03EFC10B9FBF7D2F91DE031
:205DFC0001207075A3E0072926D10622611C02A812F0A6F900950023217801AA02A808F049
:205E1C0037FDB0B9F07A10B913F024FC10B1F07A012808D19DF80400FBF7C4F90546502043
:205E3C0011F0ACFE1EE0716A9DF80420012088547DE034257BE001296DD1317C2078022923
:205E5C0003D0C11F0A2902D365E0102863D1F0736DE001295FD1317D20783075002908BFD5
:205E7C00012864D1FBF71AF961E0012953D12078032850DCF0745AE001294CD1207802287E
:205E9C0049DC002847D03074022803BF1020F0730120002013F002FB49E001293BD1207827
:205EBC0011F088FF43E07079002834D1602908D1002C30D060222146184612F06FFB0120A3
:205EDC0003E0012927D134B32078B0742FE0012921D104B320781949087028E0D9B913F00D
:205EFC00B9FB30B9FBF7F3F90546502011F046FE1DE00120B0751AE001290CD12178022903
:205F1C0009DA012904BFB07800280FD07174084612F0C6FC0BE0182509E00F2806DA02291C
:205F3C0004D121880FF01EFB054600E00225284605B0F0BD001C0020EC3600208F39002027
:205F5C002DE9F04FDFF84C9204460D460020ADF1440D01461F460D9016460E9183460F91C2
:205F7C00D9F808A0CDF840B00BF08AF8262803D00BF086F8252825D1308843F607018142C1
:205F9C000ED040F60201814206D0B0F5C15F19D1F07B022816DD43E0F07B022812DD3FE038
:205FBC0096F8240002280DDD307C0F2838D13169C1F31421B1F5803F04D00F2830D1B1F579
:205FDC00A02F2DD1002D2BD056B328784FF0010808FA00F01AEA000F22D03046594612F0B1
:205FFC0008FF65606C4DA660A86980B110A800900DA90EAA0FAB304606F03CF90E980B21D5
:20601C004FF6FF72502311F00FF9FF2808D012F0B2FE82462878022804DB504613F0F2FA8B
:20603C005C46B3E000286DD103F03CFA5B495C4E086840F00200086009A8C9F8006012F054
:20605C0067FC584E5849707809AA0B9005F1E0000EF0A4F9554905F58E7009AA0EF09EF9F5
:20607C0009A812F0ADFB192109AB3078504A0A9005F160000FF014FD4E4A05F17C001A2134
:20609C0009AB0FF00DFD4C495A4605F5AC7013460FF0E8F949495A4605F5CE7013460FF0E1
:2060BC00E1F947480068C0F3814030B1454A05F1340004215B4611F007F9B078012802D1FA
:2060DC000E2008F079FB05F1A00012F0EFF905F1980012F0EBF9594685F8241085F8301009
:2060FC00072085F84002A960E962374B1970E960052685F83110354A2E610420AA6211F0CE
:20611C009BFA287805EB8001401CC1F8B840C0B22870504613F076FA1FB901A812F00CFA14
:20613C0001AF38684FF4FA76E6602060B8694146A062388A61766083F86920637868002868
:20615C000CBF40F6C410594620616061204E266266622176E661F86800B12062786900B1AC
:20617C006062B86800B1E061C82204F1380059460BF03DFA04F15000594610F027FF1549DF
:20619C005A4604F1B80013460FF06CF9204611B0BDE8F08FCC210840E00F002000200940E1
:2061BC00110000E01CB601002D81010029D70000D53701004D2B0100D97A0100417E0100B6
:2061DC00B44F0050D94A01009439002051C90000876E0100358D01002DE9F84F04460020A5
:2061FC0000900CB910F01EFF04F1500569462E68204607F0E9FC08B9072015E1A04641F249
:20621C008839DFF828B2DFF828A2002469684A7A1820604301233718A3401A420AD098F89F
:20623C000E103AF81100388000211BF80420BA73F97302E040F6010038800021798007F155
:20625C0018007860387B00F0EF00387340F08000387398F80E10012916D1397B002C0CBF30
:20627C000220052001F0F0010843387324B913F045F900F57A6000E04846B860787B00F08D
:20629C00F00040F0020017E0002C0CBF0221002100F0F0000843387324B913F02FF900F5BB
:2062BC007A6000E00020B860022C797B0CBF0120022001F0F00108437873641C06F14800C9
:2062DC00386106F16801032C79619FDB98F80E000024012808F1A80718D108F19C00706342
:2062FC001822314612F05AF906F118002865C5F85490397801F0F00141F0050139707878DC
:20631C0000F0F00040F00200787000E07463B068C8F8100047480178397413F07BF9B06488
:20633C00454881690978CA07826912784CBF1F210F2193078269127848BF41F020015307C6
:20635C008269107848BF41F04001020706F14C0248BF41F08001117054706968887C00F024
:20637C00030008F13E0150700B7863F3820050704978947061F3C3005070D47040F01000CB
:20639C0050703465746508F13800F06598F80E00012818BF042815D0A86830B1B0F80300DE
:2063BC009070A968D1F805003065E86830B1B0F80300D070E968D1F8050070651F4801686D
:2063DC004868F06508F13000B065D07D00F0EF00D07540F08000D07500F0F00040F00600E2
:2063FC00D0752869B0F8030000280EBF144849F64041484370661349087838B15078117878
:20641C0040F0400001F0FE01507011700E498B78507859064CBF40F0200000F0DF00507054
:20643C00009806F05BFC0020BDE8F28F506E0210F46B02108639002094B701006C0F00200E
:20645C0000204E00880E0020C00C00202DE9F04F0746F88916468A46ADF1440DC01D80B2C3
:20647C0005460CF019F88F4CFF280BD1284604F00DFF854204DD641C207800B905200EE1CF
:20649C00012000E000206178D9B916B1022E18D1B8B1387AFE88BD888DF82C000023009327
:2064BC0009AAADF82A60E18E94F83300ADF82850032305F0E3FC9DF834003874BDF83060DF
:2064DC00BE81BD8955B3FE8946B3AD1B4FF000091FFA85F84D463A7C761B202ED4BFB6B2CA
:2064FC002026E06808EB050189B2334601EB423101AA12F0B1FB0AEB050101A8324611F070
:20651C002BF958B9AD19FE89ADB2AE42E3DCB9F1010F1CBF4846B88140F0BA8094F833103A
:20653C00E58EE06801AA04238846490312F094FB019800F0FF007E2806D140467C2110F0DF
:20655C00B7FA019800F0FF007C2840F0A580F88942F20102C11D8EB2A9198A4240F39A803C
:20657C00F9883A7AC1F301238DF83910B98843EA82038DF838308A1007468DF83A20042357
:20659C00C0F3851201F0030142EA81128DF83B2010FB03F1FA1D01F0FC017B1990B28DF8A2
:2065BC003C101FFA83FB0D282BDB50463946002212F07AFA024605210EA812F075FA9DF8CA
:2065DC003C103B4600F03F07524641EAA011B8008DF83C1040F0020096278DF83D0029467F
:2065FC008DF83E7040460EF04BFB074659460EAA0723404667700EF043FB384360704DD1B2
:20661C0035E004F1240051463A4609F0F5FA0EA90A68381900F124094846097902607B1D8F
:20663C000171002204F1240099B212F03DFA9DF83C10962300F03F078DF83E3041EAA0116E
:20665C00B8008DF83C10334640F002000EAF49468DF83D003A68B8790A60BA8888714046DE
:20667C008A8004F1240229460EF00AFB6070E18EAD194FEA8807AAB28919E18607EBC8017A
:20669C000919A1F84C2048B1404659460EF058F9607803E0052000E001206070C0B211B066
:2066BC00BDE8F08FB81F0020F8B58B488B4D01782A788A4200F00E816A68002400E0641C8F
:2066DC008C4280F204814FF4D0736343134418790028F4D1E0B211F007FF01210171002289
:2066FC004271426200F161018471012200F168034A711A71012400221A609A6000F19006D8
:20671C0002814281047480F8392082610277C283327000F592749A76227580271F739A73A3
:20673C000027FF22DF741A7600F20D131F70DF70BC46BE4600F5897783F801C083F802E08E
:20675C00A7F800C0A7F802C087F805E000F1E70386F804C083F800C083F801C000F1EC0385
:20677C00C3F800C0C3F804C083F80AE083F80CC083F808C083F80DC083F80EC083F80FC039
:20679C00A7F808C0A7F80AC0A7F80CC0A7F80EC047F23057A76100F5C676C4F800C022732B
:2067BC00A4F80EC084F81CC084F81DC0A2770127B7720227F77286F80EE086F80CC0484F59
:2067DC00DFF820E13F78777386F806C084F80AC084F804C084F805C084F806C084F807C094
:2067FC0084F808C084F809C000F5B3743E4F84F800C086F800C04FF01B0C3F88E7803B4FB3
:20681C003F882781BEF800706780394F3F88A780A4F80AC04FF4A477E7812782A4F80CC02D
:20683C00E7822783A4F812C0A4F814C06783A783E78327846784A784A6F802C001273771DC
:20685C0000240719641C042C87F87720F9DB294A14780C7057784F7094788C700446D77894
:20687C00CF7012790A710021234A50186718407887F8FD00491C0829F7DB2048306100218C
:20689C001974A07911F0D4FF0646A0790CF023FE1B480178307C717300F0FC0030740022C2
:2068BC00B069F28100F0004040F4853040F04000B061307F00F0F80030772878401C2870C4
:2068DC00C0B2012804BFA079A8702046F2BD002010F0A8FB0020F2BDD40F0020780E0020BD
:2068FC00C50F00208A0F00208C0F0020980F0020960F0020E0380020C00C00204DE5011021
:20691C00DA2500202DE9F0470D4629048F4EDFF8408240F1F1808F4F38780BF0CFFB040000
