:20000000A03A0120D520010039FB021039FB021039FB021039FB021039FB021039FB02104B
:1C00200039FB021039FB021039FB021039FB021039FB021039FB021011FB021002
:20003C006058002090540020FC570020045500200046002078560020685800202857002009
:20005C000C580020985500202C1C0000401F0000B41F00005C1F00004E1F00001C580020FD
:20007C006044002064440020684400206C4400207044002074440020784400207C440020D4
:20009C00804400202C580020CC540020D4570020C455002026170000B41600009817000042
:2000BC000A1800007C180000341E0000841F0000781F0000A7580020545800208C46002005
:2000DC0044570020B845002077580020A058002038550020E8570020A84000208444002029
:2000FC003015000033120000CC1A0000A03E0020301F0000485000209C580020985800204B
:20011C00884400208C44002090580020EC1B0000945700204452002050540020C819000072
:20013C00B04600207858002088580020E01F00003B2000002C440020A84C002084470020B4
:20015C00014A031049480310D54903101547031041D500005D49031081470310A14603103D
:20017C009548031045450310254A031021440310ED47031099490310E148031021490310E7
:20019C005553031089520310CD520310655003108D4E031099D8000025ED0000D10D010050
:2001BC00D571000059510310ED50031051CE0000CD4B03102952031011530310A955031070
:2001DC007555031069530310DD55031035550310F1D7000021540310855C03100D560310BB
:2001FC004D5D0310A9640310B55B03106D570310E5610310095E0310C55803108560031011
:20021C0071610310B16203109963031055630310FD600310B15E031051C80000D55A0310F0
:20023C00D559031009630310D963031019640310555F0310C56403104D6203107164031056
:20025C008D64031055640310E16403102975031079720310A16B0310F57203109D740310EE
:20027C00797403102D74031061730310FD7303105574031015750310D96C0310FD740310EF
:20029C0049990000E17403103D7503107DD00000F9640310CD6803102D710310C174031035
:2002BC00F56E0310B973031029670310056E0310C56F0310D1E60000A1770310797D031012
:2002DC003D7E031049750310157E0310357D031099760310997C0310257B031071780310FF
:2002FC00B57D0310ED7C0310857E03102D790310B97A0310917B0310B1790310ED7B031035
:20031C00E97D0310617E0310357A0310D57E0310457C0310A57E0310BD7E0310F1BC000029
:20033C00D9800310E97E031049830310898403108D8103107D820310E58403102B8403104B
:20035C00C5830310918703106188031045880310F1850310B18803107D880310C9880310CE
:20037C001D870310A186031001850310E188031099880310F987031015CC0000359C0310CF
:20039C00819D0310E99A0310359B0310C19B0310419A0310F18803101D8C0310618F0310EF
:2003BC00F1940310919E0310C19E03103D9E0310699E0310259E0310619D03100D9E031028
:2003DC00819B0310ED93031055990310C9970310D9980310BD950310959C0310C19D03102D
:2003FC00A59E03107D9E0310C9910310E5EA0000699C0310DD9D031095900310FD9B031099
:20041C00CD990310158E0310019D0310E19C0310219D0310419D0310BD9C0310F59D03107D
:20043C00A19D031055980310E1920310999A0310B99E0310559E0310A9440100675F01005E
:20045C0039A20310975A010069A1031075A20310C59E0310B9A10310F9A1031015A1031000
:20047C009DA20310E5690100430B010015C90000C53C010001690100B14E000031A9031039
:20049C00ADA2031075870000B9A8031099A50310B1B7000039A803106DA903102DC10000AA
:2004BC006DAC031099B1031009AF031059B1031001B103109DA9031041F5000029E9000049
:2004DC0067320100ADDD00002575000085260100E5D90000157D00003DB10000CDB60000D5
:2004FC00A5BE0000F1B9031075BA031081BB031051410100F5F90000451901006DC400001E
:20051C00693E010075150100E9490100D91501001941010071550100215E0100E5180100CA
:20053C0049310100AD450100B9290100D1E30000DD61010059020100353301000D62010026
:20055C00AD7A0500597800008173000011860000E9C60310AD680000F9A600008564010097
:20057C00314201004D5F0100C51A0100476B0100815F010071640100FF6B0100051E010065
:20059C0059EF000095EC000001000000000000000000000000000000FFFFFFFF54470020BE
:2005BC000400000000000000000000001400000030FD021018000000102000006406000016
:2005DC002C4700200400000000000000000000002400000018FD0210180000005D63010044
:2005FC00080000005407000018060000C1C8021001BB021091EB0210DDE5021081E0021020
:20061C00B9E5021071E502103400000001000000020000001820000000000000FFFFFFFF3B
:20063C004C47002004000000000000000000000028000000B8FC0210240000001E000000B7
:20065C001800000000000000CC080000780600009BEC021025E2021005EB021025DE02104B
:20067C00FDE10210E1E402103200000034000000240029000000000060460020FFFFFFFF22
:20069C0074470020040000000000000000000000380000006CFC0210280000000100000084
:2006BC00100000000000000000000000F7F1021000001A001000000003000000A81F000020
:2006DC007B1E0000080000003600000020460020C044002009001D00573F0100C04300209D
:2006FC000100000000001200FFFFFFFF6447002004000000000000000000000010000000F0
:20071C0048FD0210180000000000000000001300FFFFFFFF7C470020040000000000000058
:20073C000000000054000000A0FB02103C0000000000010030000000A80500004B3C0100FA
:20075C0033000000116B0100540700007C07000035220100D9DB021059EC0210CDD60210C5
:20077C0085DE02104DE5021029E5021033000000000016000000000000000000FF7F0000BD
:20079C002C420020FFFFFFFF5C47002004000000000000000000000058000000DCFB0210AB
:2007BC003400000039FB021001003200060000000000000020000000010000001BF8021024
:2007DC0028000000CC080000F407000093EC02106DEB02104DEC021029E00210BDE40210F2
:2007FC0099E40210300000000000000034470020040000000000000000000000100000006F
:20081C0040FC02102C000000000000000000030000000F003C0000000000000000000000F4
:20083C002FF902101000000008000000B81E0000FFFFFFFF6C4700200400000000000000A1
:20085C00000000001C000000DCFC021024000000E00700001C4700200400000000000000E4
:20087C00000000000C00000000FD0210180000004747010000000000000000000800000092
:20089C0001000000040000000000000000001400000000001C1B00000000190000001800BB
:2008BC00240000002F6C01000040000000020000A80500000000100055F002100C000000FA
:2008DC003DAB000000000000144700200400000000000000000000002000000010FC021057
:2008FC0030000000341B000001000000F16A0100D7350100000000000000170000020000DA
:20091C00340000000000230000001500010000006407000044470020040000000000000034
:20093C00000000002000000094FC0210240000004C1B0000E846002020000000B41C000010
:20095C00C04F002018540020FC46002010540020D841002070580020A41400004858002041
:20097C00344F0020C8510020CC530020DC460020DC450020D81F000009080310010103108D
:20099C00890903105D0303100105031089060310D1080310210A0310810B0310810A031001
:2009BC00110B0310510B0310D10A031029100310610D0310890E0310050E0310B50F03101B
:2009DC00D10B0310511003103D10031065100310FD0E0310ED0F0310B50C0310650F031028
:2009FC00111003106910031009120310F5120310AD110310291103105D120310B11203105D
:200A1C0019250310552703108D240310F12603100528031089260310CD2303105928031053
:200A3C00ED1F0310251303100D210310911D0310B12703100D2203109925031019260310DE
:200A5C00A91B0310CF2803109528031039290310052903106D29031099160310C91E0310AE
:200A7C007D1903100D230310C92C03101D2C0310292D0310B52B0310F52C03109D290310A1
:200A9C00CD2A0310452B0310472D0310112D0310412D0310752C031029340310C138031024
:200ABC0071360310A12E031081330310F1320100A93A03103D3A0310C534031011380310AB
:200ADC00753A03104D2D031009320310E12F031015390310F939031019310310B13703103C
:200AFC00F5350310B13903105D350310C5320310E5360310693903104D370310253D031002
:200B1C00413D0310F53C0310C93A0310A53C03109D3D0310593D031019430310CD3D0310B8
:200B3C00A14303104D400310093F031061420310CD400310C9430310E5430310C93F03105C
:200B5C0011440310FD4303101F440310A942031019420310E1420310C141031075430310C6
:200B7C0049430310494103101B440310AD0B0310936B0100976B0100A36B0100436A010021
:200B9C00A76B01009F6B01009B6B0100AF6B0100AB6B01007C5800206D400021D7400021E8
:200BBC009940002105410021114100211D410021354100214D410021074C657900F009F85E
:200BDC0061796940490703D50121044A8903116070BD70B5024908478003002108110440F4
:200BFC002D59000000F019F8E1B26C290BD0042801D0062807D110490978C90703D1217835
:200C1C00090700D402200D490A780C21114202D00B4980220A6003B0F0BDF0B583B009499E
:200C3C00084700200849884704480178402291430170064800470000C800002133010021CA
:200C5C0000E200E041160300F7630000231B030000F082F800480047577F000000F082F888
:200C7C00004800471B880000094B1A780824A243002800D022431A70004A1047838E000096
:200C9C0003490878000701D40248004770470000800300215F7E0000044A2820904704480E
:200CBC00012141600348044A416010474F42000000500440006004408542000070B51F4DA3
:200CDC002878C4B21E4880472878032834D1032C32D01C488068400DC2071A480146603118
:200CFC008030002A03D01F240C57458802E01E240C570588002C1FD01348154A41690079AC
:200D1C004143481011494969401810494039497F904740054015694288420DDBA8420BDC3E
:200D3C000C4B996988B20246090C624309045212801880B20843986170BD0000E40200214F
:200D5C0079410000280000218003002100030021CB81000040400440806B0C490007000F46
:200D7C0048717047094A0A4918235079CB56497EC018814201DD084602E00F2800DD0F2069
:200D9C00D189090909010143D1817047E0020021880000213C202020202020434F4E46495D
:200DBC00475552452020202020203E003C2020202020205345542050414E494420202020F2
:200DDC0020203E003C20202020534554204348414E204D41534B202020203E003C202020F1
:200DFC002020534554204E574B204B455920202020203E003C2020202020204241434B2087
:200E1C0020202020203E00C03C2020204E4554574F524B20414354494F4E532020203E0083
:200E3C003C20202020202020464F524D204E574B2020202020203E003C202020202020201C
:200E5C004F50454E204E574B2020202020203E003C20202020202020434C4F5345204E57DF
:200E7C004B20202020203E003C2020202020202020204150502020202020202020203E0092
:200E9C003C202020202053454C4543542053454E534F522020203E003C2053455420524503
:200EBC00504F525420494E54455256414C203E003C202020202053454E4420544F47474C4B
:200EDC004520202020203E003C2053454E44204449534153534F43494154494F4E203E00B2
:200EFC003C202053454E442054595045205245515545535420203E0020544920436F6C6CA0
:200F1C006563746F722000C03C20202020202048454C502020202020203E00C00020202075
:200F3C00202020202020282828282820202020202020202020202020202020202088101025
:200F5C0010101010101010101010101010444444444444444444441010101010101041410B
:200F7C00414141410101010101010101010101010101010101010101101010101010424259
:200F9C004242424202020202020202020202020202020202020202021010101020000000A5
:200FBC00000000000000000000000000000000000000000000000000000000000000000015
:200FDC000000000000000000000000000000000000000000000000000000000000000000F5
:200FFC000000000000000000000000000000000000000000000000000000000000000000D5
:20101C0000000000000000000000000000000000000000000000000000000000000097B964
:20103C002EE5725CCB5DCAE473B82F0196BA2D03945FC8E671E7705EC90295BB2CE3745A43
:20105C00CD0691BF28BE2907905BCCE27559CEE077BC2B05920493BD2AE17658CF51C6E836
:20107C007FB4230D9A0C9BB522E97E50C7EB7C52C50E99B720B6210F9853C4EA7DB2250B81
:20109C009C57C0EE79EF7856C10A9DB324089FB126ED7A54C355C2EC7BB027099EA2351B34
:2010BC008C47D0FE69FF6846D11A8DA334188FA136FD6A44D345D2FC6BA037198E41D6F807
:2010DC006FA4331D8A1C8BA532F96E40D7FB6C42D51E89A730A6311F8843D4FA6DF3644A72
:2010FC00DD1681AF38AE3917804BDCF26549DEF067AC3B15821483AD3AF16648DF1087A945
:20111C003EF5624CDB4DDAF463A83F1186AA3D13844FD8F661F7604ED91285AB3C00CD2A0C
:20113C00031000452B0310021F44031000FD430310011F44031000FD43031003D10B031076
:20115C0000FD430310045110031000FD43031001472D031001412D031001FD43031001FDF9
:20117C0043031001FD43031000752C031001FD43031001FD43031001FD43031001FD4303B5
:20119C001002472D031002412D031002FD43031000752C031002FD43031002FD4303100262
:2011BC00FD0E031002FD430310046510031000FD43031003472D031003412D0310031F444D
:2011DC000310031F44031003FD43031003D10B031003FD43031000752C031003FD430310BF
:2011FC0003FD43031004472D031004412D0310041F440310041F440310041F440310046596
:20121C0010031004FD43031004FD430310043D10031000752C031000013636010100010257
:20123C000100010301000104010606080400000C0100340D01000F10040101140100FF16D0
:20125C0008000020020000220100FF23010001240100FE2501000826020000280100012935
:20127C000100012A0200002C01000F2E0200003001000131010008320200FF3401000735A8
:20129C000102FF360100003701000138010001390100FF3A01000F3C0200FF3E01010F3F38
:2012BC000100014001041F41010001420100FF43010080440800004E0100084F01000F5011
:2012DC00010001510100FF5201000A5301008954010001580400005C04000060040000648B
:2012FC00040000680400006C0400007004000074040000780400007C040000800100FF8109
:20131C00010001820100018301010284010001FF88470020A9580020AA58002089470020FD
:20133C00A15800208A4700208B470020F169010085440000356101001D4F0100F14E01002D
:20135C004D1D0100A91D010035E30000CD3401008952010059490100692901009D6A01000B
:20137C00996401009D570100DD44010005550100994E0100C54E01001145010089490100BB
:20139C0051F600008DC700004F5001002D21010085180100CD690100D9690100B30B0100D0
:2013BC00B15D01000317010061E1000001310100E5EF000045450100FD690100C1410100A9
:2013DC0095610100076C0100A53E0100F17900001D59010011F20000012D01000308000084
:2013FC0000000000000000000001640300000000000000000538000000000000000000002C
:20141C000000000000000000000000000000000003380000000000000000000082010810DA
:20143C0014000084000000004E905500000000000738000000000000000000000001210361
:20145C000F008000520798E00800C81048450020640300800500000004380000000000005B
:20147C0000000000000188F94E90550000000000FF0710580000FC01000000000000000030
:20149C00000000000000000000000000000000000000000000000000000000000000000030
:2014BC00000000000000000000000000000000000000000000000000000000000000000010
:2014DC000000000000000000000000000000000000000000000000000000000000000000F0
:2014FC000000000000000000000000000000000000000000000000000000000000000000D0
:20151C00000000000000000000000000000000000000000036000100060000000000000072
:20153C00000F000000000000000000000000000000000300FFFF00000403FFFF0000FFFF7C
:20155C000F00E8030005401F0310000101000000FF3F0F0008000E00000000000000000099
:20157C000300010F0000090100000000000000000000000000000000000000000000000032
:20159C000000000000000000000000000000000000000000AD000001000000000000000081
:2015BC0000000000000000000000000000000000000000000000000000000000000000000F
:2015DC000000000000000000000000000000000000000000000000000000000000000000EF
:2015FC000000000000000000000000000000000000000000000000000000000000000000CF
:20161C000000000000000000000000000000000000000000000000000000000000000000AE
:20163C000001040000333333333333333300000000000000000000000000000001000000F0
:20165C000000000002000000000000000333333333333333330301000000000000000000CD
:20167C00000000000000FFFFFFFFFFFFFFFFFFFFFFFFFFFFFFFF014648546573740000002F
:20169C000000000000000000000000000000000000000000000000000101710101010101B6
:2016BC001101010131010101010180010001100161013B001400630173017201620143018E
:2016DC000001130106013D01350004011201000100010001000104010401330133013C0194
:2016FC00440132013600000100016501000135008101000105018201830100016601000189
:20171C000001080109010A010B0103007100300160001100700031022003500480000700CB
:20173C001000610000001400630073007200620043000000130006000000000004001200EC
:20175C00000000000000000004000400370037003C02440000000000000000006500000010
:20177C003500810000000500000083000000660000000000080009000A000B00030271020B
:20179C00300160021102700201020202020280020002100261023A00410063027302720248
:2017BC006202430200021302380000020002040212020002000200020002040204023700AC
:2017DC0037003C0244020002390000020002650200023502810200020502820283020002BC
:2017FC00660200020002080209020A020B020103710301030103010301030103220302037D
:20181C000103000310030003000300030003000300030003420300032403060300030003FF
:20183C00040312032503230325032303040304030003000300034403000300032303000347
:20185C00650321003503810300030503000300030003000325032303080309030A030B0390
:20187C000304710402046004110470040204020401040204000410046104000414046304C6
:20189C007304720462044304000413040604000400040404120400040004000400045104E2
:2018BC006400000400040004440400040004000400046504000435048104640005040004A8
:2018DC0083040004660400040004080409040A040B040008FF5E010075630100B5ED0000D8
:2018FC0099360100DD5701006DE400006D010100F9560100FD570100274C0100554C01004C
:20191C00533B0100B1460100FD5F0100811B0100392B0100E5130100DD1B0100DBFD0210E9
:20193C009555010011DC021041EE000049690100754F0100B1650100C5650100595E010000
:20195C002D47000051A000000000000000000000000000002D600100256501008D0501005A
:20197C00E96401002F6B0100296B01003965010000000000C96A0100190501003908010099
:20199C00ED5C010005EC00004F66010079B900009D5E0000A9F30000BD580100000000005B
:2019BC0025200100995C0100CDDB00000000020000000200020002000000320004000100E8
:2019DC000000020000000000000000000500010000000700060001000000030007000800C3
:2019FC00000000000F0001000100FF0010000800000000001800080000000000220002005F
:201A1C000000000000B0004034000000FF00000038560020200000005856002020000000CB
:201A3C00000000000C0000000D000000FF000000FF00000060180020501800204000000013
:201A5C00200000001400000014000000130000001500000016000000000200008F00000053
:201A7C008F0001008F0002008F000300900000018F00010190000002900000038F000104BC
:201A9C008F0000058F0008048F0000048A000006510000007F0001003F0004003F00020083
:201ABC003F0001007F0002008F0002048F00010238C40D00C80000008100000032000F018E
:201ADC0000C50D00900100004000000096000501952B0D00C80000002200000032000F02B1
:201AFC000000000000000000000000000000000000000000000000000000000000000000CA
:201B1C007B7374617469632D696E7374616E63652D6E616D657D00C07B656D7074792D69D9
:201B3C006E7374616E63652D6E616D657D00C0467B756E6B6E6F776E2D696E7374616E63A4
:201B5C00652D6E616D657D00BD1E01001FF9021045F8021059F802106DF8021081F80210FF
:201B7C0095F80210F9FD0000D94A0100193A0100E346010049560100ED6501001D5A0100A7
:201B9C00A94A0100C368010045630100450B0100F9630100A9660100D16801009966010068
:201BBC00B16A0100FF6A0100F96A010000000000000000000000000000000000000000001F
:201BDC0000000000000000006168010053680100C003000080070000000F0000001E0000EC
:201BFC00003C00000078000000F0000000E0010000C003000080070000000F0000001E00CD
:201C1C0000003C00000078000000F0000000F0000000000002000000020000000A00000006
:201C3C00020000000200010000000000000000000000000000000000000000000000000083
:201C5C00000000000E000000C16A01001D6B010009480100295C010035250100455C0100D0
:201C7C0079FB0000BD33010031690100A195000054070000A41C0000D9670100E967010065
:201C9C0009680100F9670100694B010091560100CD4F01003500000015F9021001E602104D
:201CBC002DDA021045E7021041D10210C9D30210A5DF02102DE4021061EA0210593A010035
:201CDC000303001B5B324A1B5B32301B5B3F32356C001B5B324A1B5B32301B5B3F32356C3E
:201CFC000000000000000000000000000000000000000000000000000100000000C2010004
:201D1C000300000000000000CC080000381D00001B6C0100FDF0000001060100094B0100A9
:201D3C006D560100A14F0100310000000000000000000000000000000000000000000000A1
:201D5C00000000000000000000000000FFFFFFFF0000000000000000000000003A013A01F5
:201D7C00000000000000000000000000000000000000000000000000000000000000000047
:201D9C00000000000000000000000000241D00002447002004000000000000000000000057
:201DBC00200000004C1E0000180000008C1C00003C47002004000000000000000000000016
:201DDC0014000000E81D00001C0000001C0000000000000000000000FC1D0000000000007D
:201DFC0008000000000000004E42434E00FFFFFFFFFFFFFFFFFFFFFFFFFFFFFFFF010000AD
:201E1C000100000040420F000100000000000000000000000000000000000500BD00B7009A
:201E3C00B100BC001C00300038000800380102001800000000000000000000005C1E0000C0
:201E5C000800000000000000010001031E0D0C06070F0E00010001000102000102010400EB
:201E7C0005000000D0070000C8000000FF000000000000000000000001C60000195F010063
:201E9C000101010000000000020000000000000000000000FFFFFFFF000000000100000024
:201EBC0000000000000000000000010000000100001610160E18151C0212032418580302C1
:201EDC00100258000200000000000000FFFFFFFF000000000F010000010000000E0100005E
:201EFC000100000084530020F01E0000A8530020F81E0000403F0020D05000204C510020F3
:201F1C00FFFFFFFF7C4E00203F200000D84E00204120000088B224008813000010000000B0
:201F3C000000000100A6AAACA4A9A9A399B19ABCB6A8313118191A22311C1E2031313431D0
:201F5C00313117191A21241B1D1F313133310000FF00000000000000000100000C0E020B30
:201F7C00040B0A070800110F000120181A18182C34041E00641C0000945800200820000044
:201F9C00FF000100000000000000000025DD021031C8021075DF021002040201010101098B
:201FBC000200000000BE040A00BE02080102000302000103FFFFFFFFFFFFFFFF35452515B7
:201FDC000203050400040810000408107C5700202B130000E803000000006400B049002006
:201FFC00201A0000985600202020000000E004000080000000000000000000001560010063
:20201C0051540100000002400A29FF00000602868200081018200001020304002040600060
:20203C000105090601070100000000001000000001000000596B01001F6C01008F23010051
:18205C005F6B0100E52D0100E9000100176C01000A0000000000000016
:202074002DE9F04F894A8A4F1068ADF12C0D08A90890096807F1100004462160516808AA04
:2020940008911268011D0A60C249082213F078FA28B9C5490A682046026049684160C34861
:2020B400C54E8667C34F4767C44DC567C44CC0F88040C44BC0F88430C34AC0F88820BC499A
:2020D40001670026C0F89860C0F89C60BF4FC0F88C70BF4DC0F89050BE4CC0F8A040BE4BE9
:2020F400C0F8A430BD4AC0F8A820016FC0F8946009B13046884708F09DFEC94FC64DC74CCD
:202114004FF6FF7BB246B946E888410854D36F78002F4CD15046D9F8307009904FB37F6958
:202134003FB307208DF808000623ADF80A3009AAADF80C6002AB009293E8030032460423BD
:20215400B84718B909981930099014E007208DF808000627ADF80A7002AAADF80C6092E8ED
:202174000300D9F83030DF69CDF828A00AAB0422B847CDF824A004A811F044FA58B9099842
:202194002E7031460DF024FB012014F0C5F8022014F018FA0BE0099831460DF019FB10F0CC
:2021B4003DFE014604A80DF05DFC01202870B748012114F0EBF8E888C1090FD3012089F808
:2021D40002004FF0FF3011F0BDFE3046314606F05FFFAE48402114F0D9F8E888010A0DD3F7
:2021F40089F80260304611F0ADFE3046314606F04FFFA648802114F0C9F8E888810806D36F
:2022140008F03CF8A148022114F0C0F8E888C10847D39F4832220C3830F80C1F8B450BD0E6
:2022340041894B0808D301F44073B3F5407F03D14FF6FF4319404181521EEDD14FF44070EC
:202254004FF4807112F008FE30BB914F32200C3F37F80C2F93451DD079894B081AD311F450
:20227400407F17D102208DF81800ADF8102040F6B83104A809F056FC70B978894FF6FF513A
:2022940040F4807078810840788105E0C84F0050F8430020401EDBD17C48042114F076F8C0
:2022B400E888000926D37948082114F06FF80A208DF81000B5F87800014614F090FC8DF803
:2022D4001100084614F032FC8DF8120004A80FF0BDFD704814F056FA012802D16D4814F09C
:2022F4007CFCD9F8180042F2107114F0EBFB694814F071FCA088410804D36748012114F08B
:2023140045F8A088810804D36348022114F03EF8A0880109C0F08E80E76894F82300B846F0
:20233400401E7FD0401E75D0401E012834D9801E7BD1554904A80E220CF08EF8381C05D096
:20235400076808B111F09EF9381CF9D1E6608DF81D6007A9E12014F0A3FD502004A914F0CD
:20237400FCFB05A9E22014F09BFD0DF11201532014F0F3FB27691FB1396809B104A888475A
:2023940094F82200022814BF0320042013F0C4FF4BE0C046D01F000094F82200032844DA5A
:2023B400227FE08B1FE0C046F0120050342100203DD300007928010069F8000009E5000030
:2023D40021F30000F9FE0000E9D3000031040100751F0100CD5F0100C9070100E50F010064
:2023F400401C80B2E0835FEA080708D0B97C8A4202D1F989884203D03F68002FF6D13146A1
:202414008142EDD0218C532014F00BFA30460EF0B1FA0AE0304606E0283D0020883200203B
:202434007037002001200FF013FB1B48082113F0ADFFA088C0080AD34120314614F0EAF9CC
:20245400062013F069FF1448042113F09FFF00F045FAE88800287FF457AE104840684FF037
:20247400FF3155F0E5F800283FF44EAE0B4800780FF07CFB071C3FF447AE00F0D7FF3846CF
:2024940013F0B2F940E6C046741600002E3D002068330020483800208C320020F8430020A5
:2024B4002DE9F04F4FF0FF084146ADF14C0D0E910F914FF0000910914E46089609960A9656
:2024D400AD4C0B9604F1300B0C96E0680D96494611919EE0E068710306AA042314F0B6FA9B
:2024F400119903AA304613F079FB02AA3046012113F074FB3046022101AA13F06FFB06987F
:2025140000F0FF0028709DF81900069F6870C7F30140E8709DF80E30AB702878FF2834D0E9
:20253400BDF80C70FE2830D04FF6FF70B8422AD107A811F0DBFBE06871034FF088524FF4E9
:20255400005314F083FABA484FF4005750F8041D3F1FBFB2B1F1FF3F07F1885201D1032F09
:20257400F4D810684FF0010A514600F0FF03FF2B18BF8A46491C000A0529F6DB10600798E2
:2025940013F026FD5744EF8001E01020E8809DF80A00BDF8087028719DF806302F81BDF8E9
:2025B40004206B7129786A81E068FF292AD0FE2922D07E291AD07C2912D078290BD07029CB
:2025D40004D00D99491CC9B20D9120E00C99491CC9B20C911BE00B99491CC9B20B9116E0BC
:2025F4000A990F96491CC9B20A9110E009990E96491CC9B209910AE00899B046491CC9B2F3
:20261400089104E009F1010710965FFA87F9761CF6B2E578B54200F323810D9F002F38D19F
:202634000898022835DA0C98022832DA099802282FDA4D452BD00C98C0B90898A0B90B98B9
:202654000A99084325D012F089FD854219DCB9F1000F14D094F83200FE2112F0B3F8E578BB
:202674000120DDF8408015E0012013E0089860B9B9F1000F07D112F071FD854201DC062003
:2026940008E0032006E00220EBE7022002E0119800E004200028A07000F0CC80401E49D0A5
:2026B400401E00F0AA80401E06D0401E00F09880801E00F094800EE112F050FD05460C209D
:2026D40084F83C5015FB00B0817E84F83D10C07E84F83E0008F01EFEE2782D1895FBF2F039
:2026F40050432D1AE8B284F83200401C90FBF2F15143401A84F831007C2011F077FCFF2808
:2027140010D17E2011F072FCFF280BD1FF2011F06DFCFF2806D1782011F068FCFF2808BF42
:2027340094F8310084F833000C2110FB01B0808BE0868FE00F9F08F1010090FBF5F184F8BB
:2027540032806943FF2FA0EB0100C1B284F8311014D10E98FF2804D10C200E9111FB00B00F
:2027740004E00146880000EBC100584484F83310808BE086AFE0C046BC3F00203A46D0B268
:20279400910084F8330001EBC2015944898B1729E18640F2A080C91F01AA89B20BF03AFC8D
:2027B4009DF80F00C0083FD3119F0097BDF81220E18E94F833000323891AC91F01AA89B294
:2027D40006F028F9002840F08680BDF81010002900F081809DF8140010F07EF97BE0FEE721
:2027F400119EB54226DD30460AF0EAF86178E578761CF6B201436170F3E708F1010084F8F5
:20281400328090FBF5F16943401A84F831005FFA88F00AF0D5F86070FE215FFA88F011F075
:20283400D1FF012084F83500119801F0BBFC52E00020001111986D1E84F831000C2184F8A4
:20285400325010FB01B184F83300898BE1867E2111F0B8FF94F83200FE2111F0B3FF3AE0FA
:202874000C2116FB01B506AA0423710314F0EEF81199304603AA13F0B1F9304602AA01215D
:2028940013F0ACF93046022101AA13F0A7F90699163501F0FF0201F0FF00FF2A09D0FE2A9F
:2028B40007D07E2A05D07C2A03D0782A18BF702A0AD1119F47B9C1F38542032A04D1962264
:2028D400B2EB116F3FF41EAE30460AF079F8002860703FF4FFAD13B0BDE8F08F2DE9F04FD4
:2028F400BE4C2189A06BADF1240DA1464A0825D3D9F8481081420ED199F80000012806D1A9
:202914000EF0CAFDADF800000FF030FF01E010F0A5FBD9F83800D9F84410814205D199F832
:20293400020080F0010013F00FF80020C9F83800012109F1080013F029FD21898808C0F0B6
:20295400748109F10800022113F020FDAC4C2078012840F06A81206A94F84080A7698500EA
:2029740004F1400BB8F11B0F05EBC0053D4405F1100520D15846BAA1042212F001FE0028B6
:202994002DD05846BFA1042212F0FAFD20B35846C1A1042212F0F4FDD8B15846BFA1042270
:2029B40012F0EEFD90B15846C2A1052212F0E8FD002840F02F81B8F1400F12DDB8F15B0FC4
:2029D400BCBF08F120005FFA80F80AE04FF0FD0807E04FF0FC0804E04FF0FB0801E04FF0E0
:2029F400FA08287995F805A0022864D0032840F0C28004F5F070002140F2A5120DF0ACFBEC
:202A140004F2822704F54176049704F5007005962B7903900027032B46D16E796EB9B8F15A
:202A34000D0F36D101206871A86803681BB1C08803A93A46984701272CE0B8F11B0F32D0C2
:202A5400B8F17F0F2FD0B8F1FC0F08D0B8F1FD0F0FD1A9688888CB881B185B1E04E0A968F6
:202A74008888CB881B185B1C93FBF0F242439B1ACB80A86803683BB1C0883A46B8F10D0F4C
:202A940008BF012203A99847B8F10D0F18BF01276F714FB105982968802211F0CBFD01204F
:202AB40006F0D6FC00E06F7168793E46504518BF4FF01B085DE004F5F070002140F2A512A7
:202AD4000DF04AFB04F50070069004F5417608964FF0FF33ADF8003004F28227ADF8023097
:202AF400287907970026022843D16F7937B9B8F10D0F20D101206871FE201FE0B8F10D0FB5
:202B14000BD0B8F11B0F16D16E71AB681BB1F92006A96A469847374608E0374638466871BE
:202B3400AB681BB1FF2006A96A4698476770384606F08EFC01266F79DFB14046AB6813B174
:202B540006A96A469847012006F082FCBDF902000126B0F1FF3F0AD0BDF90010B1F1FF3F50
:202B740005D06085667021850FF044FF01E000206070012E4ED0A269216A40460D382FD04B
:202B94000E3820D0643816D07D38012842D8137A012B3FD0B8F1FD0F05D05818401CB0FBA8
:202BB400F3F1594305E0127A5018401EB0FBF2F15143401A2AE0D768606A002F08BF107A3B
:202BD40009D0A76122E0BAF1000F01D06879F0B1E069A061007A401E18E0C046703700200A
:202BF400880000EBC10080181430077857B1012F0DD147685FB108463946884707E0C046D4
:202C1400F82700204068A061616200202062002006F01EFC5846002105220DF09DFAA068A1
:202C340059460522002312F04FFEB9F80A00B9F808100246C9083AD3ADF8000002218DF851
:202C5400081099F80300D9F85C1009F1080438B3401E1DD0401E05D0401E15D023E0C046BC
:202C74001B5B4100BDF800000DF09AFFD8B1D9F84C00D9F85410BDF8003010A207F0BCF821
:202C940011E0C0461B5B4200684611F077F90AE0684608F047FF06E01B5B43001B5B440023
:202CB40010460FF063FD2046042113F06FFB09B0BDE8F08F1B0000000000C04644697361D4
:202CD40073736F63696174652053656E736F72204572726F72202D20416464723D307825CF
:202CF400303478206E6F7420666F756E640070472DE9F04FBF4D2861BF492963BFA1097821
:202D1400ADF16C0D4FF0000809A840220170BCA109A88DF8648011F08DFCDC4C4FF0030B47
:202D340020788DF864B0012834D160684FF0FF3113F095FCA06B01282CD80DF0ABFD38BB85
:202D5400062610F01FFD071C01D1761EF9D1D4F838909DF8643004EB8906B7648BB1A06B27
:202D7400342212FB03FA04EB80000365504611F021FF6036306058B13068414652460DF06E
:202D9400EBF909F10100A063606813F018FF02E0012700E04746EF6404A813F037FB40462A
:202DB40004A909F08DFADFF8D092A864494613F09FFE012004A909F083FA6864406800782E
:202DD40012F0D4FE00283BD1286B002838D00269B2B307278DF808700120ADF80A0002AE99
:202DF400ADF80C8096E80300904704202E6B8DF8087002ABADF80A003269ADF80C8093E8D9
:202E14000300904746468DF808700520ADF80A00286B0269ADF80C6002AB93E80300904756
:202E3400761C642EF4DB8DF808702F6B062002AEADF80A003A69ADF80C8096E80300904743
:202E5400686C494613F054FE684613F0EDFB0120694607F0E1FDE8636946404607F0DCFD18
:202E74004FF4FA715A4628640FF031FAE86C814612F038F9002840F0A380804E30680028E3
:202E940000F09E80E06A4FF0FF3113F0E8FB4FF0FF3004F1800C4246D4F82CE01A906146D1
:202EB40040464F683FB90F682FB91A9BB3F1FF3F08BF1A9003E00B68B3427ED0521C401CFF
:202ED40008310428EDDB1A98B0F1FF3F75D0C00000EB0C01C1F80490002A4CF8006062DDC9
:202EF400DFF89CC1DFF89CA1012A4FF0010E0FF2201924D1614681F8148081F81580E769BC
:202F14008F6143460B613868F960E7690860397A0C2011FB007181F808E0397A11FB00711A
:202F340081F80980E1690F7A4B4617FB00114B60E1690746087A534610FB0711CB609000B9
:202F540061460C23474600EBC200F16040189C460761377A866117FB036787F808E0377A2E
:202F740080F8148017FB0C6787F80980377A80F815804B4617FB0C677B60337A80F821802F
:202F9400574613FB0C630226DF6026A7C7613E4F80F820600E46012A476202D0307A401C22
:202FB400834686F808B0E661A661307A401E2062404606F04DFAE06A00E0704613F0FFFD84
:202FD40005F150021CA0414607F0B4FE05F154021BA0012107F0AEFE05F158021CA041464A
:202FF40007F0A8FEE86C296D20A206F005FF1BB0BDE8F08F70370020A421002000C046C019
:2030140031353420436F6C6C6563746F7200C0463C2020202020204241434B202020202088
:20303400203E00C03C20202020202048454C502020202020203E00C053746174757300C037
:203054004465766963652053746174757300C0464E756D626572206F66204A6F696E65648B
:20307400204465766963657300C046C057616974696E672E2E2E00C0BD590100804300207C
:2030940038530020356401001DA90000F827002070B50546EC6B00217422ADF1980D09A860
:2030B4000DF05AF814F8010B8DF8240021680DF1250001606168083441602078617813F0C5
:2030D40009FDA41CADF82E0041080FD32078617813F000FDA41CADF830002078617813F09E
:2030F400F9FCADF83200BDF82E00A41C810808D32078617813F0EEFCADF83400BDF82E00CF
:20311400A41CC1080FD32078617813F0E3FCA41CADF836002078617813F0DCFCADF8380019
:20313400BDF82E00A41C0109C0F0AA802078617813F0D0FCA41CADF83A002078617813F0A1
:20315400C9FCA61CADF83C003078717813F0C2FCB31CADF83E001878597813F0BBFC9A1C1E
:20317400ADF840001078517813F0B4FC961CADF842003078717813F0ADFCB41CADF84400C3
:203194002078617813F0A6FCA41CADF846006178207813F09FFCA61CADF84800307871780B
:2031B40013F098FCB31CADF84A001878597813F091FC9A1CADF84C001078517813F08AFC34
:2031D400961CADF84E003078717813F083FCB31CADF850001878597813F07CFC9A1CADF828
:2031F40052001078517813F075FC961CADF854003078717813F06EFCB41CADF85600207898
:20321400617813F067FCA41CADF858006178207813F060FCA61CADF85A003078717813F079
:2032340059FCB31CADF85C001878597813F052FC9A1CADF85E001078517813F04BFC961C9D
:20325400ADF860003078717813F044FCB31CADF862001878597813F03DFC9A1CADF864004F
:203274001078517813F036FC961CADF866003078717813F02FFCADF86800BDF82E00B41C78
:20329400410910D320786178A278E37813F001FB241D1B906178A2782078E37813F0F9FA40
:2032B4001C90BDF82E00000A28D3241D1DA9062014F8012B401E01F8012BF9D12078617843
:2032D40013F008FCA41CADF87A002078617813F001FCA41CADF87C0014F8010B8DF87E0087
:2032F400002007E014F8012B0DEB0001401CC0B281F87F209DF87E108142F3DC4949886D60
:20331400494C401C886595F92060E06B12F0E0FDBDF82E20E06C616D120A0CD2BDF8362061
:203334000092BDF838300193BDF83430029303962B8818A21DE09DF878209DF8776000925A
:203354009DF8763001969DF8756002939DF874300396BDF87C600493BDF87A3005969DF8FF
:203374007E6006939DF8793007969DF87F6019A2089606F041FDE66C11F054FFA16D0346E9
:2033940027A2304606F038FD28460EF031FB26B070BDC04653656E736F72202D204164641E
:2033B400723D3078253034782C2054656D703D25642C2048756D69646974793D25642C204E
:2033D4004C696768743D25642C20525353493D256400C046414444523A25327825327825AA
:2033F40032782532782532782532782C20555549443A3078253034782C204D616E466163CA
:203414003A3078253034782C204C656E6774683A25642C20446174613A307825303278009D
:20343400257800C0283D002070370020F0B50446BC480768ADF1440D002F00F0B181207895
:20345400401E122800F2AC81DFE810F06E0157013D01280120010901F600E800C800B70024
:20347400920067005D004C00AA01340026001C0013007B6C002B00F093810020A21C014627
:2034940098478DE1F86B002800F08A81684621460BF012FDF96B81E1386C002800F08081A3
:2034B4006846002101220CF057FE60788DF80000396C73E1F86A002800F072816846002123
:2034D4000E220CF049FEA11C684612F005FEA67BA1890022ADF80A1006B101228DF80C203E
:2034F400F96A5CE1B86B002800F05A816846002102220CF031FEA6788DF8016060788DF883
:203514000000B96B4AE1786B002800F04981684621460BF0D1FC796B40E1386B08B3684695
:20353400002114220CF018FEA6788DF80160A5680195A389ADF8083060788DF80000A27BE4
:203554008DF80A20E17B8DF80B10267C8DF80C6094F911508DF80D5063690493396B684694
:2035740088476068002800F01B8112F03DF917E1B86A002800F014816846002124220CF0DC
:20359400EBFD6078A11C8DF800000DF1020012F0A3FD04F10C0103A812F09EFD267EE08A1B
:2035B40004F119018DF818600B22ADF816000DF119000AF051FFB96AF0E0786A002800F0B5
:2035D400EF806846002102220CF0C6FDA6788DF8016060788DF80000796ADFE0386A0028E9
:2035F40000F0DE806846002112220CF0B5FD6688607825796379ADF80260E11D8DF80000EE
:203614000B228DF80450A6798DF805300DF107008DF806600AF020FF396ABFE0F8690028E3
:2036340000F0BE806846002101220CF095FD60788DF80000F969B1E0B86910B120460FF031
:203654006BF8A07820B9A069002800F0A98003E0A069002800F0A48010F014F8A0E0786923
:20367400002800F09D806846002113220CF074FD6D46A01C0168406829600B22686004F19D
:203694000A0102A80AF0E8FE796987E03869002800F0868020460AF04BF881E0F8680028ED
:2036B4007ED0684600210E220CF056FD6078A11C8DF800000DF1020012F00EFDA089ADF865
:2036D4000C00F9686AE0B868002869D06846002114220CF041FDA01C01686D462960406856
:2036F4006860A07A0B2204F10B018DF808000DF109000AF0B1FEB96850E0786800284FD0F1
:203714006846002110220CF027FD60786688211D8DF800000B22ADF8026001A80AF09CFE7A
:2037340079683BE0044400203868C8B36846002119220CF011FDA01C01686D4629604068D9
:203754006860A67A0622002102A80CF005FD700824BF01208DF80800B00824BF01208DF832
:203774000900F00824BF01208DF80A00300924BF01208DF80B00F00924BF01208DF80C0046
:2037940036F07F001CBF01208DF80D0004F10B010B220DF10E000AF05FFE39686846884733
:2037B40011B0F0BD2DE9FE4FBD4C00902068DFF8F892DFF8F88201914030D0F8941093460A
:2037D40091F88320B7499A46012A00F0B5806268D2680123137000260E7001684D460F68B7
:2037F4002E7017B9D0F80C0580474546DFF80893A86E4FF0E24706EA0B0117EA0A0708BF57
:20381400002974D1B5F8D6100822374602EA0B0217EA0A0708BF002A0CD118B14A46508BDF
:20383400401C5083B54890F900108046491E01701D2074E0B14A92F9003042F201478F427D
:203854009046A3F10103137002D03A1D8A4216D118B14A46508B401C5083A9480068019931
:20387400826C0098904750B14A4602F116010088B5F8D630098842F6014C84451ED1B5F886
:203894006600B0F5105F12D0AF6E42F60601814206D0002FCCD04A46508B401C5083C7E7B0
:2038B400002F3ED04A46508B401C508339E09448A96F0C30016010F089FE32E0491C3F1D19
:2038D40088B29F42D08214BFE1201C2009F0F8F998F9000028B198F90000002800F30681D0
:2038F400F5E02068D0F8582431463046F9E0834B276893F90010491E197007F1400118B162
:203914004A46508B401C508308680068406800789846800902D211F0C1FC02E0E92009F024
:20393400CFF998F90000002800F0D68098F90000002800F3DB80CAE06268D2680123137050
:2039540000260E7001680F6817B9D0F80C0580476B4800680199826C009890476949DFF8C4
:20397400A8E10B88022516EA0A0705EA0B0108BF002934D131464FF0E24701EA0B0117EA18
:203994000A0708BF00291BD14FF48601202701EA0B0117EA0A0708BF00290AD1002876D0D3
:2039B400008840F60301814271D01D2009F088F96DE00199009853465A4653F045FE66E0F2
:2039D4004E4991F900007746401E08703878862802D011F063FC5AE00FF074FF57E0474D18
:2039F400294691F90020DFF824C14F46521E0A7043F2084199423E7008D0B8F87E708A1C3C
:203A14009A4203D0B94218BFBA4212D178B1008843F6030181420AD007F032FF95F90000F1
:203A3400002859D095F9000000285FDC4FE0B8F87E70B8F8F61043F60400884238D0B842A4
:203A540036D0984234D0B8F84E2040F6090090422ED0B1F5505F05D0080B16D31D2009F0E5
:203A74002FF912E02A480068774600F5C070CCF814003878862802D010F0A8FD05E0019930
:203A9400009853465A460FF057F912F061FB1B4991F9000000B391F90000002826DC16E049
:203AB40014010020C4460020C3460020C035002018480078022816D0032814D007F0E0FE89
:203AD40095F9000040B195F9000000280EDC2068D0F84C05804709E02068D0F85824304620
:203AF4000146904702E0304609F0EAF86068C0680670BDE8FE8FC04618560020CC46002003
:203B1400204100205A360020A85800201841002028010021714500202DE9F04FCB4C606972
:203B34002589216AA689806DADF1240D2A46891908310AF091FC7619B0B26669B16D49193B
:203B5400C34DB1652968D1F8D41091F88370216A0B1808331B780DF11E021370DFF8F88203
:203B7400022F00F1010080B208D141180A7A66694346591C0A70216A401C80B20A1808326A
:203B9400126802A9001D0A6080B2A081042102A811F04AFF0290034612F0F6FCF063184679
:203BB40012F0E0F8A6F84000EA2010F08DFCA9484FF0020B022F80F800B00BD168684069BB
:203BD400007838B14146087810B94878FF2801D00420E0706769E078397C084338749DF90A
:203BF4001E0013F004F887F8460007F17406BE6539899DF91E007B6887F84800B7F85C000F
:203C14004FF00008401AC01801467860B88987F84780820A18D2020926D310F0070F07D00A
:203C340000F00700032812BF081C7868401C17E07968C87800F00702401000F0380000EBA9
:203C540042004018001D0BE02868D0F80813384688476769786E10B1B7F8680090B178683F
:203C74007861B889000918D297F8600020B32868D0F80C13384688476769F86CE0B1B7F829
:203C94005000C8B92868D0F8541204F114008847404660610DF0A0FAD4E02868D0F8B414F7
:203CB40038468847787067697E78B86978651EB1F22010F009FC67692E68D6F8B810087895
:203CD400002800F0B780BA89DFF890A1089202F00702022A68D16378002B65D17B78002BE2
:203CF40062D161698DF81F800DF11600283112F05FFC616928314F6803A847600E8906817B
:203D14000A680260574607F110022B681088401C1080D3F8B8006169436A486E0DF11F022E
:203D34000421984704F1140938B92868006C006818B19DF81F1080F86810666996F83000FA
:203D5400022813D12868D9F80030D0F8D4705A4607F1200103F1280011F012FC30B907F1DF
:203D740016010DF1160012F023FC66693C480078862809D1BAF81200401CAAF81200B08983
:203D940000F010000EF09EFC2968B8310A68107830B1976C27B16069394688472968B831B6
:203DB400D1F89C11484648E02E4A1378002B3AD0089AC2F30132022A35D1787800287FF444
:203DD40069AF69689DF81E00896853460870E6786769988A002E07F1280207F11C0C00F180
:203DF400010098820CBF414608212E68D6F8B8000378FBB11C4B404618600091CDF804C057
:203E1400D6F8D400117AD6F87863C38C0D20B04710B90EF0ADF901E011F0EAFF2E68D6F8A9
:203E3400B8106769087828B1896C19B1384688472E686769D6F8581238468847404660613F
:203E540011F0F2FF09B0BDE8F08FC046F055002014010020A358002014410020704500207A
:203E7400A8580020A558002080460020C5482DE9F04F3CC8ADF1240D69463CC11DC881E8DC
:203E94001D00C14CC14D04F11007009405F1540001978146029005F13400039580460490DF
:203EB40005F17C008346059005F1180006900BF019FEB74E824600213022B460B54CF760BC
:203ED40004F58A7007460CF047F9BAF10E0F16BFBAF11A0F30222822384649460AF0BCFA88
:203EF40094F8201194F82A6101273846182260F3C71167F3C71684F8201104F1340084F846
:203F14002A6129460AF0A8FA94F840001822294667F3C71084F8400004F14C000AF09CFAC4
:203F340094F8580004F1F4052022414667F3C71084F8580028460AF08FFA94F8001100201F
:203F5400804668F3030184F8001194F8001167F3C71184F8001194F8021167F3C30184F806
:203F74000211102684F80361A4F8040194F8070120F00F0040F0040084F8070194F8070164
:203F94003022594667F3C71084F8070104F5A2700AF062FA94F8500167F3C71084F850012B
:203FB40094F852017C4B7E4967F3C30084F8520194F8520167F3C71084F8520194F85301D5
:203FD40068F3000084F8530194F8530167F3410084F8530194F8530167F3C30084F853018A
:203FF40094F8530168F3041084F8530194F8530167F3451084F8530194F8530167F386105F
:2040140084F8530194F8530168F3C71084F853011868D0F80001C089A4F85C0194F85E0164
:2040340066F3050084F85E0194F85F016FF0030220F0F80040F0580084F85F01574B84F859
:20405400622194F8630104F17C0B04261C2266F3030084F863015846C4F864310AF0FCF9DB
:20407400C4F8805094F888004D4920F00F0040F0030084F8880094F8880067F3C71084F8DF
:20409400880094F88900032565F3030084F8890094F88C0067F3000084F88C0094F88C0055
:2040B40067F3C30084F88C0094F88C0067F3041084F88C004FF4207AA4F890A06FF05209D6
:2040D40084F88D9094F8920065F3030084F8920094F893004FF4FA531C2266F3030084F8E7
:2040F400930004F19800C4F894300AF0B5F9C4F89CB094F8A40020F00F0040F0020084F85F
:20411400A40094F8A40067F3C71084F8A40094F8A50065F3030084F8A50094F8A80067F32B
:20413400000084F8A80094F8A80067F3C30084F8A80094F8A80067F3041084F8A800A4F870
:20415400ACA084F8A99094F8AE0065F3030084F8AE0094F8AE0068F3071084F8AE0094F829
:20417400AF004FF4FA5366F3030084F8AF000849C4F8B0300798086107F02AFA09B0BDE8F7
:20419400F08FC046481D000034400020F8130000C0420020C03500201401002000C42264CC
:2041B400101400002DE9F04FB04E4FF0000A8146ADF1140D57467069CDF808A0CDF80CA051
:2041D40010B1804700B90B27F078002F40F09B8096F8314096F832700146B9F1000FA1F1B5
:2041F40001011FFA81F818BF012155464FF0F80B86F83F1022E0AF421ED0F06869036A461F
:20421400042312F023FC009911F4403F1CBF0AF101005FFA80FA01F0FF017C2918BF78296D
:2042340009D1284606215A4611F0E6FC0C2015FB006080F848B0F0786D1CEDB2A842DADC3C
:20425400401E504503D196F8350000285BD0B8F1000F06F1300500F0CF8003984FF4005B11
:20427400019096F83F30F06813B9012186F83F106A466103042312F0E9FBB9F1000F05D0DA
:204294000099F07811F4403F40F09B80009800F0FF00702803D02046702110F093FAF0686C
:2042B40079036A46042312F0D1FB009800F0FF00FE2803D03846FE2110F084FA3846062189
:2042D400FE2211F099FCB800FE2300EBC700FF2186F83C70A200A6F840B0401986F83D40BB
:2042F40000F1180A8AF80030019B86F83E1002EBC4004019A6F84430808BA6F8420000F086
:2043140093FC102801D10020ADE0B9F1000F0CBF10214946B9F1000F07D0B6F84000C0F5CC
:204334000050814207DC01200390B6F84000C0F50050814201DD782100E07C21384610F097
:2043540041FA06F0E7FF96F83F300446A8EB04000621FC221FFA80F8181B86F83F00384610
:2043740011F04AFCFC208AF80000029A96F83210F078091996F83E400C27891891FBF0F200
:204394004243891AC9B286F83210491C91FBF0F24243891A86F8311014FB0751898B102938
:2043B40005D1611C91FBF0F24243891ACCB20198B9F1000F96F83270029019D00398B8B181
:2043D4001AE096F83F30641C94FBF0F1A8F101024143A6F840B01FFA82F8581E641A029912
:2043F40086F83F00E4B286F83D40481C80B20290B8F1000F7FF435AF7C200FF0F7FD002471
:204414000746FF2F1CD17E200FF0F0FD0746FF2F16D196F831700C2017FB0050807DFF2853
:204434000AD0F27896F832008018401E90FBF2F15143401AC7B203E038467E2110F0C2F9DE
:204454000C2086F8337017FB0050808BF08696F83200FE2110F0B6F9B6F8400086F83540A9
:20447400C0F5005000B205B0BDE8F08FBC3F00202DE9F84F07469F4D9F4C28684030D0F834
:204494009410267891F8838026B1D0F80C0580472868403001680E6816B9D0F80C05804775
:2044B400A3460120954C8BF80000012F677040F2AF80DFF84C92DFF84CA2BF1E54D07F1EFA
:2044D4003CD07F1E00F0C0807F1E21D07F1E40F0B6802968096C096891F86D20628191F865
:2044F4006E70002F06BFE070071CE7706868514640680978007811FB00F07843810048463E
:20451400C16690F8701021F00F0141F0030156E0B8F1010F40F0AA802968D1F8D420096CF6
:2045340009680020C98A6071C90934BF92F8251092F84E10A17012F065F997E00026B8F18F
:20455400010F66710DD12968D1F8D40090F85300D1F83C148847C07B022802D1304609F0EA
:2045740089FA0FF00FFA81E067482F680668D7F8D40090F88300012824D09AF800008700A3
:20459400F06B8047DAF804103C23401AB0FBF7F1B1FBF3F25A43891A227812FB03F0401AEE
:2045B4003C301FFA80FAF06B804707FB0A014846C16690F8701021F00F0141F0020180F82F
:2045D400701053E09AF800008700F06B8047DAF804103C23401AB0FBF7F1B1FBF3F25A4379
:2045F400891A227812FB03F0401A3C301FFA80FAF06B804707FB0A014846C0F8FC1090F808
:20461400001121F00F0141F0020180F800112DE000202E686071306C0068D6F8D410C08A03
:20463400C00934BF91F8250091F84E00A070B7B9CF78A7B10228C4BF0220A0700FE02868A8
:20465400D0F84C05804711E02868006C006890F86910617190F86A00A0700027A77100F00D
:2046740055FD2868006C0068002841D02748007898B92868403001680F682FB9D0F80C055E
:2046940080472868006C07687A686178107800F0200020719078E07100E06178032903D0DF
:2046B400022918BF062923D112F07BFA05466078022815D01648077817B916490F787FB155
:2046D4000221B8F1010F8BF8001004D10078832801D10DF079FD284652F098F8BDE8F88FAE
:2046F40083208BF80000284652F090F80BF0BAFBBDE8F88F14010020A85800207045002042
:20471400C0350020204500202041002042520020A3580020A55800202DE9F04FDFF84C9274
:2047340004460D460020ADF1440D01461F460D9016460E9183460F91D9F808A0CDF840B0DE
:204754000BF0D0F9262803D00BF0CCF9252825D1308843F6070181420ED040F602018142C7
:2047740006D0B0F5C15F19D1F07B022816DD43E0F07B022812DD3FE096F8240002280DDD8C
:20479400307C0F2838D13169C1F31421B1F5803F04D00F2830D1B1F5A02F2DD1002D2BD08A
:2047B40056B328784FF0010808FA00F01AEA000F22D03046594612F0FCF965606C4DA6606D
:2047D400A86980B110A800900DA90EAA0FAB304606F0AEFB0E980B214FF6FF72502310F003
:2047F400A9FCFF2808D012F0DCF982462878022804DB504652F00AF85C46B3E000286DD144
:2048140003F046FE5B495C4E086840F00200086009A8C9F8006011F08DFF584E5849707867
:2048340009AA0B9005F1E0000DF0F8FE554905F58E7009AA0DF0F2FE09A811F053FF1921D9
:2048540009AB3078504A0A9005F160000FF039F94E4A05F17C001A2109AB0FF032F94C4975
:204874005A4605F5AC7013460EF08BFE49495A4605F5CE7013460EF084FE47480068C0F3A1
:20489400814030B1454A05F1340004215B4610F08DFCB078012802D10E2053F01FFB05F1B5
:2048B400A00011F0D1FD05F1980011F0CDFD594685F8241085F83010072085F84002A96020
:2048D400E962374B1970E960052685F83110354A2E610420AA6210F09FFD287805EB800151
:2048F400401CC1F8B840C0B22870504651F08EFF1FB901A811F0EEFD01AF38684FF4FA76B9
:20491400E6602060B8694146A062388A61766083F8692063786800280CBF40F6C410594637
:2049340020616061204E266266622176E661F86800B12062786900B16062B86800B1E0618C
:20495400C82204F1380059460BF006FC04F15000594610F013FA15495A4604F1B80013469B
:204974000EF00FFE204611B0BDE8F08FCC210840802D002000200940110000E09C1F0000B6
:2049940045600100A1C30000391C0100B51001003D580100B55C0100B44F0050852B010031
:2049B4004352002039B2000043AC0000236B01002DE9F04F0668ADF11C0D0F46141C049022
:2049D4004068DDF840A00590184608BF6FF0090800F02681002814BF99460DF1040912F0BE
:2049F400E0F883463079400838BF6FF00E0804D396F8280118B16FF0080858460EE1C6F894
:204A14002C71F079C6F830410123C6F8384100F0EF00F071002586F82831F079C6F84051FE
:204A340000F0BF00F0710598756311F0ADFF584651F0ECFE11F0FEFC88BBF06B400906D3AC
:204A5400B06B8446336C049810212A46E047D6F8402105982146D2190FF000FBD6F8401123
:204A7400241A0144C6F84011F1D1059811F082FE0028FAD0059811F07BFFF06B800906D3E9
:204A9400B06B0446336C049820212A46A047D6F8400186F82851A846C9F80000C0E0B47948
:204AB400A84674B9BAF1FF3F0BD0BAF1000F08D006F5CA745146204612F05BF8204612F07E
:204AD4005AF812F06EF804460FE0D6F83801002800F09680204651F099FE50464FF0FF3157
:204AF40011F0BDFD12F05DF80446D6F83801002800F08680F07941097CD2C00977D206F513
:204B1400A27A4146504611F0AAFD204651F07EFE06F5887B584602A90FF0A2FC044612F04D
:204B340040F80390D6F83801A04238BF041CD6F8401102982246C91909F08EFC584621460B
:204B54000FF01CF8D6F84001D6F838110019091BC6F840010398C6F8381151F057FE002C68
:204B740003DDD6F838010028D4D112F01AF80446D6F8400128B1059811F006FF049808F0F0
:204B94007FFCB07902282CD001289ED1D6F83801002835D186F82851204651F037FE307AED
:204BB40040F008003072C10817D2444613E0307A00F0F700307240F0040030720094D6F86D
:204BD400D8C1D6F84021336C04983946E047307A00F0FB0030720009E9D211F0E2FF0446F1
:204BF4000EE0D6F8400108B96FF00F0808E06FF00C0805E0F0796FF00D0800F0EF00F07110
:204C1400B079012805D086F8285106F5CA7011F0B4FFD6F84001C9F80000204651F0F6FD0F
:204C3400404607B0BDE8F08F2DE9F04F994E96F83D0096F83F10F37896F83C800027ADF1A1
:204C54002C0D0918491E91FBF3F296F83D4077705A43891AC9B20891810001EBC0018919F8
:204C7400B1F84C0096F83C10ADF81C00880000EBC1008019B0F84C50CDF8248006A80FF069
:204C940035F870780A97A04500F0A180B946CB46BBF1010F00F09080BDF81C10162966DD25
:204CB400002840F09580BDF81C0001AAC01F81B2ADF81C10204609F0ADF9BDF81210BDF883
:204CD4001C30884608F1070008F1100287B29A4246D89DF80E00962842D19DF80F00420806
:204CF40039D2800837D3BDF81C0000230093A0EB08001FFA80FA9DF80D20BDF81C0023465A
:204D1400401A80B20FF044FBF8B9E819B0F5005F15DCF068C5F188520AEB443A3B46D21B45
:204D3400514602F5005211F091FEED1909F10109ADB2B5F5005F08BF4FF0010B0BE0BDF8CB
:204D54001C004FF0010BC01D2EE0BDF81C00401EADF81C0004E0BDF81C00A0EB080023E0B2
:204D7400204607A90CF0D0FA01281FD030E0F278B9F1000F07D0484BBDF81C70A10001EBC0
:204D9400C401C9188F830899A14220D04249641C94FBF2F05043241AE4B2A00000EBC400A1
:204DB4004018808B4FF00009ADF81C0009997078A1427FF46DAF0AE0B9F1000F07D0364A7D
:204DD400BDF81C70A10001EBC40189188F8320B1069811F0FDF8102059E0DDF824804FF6ED
:204DF400F0704FF40051C5EA0040C5EA0141E1FA40F01FFAA0F283B2102102F1885240465C
:204E14000EF054F8717808437070069811F0E0F8A0450FD1F278204F1019401E90FBF2F116
:204E34005143401AC4B2A00000EBC400C019808BADF81C00184FBDF81C00A6F840504FEA67
:204E54008801A6F8440001EBC80186F83E40C9198D83B6F9422096F83D100123404610F09A
:204E740091F996F83E10B6F944200223404610F089F9BDF81C001628DCBF01200A90B5F569
:204E9400005F03DB0A9840F002000A900A980BB0BDE8F08FBC3F0020EC3F00202DE9FE4F09
:204EB4008B46054611F07DFE904C012D029000F0E08020460068D0F838038047002800F0AA
:204ED400D3800DF029F9002800F0CE8021464968DFF830A28969DAF808000F783C30002F37
:204EF40040F0C280824C0068257880476168E268AF00401AB0FBF7F6A06890460027B946DA
:204F1400114646454B4673EB090301DA884206D839464A4686428A4140DA024600E03946BA
:204F34001046EB172A46801BB94111F089F90646754800680F46418B0069401864308046D0
:204F54004FF00001B6EB080677EB09077042B94124DA11F0C5FC02464B46394630460BF0A7
:204F7400AFFD0F4606464FF000017042B94115DA10F0BBFF0546206911F09CFB10B1206985
:204F940011F0FBFD284611F0EBF92069314611F0F0FD206911F0EFFD002000E0012055498E
:204FB4000870884698F8000000285DD14F480068D0F894000078002739460CF009FA00B188
:204FD4000127381C4DD149480068D0F8D400474E90F88370706880690078002841D1DAF839
:204FF4000800454C436C606902216A4698479DF80000002835D0BBF1010F4FF0010921D022
:205014003E4EDAF80820606996F9001011F1020F06D0926B96F900109047DAF8082060696F
:20503400374D95F9001011F1020F06D0926B95F900109047DAF8082060696FF00101297022
:20505400317002E0DAF80820606928494968896981F80090D1698847012F04BF00208AF83B
:205074000100002088F80000029851F0CFFBBDE8FE8F2068D0F89400007801210CF0A8F989
:20509400029851F0C3FB606880690078012811D110F03AFC60B1606880690178012909D1BA
:2050B4000021BBF1010F017004D011F075F801E008F0C2FE10F028FCB0B960680C30C168F9
:2050D4000978022909D101680F7837B12068D0F84C058047241D20680C3001680F781FB929
:2050F400C16808780228FCD0BDE8FE8F1401002020450020A6580020C0420020C0460020AB
:20511400C146002018410020D44200202DE9F84F914F0026914C38688DF80060D0F8D40044
:20513400A57890F883B011F0AFFC4FF0010A4FF6FF710AFA05F28918014038686181D0F8B1
:20515400B800884D037843B3826B32B342F21A0069469047824863790278C2B1BBB99DF8FB
:205174000020A2B13868D0F8B800C06D78B180472978031C0AD078684068628900780830AE
:2051940010FB01F0B3FBF0F15018608163799DF80010608903FB010060816078002840F0AD
:2051B400BF8071483B68016803F1D4000268DFF8BC9192F88320012A33D0D0F8880180470E
:2051D400A1782A78002873D04C463B68A4F8E260D3F8D43093F8315084F8E45093F8243018
:2051F40084F8E53094F8E63043F0200384F8E63094F8E6305043800023F01F0343F002035E
:2052140084F8E63094F8E630C4F8F00066F3871384F8E63084F8E76084F8E81084F8E96019
:2052340080E0C86B804704460BF092FD80462878810008FB01434C4604F1A40210784FF00A
:20525400020C6CF3030010707868C4F8A03040680078083080B201FB003194F8883060463D
:2052740060F3030384F888303868C4F88410D0F8282404F18D01F420904794F8000166F335
:20529400030084F800013868D430016891F8831001290AD1D0F88801804730B16868D4F8B7
:2052B4008410884238BF534600D3334628781BB91C2007F005FD35E094F8A41066F3030145
:2052D40084F8A4103546C4F8A0507D68042310FB03F10AB2696894F888300978083189B292
:2052F4004A4323F00F0141F0030184F88810C4F8842094F88C1000FB08F041F0080184F870
:205314008C1094F88C10A4F89A606AF3041184F88C104FF4FA51C4F894100FF073FB01E059
:2053340000F0BEFFBBF1020F14D13868006C006880B10F481049007848B90E48007830B985
:205354008322084602700AF08DFDBDE8F88F022208460270BDE8F88F14010020704500200A
:20537400425200202045002020410020C0350020A3580020A5580020A85800202DE9F04F9D
:20539400944DA868416EADF12C0D02A88847A846914C924DA178606902290FD170B1002031
:2053B40007F06AFFD8F80800416860698847281D0068806901210170002060614FF0010A0C
:2053D400002684F802A00028059655D10AF08AFB00283FD00AF086FB01283BD00AF082FBB0
:2053F400052837D00AF07EFB0C2833D00AF07AFB0D282FD00AF076FB0B282BD00AF072FB18
:205414000E2827D00AF06EFB172823D00AF06AFB19281FD00AF066FB1A281BD00AF062FB48
:205434001B2817D00AF05EFB1C2813D00AF05AFB14280FD00AF056FB15280BD00AF052FBA0
:20545400252807D00AF04EFB262803D02868D0F84C058047D8F8080000F1200130B92868DD
:20547400D0F84C058047D8F808102031096804F1200088475148E06310F028F82968D1F854
:20549400D40090F85300D1F83C14884707462868D0F8D40090F942000CF0EAF9B0F1FF3F5F
:2054B40005D0010828BF4FF6FF704549088038897968DFF810913B6832464FF47A7BA9F83B
:2054D4001661401EC9F81821414303EB5100B0FBFBF0A9F8340199F821016AF3030089F826
:2054F400210199F820016AF3C71089F820012868D0F8C4038047F8B9B88933496F68BBFB0D
:20551400F0F0C0B208707968BBFBF0F008702868D0F8D40090F85300022806D00EF0BAFF00
:20553400032809D105215C2001E00221A820274A11706968096808706769D8F80860A16827
:20555400DFF88CB03FB3002007F096FE2A68D8F808106069D2F8D420637892F853200F4659
:2055740093420AD0496888476868806980F800A0D8F80800A16806680EE0022100228DE820
:2055940006003F6D09F58A76002302AA3146B847C8F80C6008E0366809F58A7904F1200337
:2055B40058464A46B04760612868D0F8D40090F853000BB06070BDE8F08FC04654F1008070
:2055D400EE360020C03500202045002070450020A84B002018410020C04200201401002021
:2055F400FEB5071C00F0AF80F96B002900F0AB80B7F84000002800F0A6800E78002017F11F
:20561400300103D097F83810052902D0002800F09A80387A03280AD138460FF0E3FA4FF612
:20563400FF71814200F08F803880022139727B4C7B4DA06DB61E56D0B61E38D0761E7FD049
:20565400F61E7AD0361F74D0701F7CD1B7F84000032878D1F86B42788178481E0A2807D873
:20567400DFE800F01C1A18161412100E0C0A08C035A314E036A312E038A310E03AA30EE0AC
:205694003CA30CE03EA30AE040A308E042A306E044A304E046A302E048A300E049A30092EB
:2056B4000191E86C696D49A204F0A6FBFEBDB7F84000012847D138460EF008FD78B142893A
:2056D400510B0CD34EF6FF711140418141F40051418141F288300EF00DFE0FF063FFA06C0B
:2056F400401CA064FEBDB7F840000D282BD138460EF0ECFC38B142894FF6FF61114041818B
:2057140041F400714181E86C696D3B883DA204F073FB0FF087FD0346A96DE86C3EA204F0D5
:205734006BFBA01D042110F03CFE606D401C6065FEBD38460BF0AEFBFEBD401CA065FEBD31
:205754003846FDF7A5FCFEBD67656E6572696300636332363532726200C046C0636332362D
:205774003532723100C046C0636332363432723100C046C0636331333532703400C046C04D
:20579400636331333532703200C046C0636331333532703100C046C06363313335327231D0
:2057B40000C046C0636331333132723100C046C0636332363430723200C046C063633133F3
:2057D400353000C063633133313000C053656E736F72202D204465766963653D25732C20ED
:2057F40044657669636546616D696C7949443D25692C204465766963655479706549443D83
:20581400256900C0436F6E666967527370202D203078253034782000257800C0283D002083
:20583400703700202DE9FE4F8A46934680460021022268460AF090FC844F78798DF8008079
:2058540028B107F1A00011F03FF800207871B7F96A405FEA080007F1A0054FF0000600F005
:20587400A2800D3800F0A28072386AD07B38012840F29C80801E00F09480401E00F08A8093
:20589400401E00F08380401E79D0B8F1300FC0F28D80B8F13A0F07DBB8F1600F40F3868030
:2058B400B8F1670F80F282800321601E90FBF1F094FBF1F3201A401EC0B24FEA600903FB16
:2058D40001F0241A012C10D0022C1ED115F8094068463146102224F00F0405F8094004F04D
:2058F4005DF9044305F809400FE015F809003146102200F00F00044605F80900684604F012
:205914004DF944EA001005F809004C4650482A5D396D005D02EA0009F86C4A4503D138A29F
:2059340004F06AFA04E037A204F066FA05F8049097F86A00012132220B4610F0C0F8044697
:2059540021E00321601E002C90FBF1F0A4EB0000A0F10100C0B24FEA600227DD94FBF1F056
:205974004843201A022805D0012813D1A85C40F0F00002E0A85C40F00F00A8540AE02846A5
:2059940010F0E6F80124A7F86A400FE00124A7F86A4008E00121E0B232220B4610F080F891
:2059B400CDE7E0B2C6E7284610F08EFF112715F8010B01A902220DF005FCDAF800001EA137
:2059D400098880190180DAF80000731CD9B2401801A90FF0D8FCF31C7F1EDEB2E7D1B8F1AA
:2059F400000F0BD0DAF8080014A10F2208F034FD641CABF802400120ABF80000BDE8FE8F65
:205A140000C046C0496E76616C696420696E7075742E204F6E6C792075706461746564207E
:205A34007769746820737570706F72746564206368616E6E656C73002000C046202020207E
:205A5400204348414E204D41534B00C070370020091E00002DE9F04F7A4CA068416EADF18E
:205A74002C0D02A88847DFF8E0A1DFF8E0B19AF9000038B1594691F90000002818BF0020DC
:205A940040F0DC8011F08DF8DFF8C4910A9099F80000800806D27D20002107F02DFA002528
:205AB400079001E00025079502958DF80C50059503208DF81800DFF89C81C8F87C51A8F8A6
:205AD400765198F88F7198F88011634B012665F3030166F3000788F8801198F8801188F8F7
:205AF4008F7166F3C71188F8801198F88F1166F3410188F88F1198F88F1165F3820188F8DA
:205B14008F1198F88F1165F3C30188F88F1198F88F1165F3041188F88F1198F88F1160F325
:205B3400461188F88F111868D0F8282408F5C871F4209047494807789FB94846A7680078A8
:205B540080090FD3F86B8047C8F87C0198F8801121F00F0141F0020188F880118DF80C60E7
:205B74000290A7683F4A3E484FF080738DE80C003F6D3D4B006808F5BA79494602AAB847A8
:205B94000028A08006D5022041F288310BF0B6FC2E464FE0594691F90000344F401C0870F0
:205BB40097F90000401C38709AF90000C4F80C902946401C8AF8000002200BF09FFC264FD8
:205BD40026483968057001F1AC021068077807B18025B4F8540017684FF67F7303401D43E0
:205BF4002843A4F8540098F88C21387860F3C71288F88C21D1F8D400C28CA4F86220428D18
:205C140000F14403A4F860201A6804F157052A6058686860D1F8D400C18CA8F8A611418D28
:205C340000F14407A8F8A4113A6808F5CE742260786860600A9850F0E9FD30460BB0BDE81E
:205C5400F08FC04618410020CE460020CD460020A4580020C035002014010020C54600203A
:205C7400D4420020200043005D760500CC4600202DE9F04F754C744FE06807F5A271ADF19F
:205C94002C0D814207D1724890F90000002818BF002040F0D68010F084FF0025DFF8D8815C
:205CB4000A90D8F80000A7F84651D0F8B8000078002807BF4FF4860A4FF0200B70A090E885
:205CD400000CA068416E02A888470320614E8DF8180030780595800807D27D20294607F05F
:205CF4000BF98DF81850079000E00795C7F84C51594B97F85001594AC7F8643165F303005A
:205D140087F85001E3685069B44607F1340607F134019E420DD0B7F84420B0F848309A4276
:205D340007D1B7F84220B0F846309A4208BF514914D0504EFD864A4BBE6301221A7097F814
:205D5400412022F00F0242F0020287F84120FD6397F8402065F3030287F84020DFF804919E
:205D740099F800700E4617BBD8F80010D1F8B8100F781FB99CF80010890918D33A490F78ED
:205D940037F07F0713D139490F7887B9A068C06B8047B060307B012720F00F0040F00200E7
:205DB4003073B0688DF80C702C4B02905869A1680F6D2F4B02AA8DE8000C3146B84700287F
:205DD400A08009D50A9850F021FD022041F288310BF094FB284634E01D49284F91F9000030
:205DF400244E401C087097F90000E6602946401C387002200BF082FBD8F80000AC30016851
:205E14000F7889F8005007B18025B4F85410806A4FF67F720A4015432943A4F85410C18C2E
:205E3400A4F86210418D00F14407A4F86010396804F157063160786870600A9850F0E6FC32
:205E540001200BB0BDE8F08FC035002018410020CD460020A458002000C42264C0420020E5
:205E7400C4460020C5460020A8580020765800205D7605000437002014010020CC46002011
:205E940000004F8C200000012DE9FE4F9B4615468946824610F085FE7B49019008680CAFB9
:205EB400504508BF48687B4C6FF0010828B1B83010F000FC002840F0D6800FF09BFA061C72
:205ED40000F0DB8004F5CE7010F057FE0023B4F9B400C6F80C90401C86F832306FF31F300C
:205EF400A4F8B400C6F808B0B4F8B40030866748C6F810A097E80C0020210027B84619404B
:205F1400104006F1180383E80300424686F8332006F1200383E88001E8683064287C86F838
:205F3400440028687063287986F83800A868F0636869B064A869F064287F86F85000687F46
:205F540086F851002F7C27B9EF6817B1012086F844002F795FB999F80C0000F00F0002284B
:205F740005D1012086F83800D9F808007063484608274568002D18BF002F70D100886FF3EC
:205F94000900B0F5305F18BF022506D196F83300082540F0100086F8330006F1180090E875
:205FB4000C00414606F1180745EA0200194387E80300D4F8D800824507D194F8DC00410831
:205FD40024BF00F0FE0084F8DC0031480768002F39D004F1A0000090D4F8A810D4F8AC2023
:205FF40004F198052B463046B84710F1030F10D0B6F93010B4F9B420914207D0B4F9B41097
:2060140001F6FF716FF31F31A4F8B41010F1020F1BD010F1030F18D096F83300B6F93080DB
:2060340040F0800086F8330000278AF8FC702868864205D0F068007B00F00F0002281CD1C0
:206054000AF01AFE19E06FF00200B4F9B410804601F6FF716FF31F31A4F8B41005E07F1E8E
:206074002846FFB285E76FF0020894F8DC0040F0040084F8DC00C4F8D8A0019850F0C6FB56
:206094004046BDE8FE8FC046382E0020FFEFFF9F04470020802D00202DE9F0470646F089D2
:2060B40017468946ADF1280DC01D80B2054608F0E7FB7A4CFF280BD12846FEF773F885423B
:2060D40004DD641C207800B90520E3E0012000E000206178D9B917B1022F18D1B8B1307A91
:2060F4008DF80C00F788ADF80A70B588ADF8085000230093E18E94F8330001AA032302F07C
:2061140089FC9DF814003074BDF81070B78194F83310E58EE06806AA04238846490310F0B1
:2061340095FC069800F0FF0100F0FF007E2806D140467C210EF046FB069901F0FF017C2929
:2061540040F0A580F08942F20102C11D8FB2E9198A4240F39A80F188327AC1F301238DF86A
:206174001D10B18843EA82038DF81C308A1006468DF81E200423C0F3851201F0030142EAE7
:2061940081128DF81F2010FB03F1F21D01F0FC01731990B28DF820101FFA83FA0D282BDB44
:2061B40048463146002210F0B3FB0246052107A810F0AEFB9DF82010334600F03F064A462D
:2061D40041EAA011B0008DF8201040F0020096268DF8210029468DF8226040460CF066FE7A
:2061F4000646514607AA0723404666700CF05EFE304360704DD135E004F124004946324683
:2062140008F02AF907A90A68301900F12409484609790260731D0171002204F1240099B2CC
:2062340010F076FB9DF82010962300F03F068DF8223041EAA011B0008DF820103B4640F05D
:20625400020007AE49468DF821003268B0790A60B288887140468A8004F1240229460CF0C8
:2062740025FE6070E18EED194FEA8806AAB2C919E18606EBC8010919A1F84C2048B14046D6
:2062940051460CF029FC607803E0052000E001206070C0B20AB0BDE8F087C046BC3F002018
:2062B400F8B5794F7E4C3A6878490C3CD4321068A37890F88300012840F0BF8001F1880327
:2062D40018780025012665F30300187091F80001C1F8845065F3030091F88C3081F80001BA
:2062F40066F3C30381F88C304FF4FA5391F88C00C1F8943066F3041081F88C00D2F8542361
:20631400F4208D319047608908B96681304679685F4E49683B68097808314843317848435E
:206334000090D3F8B810087800282FD00A6C3AB304F108016846904706466179A2785748BA
:20635400652E6CD0002E63D13868403001680A68117D052914D1D0F8941091F829607EB9B7
:2063740092F82C1004290BD1806FC669116B906D2B46B04720B93868D0F870121A204CE012
:206394003868D0F8B800007800283DD1607805283AD10FF0DDFE396840310868009E0068A9
:2063B40010B9D1F80C0580473A48007848BB6078052826D13868006C0068C08AC00820D2EE
:2063D40010F06AFD044610F08BFA33490968B6FBF0F0641A241810F083FA4FF47A77642600
:2063F400B7FBF0F080B27043A0420AD910F078FAB7FBF0F080B2464310F072FA361B00FBD6
:2064140006F500984019009000980EF0FBFAF8BD05703868D0F8701230468847F8BD3B68B0
:206434001C6C246884F86910196C096805701C2081F86A2006F044FCF8BD0024A1F8E240CB
:20645400106890F8312081F8E42090F8240081F8E50091F8E60064F3451081F8E60091F84D
:20647400E60020F01F0040F0010081F8E60091F8E60064F3871081F8E60081F8E83081F89D
:20649400E74081F8E940F8BD14010020C035002020450020425200208C470020A8580020D4
:2064B4007C4500202DE9F04F14460E46ADF1140D0568DDF838A00490181C14BF1F1C01AF85
:2064D4004FF00008C7F8008010F06BFB2979490838BF6FF00E0904D395F85C301BB16FF041
:2064F40008098246D7E02E666C66EC66C5F874800122C5F83080E97985F85C2001F0F701BB
:20651400E97101F0DF01E97150F080F904980DF0C1FD6C79C14674B9BAF1FF3F0BD0BAF14A
:20653400000F08D005F1C8045146204610F021FB204610F020FB10F034FB824650E06C6F02
:20655400002C3BD0049804F0CFFF687901282FD1E879400803D2E86E002840F09180C5F88E
:206574006C80287A85F85C8040F002002872504650F04CF9287A410826D2800824D310F0D7
:2065940010FB297A01F0FD01297241F00101297250F03CF9CDF80090D5F80C41296E6A6F8D
:2065B4002B6C0498A047287A00F0FE002872E4E7E879400864D2EC6E002C61D0504650F04C
:2065D40025F96879012803D110F0EBFA824657E058464FF0FF3110F042F810F0E2FA8246DC
:2065F400EC6E002C4CD0E879010943D280093ED204980CF087F905F178044146204610F055
:206614002EF8504650F002F9A34605F1440A504602A90EF03CFD044610F0C3FA0390E86EDA
:20663400A04238BF041C686F02992246801907F013FF504621460DF0F9FE686FE96E001999
:20665400091B68670398E96650F0E0F8002C02DDE86E0028DBD110F0A4FA8246687902288B
:206674007FF46DAF686F08B96FF00F0908E06FF00C0905E0E8796FF00D0900F0F700E87111
:206694006879012805D085F85C8005F1C80010F074FA686F3860504650F0B8F8484605B04A
:2066B400BDE8F08F2DE9FF478246DAF804603068DAF80050076C17F4F06F47644DD0A86BD6
:2066D40000284AD0E879002400F07F00E871F80A2C6028D3E86CAC6CDAF80090DAF804806A
:2066F400241A06E00068C1B209F144000CF08EFD641ED8F800008169490901D2002CF1D173
:20671400306804E001688DF808109DF8081081694909F7D32868401C2860E979C81104BFBE
:2067340041F08001E9713068EB6B446804F00F0404EA0301B1FA81F24FF0004323FA02F0F7
:20675400014006D0A86B20B12A682B6C84465046E047204610F006F82863D5F8E001406835
:206774000068F16BD0F804250A4201D1F90915D350460AF05FFE504604F0B6FE6879012813
:2067940004D1E86E10B1504609F098FD05F1780010F015FAD5F8E00140680068D0F80415B9
:2067B400B06B014255D0D5F83C01002851D050460AF098FA504606F063FEA87901283CD189
:2067D400D5F83801002838D005F5887801A940460DF046FE0446D5F83801A04238BF041CBB
:2067F400D5F84021D5F82C1101988918224607F033FE404621460DF0C1F9D5F83801D5F80C
:206814004011001BC5F838010919C5F84011504606F036FED5F8380178B995F8280160B114
:20683400002085F828010090D5F8D841D5F82C11D5F840212B6C5046A047D5F83C0120B9D9
:206854003168886B40F40060886305F5A27010F0B6F9380B1DD33168086B20F480700863B0
:20687400E879820811D300F0FD00E96BE871880907D3A86B28B12B6C074620210022504667
:20689400B84702200DF0CEFF3168886B20F4006088630090BDE8FF872DE9F04F754C0646F1
:2068B400A068D0F80001807AADF15C0DC00008F077FA00280C9008BF1A2400F0D6804FF07B
:2068D400010AF07D8DF848A006F118018DF849000A680DF14A073A604A687A60097A3972CC
:2068F40010F05FF91590A068D0F888240DF1460181209047B07D00283DD004208DF803A0A0
:206914004FF000088DF80400B78A8DF80280A568ADF80070D5F894246946D22090474FF6E7
